:020000040800F2
:1000000008080020C1010008931000089D0F000897
:1000100091100008ED03000885130008000000009F
:10002000000000000000000000000000E5110008D2
:10003000EF0300080000000095100008A51200085A
:10004000DB010008DB010008DB010008DB01000820
:10005000DB010008DB010008DB010008DB01000810
:10006000DB010008DB010008DB010008DB01000800
:10007000DB010008DB010008DB010008DB010008F0
:10008000DB010008DB010008DB010008DB010008E0
:10009000DB010008DB010008DB010008DB010008D0
:1000A000DB010008DB010008DB010008DB010008C0
:1000B000DB010008DB010008DB010008DB010008B0
:1000C000DB010008DB010008DB010008DB010008A0
:1000D000DB010008DB010008DB010008DB01000890
:1000E000DB010008DB010008DB01000800F002F87A
:1000F00000F03CF80AA090E8000C82448344AAF186
:100100000107DA4501D100F031F8AFF2090EBAE883
:100110000F0013F0010F18BFFB1A43F0010318473B
:100120004017000060170000103A24BF78C878C15B
:10013000FAD8520724BF30C830C144BF04680C60ED
:10014000704700000023002400250026103A28BF35
:1001500078C1FBD8520728BF30C148BF0B60704739
:100160001FB500F062F81FBD10B510BD00F007F913
:100170001146FFF7F5FF01F017F900F025F903B478
:10018000FFF7F2FF03BC00F02BF900000B49D1F898
:1001900000C04A685CF8043B1068184442F8040B3D
:1001A0008C4528BFA1F1DC0C8A4228BFA1F1DC02FA
:1001B000C1F800C04A6020F0004070479C01002058
:1001C0000948804709480047FEE7FEE7FEE7FEE7EB
:1001D000FEE7FEE7FEE7FEE7FEE7FEE70448054927
:1001E000054A064B70470000F7120008ED000008B2
:1001F000080200200808002008040020080400204D
:100200000B4910B5A1F17C020A4CC2E93712372123
:1002100006E000EB104342F82130074B00FB03409F
:100220000B1EA1F10101F4DC10BD0120E8E7000084
:100230003C010020E119D666CD0D0100032A40F2F1
:10024000308010F0030C00F0158011F8013BBCF178
:10025000020F624498BF11F801CB00F8013B38BF90
:1002600011F8013BA2F1040298BF00F801CB38BF9E
:1002700000F8013B11F0030300F02580083AC0F0BC
:10028000088051F8043B083A51F804CBA0E8081064
:10029000F5E7121D5CBF51F8043B40F8043BAFF397
:1002A0000080D20724BF11F8013B11F801CB48BFF1
:1002B00011F8012B24BF00F8013B00F801CB48BF27
:1002C00000F8012B704710B5203AC0F00B80B1E860
:1002D0001850203AA0E81850B1E81850A0E818507B
:1002E000BFF4F5AF5FEA027C24BFB1E81850A0E884
:1002F000185044BF18C918C0BDE810405FEA827C9E
:1003000024BF51F8043B40F8043B08BF7047D207B4
:1003100028BF31F8023B48BF11F8012B28BF20F855
:10032000023B48BF00F8012B70474FF0000200B5B8
:10033000134694469646203922BFA0E80C50A0E808
:100340000C50B1F12001BFF4F7AF090728BFA0E8B6
:100350000C5048BF0CC05DF804EB890028BF40F882
:10036000042B08BF704748BF20F8022B11F0804FC4
:1003700018BF00F8012B70477047704770477546EB
:1003800000F028F8AE4605006946534620F0070005
:10039000854618B020B5FFF721FFBDE820404FF09B
:1003A00000064FF000074FF000084FF0000B21F05F
:1003B0000701AC46ACE8C009ACE8C009ACE8C0092C
:1003C000ACE8C0098D4670470446AFF30080204674
:1003D000FFF7D5FE00487047A401002070470000D9
:1003E00001491820ABBEFEE726000200FEE7704779
:1003F000F0B590F820500468A468012D05D0022DB6
:1004000003D0416A41F480214DE014F0406F01D1E6
:10041000E50045D5C4F301640125A5401D608B6846
:100420004FF4C0759BB1CE6833434E6843EAC603B0
:10043000066805EB0417F3514FF4C273076803EB2A
:1004400004130E69FE50097D012905D009E00E88CC
:10045000CB6843EA4653EBE70168CE5846F4807612
:10046000CE501179D2F805304FF4C67641EA032117
:10047000036806EB041699511178D2F801204FF465
:10048000C47341EA0221026803EB0413D1500068EF
:1004900005EB0411425842F0010242500020F0BD29
:1004A000416A41F4001141620120F0BD70B50400C1
:1004B00003D094F8200010B104E0012070BD204664
:1004C00000F082F82068016841F00101016000F04D
:1004D000E7F90546052604E000F0E2F9401B0A288A
:1004E00011D820684068C007F6D02068016821F064
:1004F0000201016000F0D4F905460BE000F0D0F9EC
:10050000401B0A2806D9606A40F40030606284F813
:100510002060D2E7206840688007EFD4207E012861
:10052000206801683DD021F080010160607E0128D3
:100530002068016838D021F040010160A07E0128C8
:100540002068016833D021F020010160E07E01289D
:10055000206801682ED041F010010160207F012841
:100560002068016829D021F008010160607F01281E
:100570002068016824D021F004010160D4E902015F
:100580000843D4E90412114308436168491E084333
:100590002168C86100206062012084F820000020EA
:1005A00070BD41F08001C0E741F04001C5E741F076
:1005B0002001CAE721F01001CFE741F00801D4E79C
:1005C00041F00401D9E7000010B586B00021009188
:1005D00001910291039100681349884222D1134886
:1005E000C16941F00071C161C16901F000710491FC
:1005F000816941F00401816180690D4C00F00400C3
:1006000004904FF4006000906946204600F050F8D6
:10061000A114009102210191032103916946204612
:1006200000F046F806B010BD006400400010024023
:100630000008014070B5044690F82000012804D05D
:10064000606A40F40020606217E0022084F8200015
:100650002068016821F00101016000F021F90546E0
:100660000DE000F01DF9401B0A2808D9606A40F42B
:1006700000306062052084F82000012070BD2068F1
:100680004068C007EDD1606270BD000070B50446DF
:1006900000F006F90546601C02D0044800780444C6
:1006A00000F0FEF8401BA042FAD370BD10000020FD
:1006B0002DE9F84FDFF8AC910024A9F1040B234693
:1006C0004FF00F0809F1040AABF1040EC2E0012754
:1006D000A7403A40BA4272D1DFF88CC14D68A5EB11
:1006E0000C0665452BD00DDC032D34D005DC35B36D
:1006F000012D19D0022D2FD11BE0112D16D0122D56
:100700002AD119E0B6F5881F19D006DCB6F5803F6E
:1007100015D0B6F5801F1FD111E0B6F5001F0ED021
:10072000B6F5041F18D10AE0CB6815E0CB681B1D95
:1007300012E0CB6808330FE0CB680C330CE08B6819
:100740002BB1012B4FF0080303D0476104E00423D1
:1007500002E0076100E00023FF2A01D8064601E01D
:1007600000F104064FEA840501D9A5F12005376898
:1007700008FA05FC27EA0C0703FA05F547EA05071E
:1007800037604D68ED0064D5384DAE6946F001061E
:10079000AE61AD6924F0030605F001050095344D06
:1007A0007719BE68A5072D0F08FA05FC26EA0C0686
:1007B000DFF8C0C0604503D14FF0000C17E048E0FF
:1007C000DFF8B4C0604502D14FF0010C0FE0DFF854
:1007D000ACC0604502D14FF0020C08E0DFF8A0C0C9
:1007E000604502D14FF0030C01E04FF0040C0CFA0D
:1007F00005FC4CEA060CC7F808C04D68D9F8006043
:10080000ED02002D4D4601DA164300E096432E60BE
:100810004D68DAF80060AD02002D554601DA164346
:1008200000E096432E604D68DBF80060AD03002DBC
:100830005D4601DA164300E096432E604D68DEF80F
:100840000060ED03002D754601DA164300E0964383
:100850002E60641C0A6832FA04F57FF438AFBDE8F4
:10086000F88F000008040140000011100010024041
:100870000000014000080140000C01400010014050
:1008800000140140C26821EA02030A4043EA02411F
:10089000016170470AB1016170470904FBE700007C
:1008A00001488068704700001000002002488168FD
:1008B000027811448160704710000020074810B58D
:1008C000016841F010010160032000F067F80F207B
:1008D00000F006F800F024F8002010BD00200240CF
:1008E00070B50D4D04464FF47A712878B1FBF0F0E5
:1008F0000A490968B1FBF0F000F0D2FA48B9102CAF
:1009000007D200222146501E00F028F800206C601B
:1009100070BD012070BD0000100000201C000020F0
:100920000C4808B5816941F001018161816901F0DC
:1009300001010091C16941F08051C161C06906495E
:1009400000F080500090486820F0E06040F00070B7
:10095000486008BD0010024000000140F0B40E4B9A
:100960001B68C3F30223C3F10704042C00D9042439
:100970001D1D072D01D2002300E0DB1E012606FA13
:1009800004F56D1E0D409D409E40761E164045EAC2
:100990000601F0BC00F0F8BC0CED00E0064A00F0E7
:1009A000070110684FF6FF03184040EA0120034991
:1009B00008431060704700000CED00E00000FA05ED
:1009C0002DE9F0470D46040067D0DFF81881D8F80C
:1009D000000000F00700A8420CD2D8F8001021F067
:1009E00007012943C8F80010D8F8000000F00700FC
:1009F000A84252D120683C4E810712D5400703D54A
:100A0000706840F4E06070602078000703D570687B
:100A100040F4605070607068A16820F0F0000843F6
:100A200070602078C00727D06068012810D0316836
:100A3000022810D0890700292FDA716821F00301FC
:100A400001437160FFF72CFF074641F288390CE043
:100A500031688903EFE78901EDE7FFF721FFC11B4B
:100A6000494502D90320BDE8F0877068616800F04D
:100A70000C00B0EB810FF0D1D8F80010404601F027
:100A80000701A9420BD9016821F007012943016040
:100A9000006800F00700A84201D00120E3E72078B9
:100AA000400705D57068E16820F4E0600843706095
:100AB0002078000706D57068216920F4605040EA6C
:100AC000C100706000F038F87168084AC1F3031182
:100AD000515CC8400649086006480068FFF700FFFF
:100AE0000020C0E700200240001002404618000825
:100AF0001C000020140000200448054900684968D3
:100B0000044AC1F30221515CC84070471C00002018
:100B1000001002405618000804480549006849685A
:100B2000044AC1F3C221515CC84070471C00002038
:100B300000100240561800080E4B59680E4801F08C
:100B40000C02042A11D0082A0FD10C48C1F38342A9
:100B5000C903805C0AD55968084AC1F34041921E16
:100B6000515C054A5043B0FBF1F0704704494843DB
:100B7000704700000010024000127A00361800088A
:100B800000093D002DE9F84F04006FD02078BF4DDB
:100B9000C00747D06868C0F38100012807D06868A3
:100BA000C0F38100022809D16868C00306D528680F
:100BB000800337D560680028E7D033E06068B0F57F
:100BC000803F0BD010B1B0F5A02F11D0286820F4D1
:100BD00080302860286820F4802002E0286840F4F3
:100BE00080302860606888B1FFF75AFE064609E049
:100BF000286840F480202860F0E7FFF751FE801B52
:100C0000642874D828688003F7D50BE0FFF748FE06
:100C1000064604E0FFF744FE801B6428F1D82868EC
:100C20008003F7D42078DFF8688280074FF0010A4C
:100C30004FF0000939D5686810F00C0F07D06868CC
:100C4000C0F38100022809D16868C00306D428686F
:100C5000800714D52069012808D110E02069B0B1BF
:100C6000C8F800A0FFF71CFE064605E009E1FFF703
:100C700017FE801B0228C4D828688007F7D528688B
:100C8000616920F0F80040EAC10028600DE0C8F872
:100C90000090FFF705FE064604E0FFF701FE801B0B
:100CA0000228AED828688007F7D4207800072DD511
:100CB0007848A169E1B1C0F800A0FFF7F1FD064650
:100CC00004E0FFF7EDFD801B022810D8686A80075A
:100CD000F7D571484FF4FA510068B0FBF1F000907D
:100CE00000BF0098411E00910028F9D10EE07DE080
:100CF000C0F80090FFF7D4FD064604E0FFF7D0FDF2
:100D0000801B022872D8686A8007F7D420784007D1
:100D10005CD5E8690027C00008D4E86940F080503D
:100D2000E861E869012700F0805000905B480168A5
:100D3000C90511D40168834641F480710160FFF751
:100D4000AFFD064604E0FFF7ABFD801B64284DD8DD
:100D5000DBF80000C005F6D5E06801280AD008B12C
:100D6000052813D0286A20F001002862286A20F0A4
:100D7000040002E0286A40F001002862E06841F2C5
:100D8000883B88B1FFF78CFD064609E0286A40F0F1
:100D900004002862EEE7FFF783FD811B59455CD80C
:100DA000286A8007F7D50BE0FFF77AFD064604E0D6
:100DB000FFF776FD811B59454FD8286A8007F7D485
:100DC000012F03D1E86920F08050E861E069A8B301
:100DD0006968C1F38101022946D00228484606D03D
:100DE000C8F86000FFF75CFD044639E035E047468F
:100DF000C8F86000FFF754FD064604E0FFF750FD19
:100E0000801B022829D828688001F7D4206AB0F511
:100E1000803F05D16868A16820F40030084368600D
:100E2000D4E908010843696821F474110843686033
:100E3000C7F860A0FFF734FD044605E023E0FFF7A4
:100E40002FFD001B022808D828688001F7D51AE07A
:100E5000FFF726FD001B022802D90320BDE8F88F0A
:100E600028688001F4D40EE00128F7D06868226A6F
:100E700000F48031914204D1616A00F4701088421C
:100E800001D00120EAE70020E8E70000001002405E
:100E900000004242800442421C00002000700040DA
:100EA00010B5401EB0F1807F01D3012010BD4FF07E
:100EB000E02460610F21601700F066FA0020A06155
:100EC00007202061002010BD70B5040004D094F804
:100ED0004100002510B106E0012070BD84F84050AB
:100EE000204600F023F8242084F841002068C168DF
:100EF00021F40051C160204600F0FEF9206801692C
:100F000021F4904101612068416921F02A01416189
:100F10002068C16841F40051C1606564202084F8F4
:100F2000410084F842006563002070BD30B585B093
:100F300000240094019402940394006814498842A8
:100F400024D11448816941F480418161816901F4AF
:100F500080410491816941F00401816180690E4DF5
:100F600000F0040004904FF4007000900220019003
:100F70000320039069462846FFF79AFB2815CDE920
:100F80000004694628460294FFF792FB05B030BD85
:100F9000003801400010024000080140FEE7000058
:100FA0000F4801210022017042708170C2700171EE
:100FB000552141713C2181711921C1719621017224
:100FC000372141725A2181720421C172502101736B
:100FD0000449C0F80D100449C0F811107047000012
:100FE000900000205E3AA8415AB5D3420B480A4906
:100FF0004FF4003201600921416000218160C0E9A5
:1010000003124FF440124261017641768176C17637
:1010100001774177FFF74ABA0064004020000020C2
:1010200030B585B0002418480094019402940394CC
:10103000816941F020018161816901F02001049101
:10104000816941F004018161816901F00401049129
:10105000816941F00801816180690C4D00F0080050
:101060000490002220212846FFF714FC20210120B3
:10107000CDE900100220CDE9024069462846FFF77D
:1010800017FB05B030BD000000100240000C01400D
:10109000FEE7FEE77047000070B586B0FFF776F810
:1010A00000EBD0714A4C21F00101401A2070FFF78B
:1010B0006DF800EBD07121F00101401A6070FFF76C
:1010C00065F8032190FBF1F201FB1200A070FFF71D
:1010D0005DF800EBD07121F00101401AE070FFF7DC
:1010E00055F800EBD07121F00101401A2071FFF793
:1010F0004DF8652190FBF1F201FB12006071FFF7E2
:1011000045F8792190FBF1F201FB1200A071FFF785
:101110003DF840F2F51190FBF1F201FB1200E07195
:10112000FFF734F840F2E93190FBF1F201FB1200D5
:101130002072FFF72BF8512190FBF1F201FB120016
:1011400014306072FFF722F83D2190FBF1F201FBB1
:1011500012003C30A072FFF719F8062190FBF1F263
:1011600001FB1200401CE07214221A496846FFF786
:10117000AAF8FFF70BF8052190FBF1F201FB120032
:101180001DF820002073FFF701F8C92590FBF5F149
:1011900005FB110000F06AFA0F4E314600F0A4F989
:1011A0000E4900F03FF9C4F80D00FEF7EFFF90FB89
:1011B000F5F105FB110000F059FA314600F094F901
:1011C000074900F02FF9C4F8110006B070BD000007
:1011D000900000202018000800007A443333A74113
:1011E0006666D342704700002DE9FF412C4F2B4823
:1011F00015212A4DC7E90201032018353870242231
:101200002A6008222A61002600968DF800008DF8D9
:1012100001108DF8026001208DF803002946019627
:101220003B1D6A46A1F18800FFF7E2F80A20FFF7AC
:101230002DFA25200024B846286027E0401E02969B
:101240000396844204D1CA68A4EBC400104400E0B1
:101250000720C7B28DF80840D8F80810C4EBC400C6
:1012600001443A460DF10900FEF7E8FF0B490C4B2B
:101270007F1C18311B1D02AAA1F188002F61FFF706
:10128000B7F80A20FFF702FA641CE4B298F80000ED
:1012900041468442D2D3BDE8FF8100009000002087
:1012A00000000020FFF702BB30B58FB02821684650
:1012B000FFF73BF814210AA8FFF737F801210804CB
:1012C000CDE900100024029402250491CDE90750D5
:1012D0004FF4E01009906846FFF754FC0F20CDE969
:1012E0000A056802CDE90C4002210AA80E94FFF716
:1012F00067FB0FB030BD704710B504460068016948
:10130000E26821F4405111430161A1682069014361
:10131000606901432068C26841F20C639A430A4342
:10132000C26020684169A26921F4407111434161A2
:1013300013492068884202D1FFF7EEFB01E0FFF776
:10134000DBFB00EBC00101EB001061686422890047
:10135000B0FBF1F1B1FBF2F06FF01803434301EB86
:101360008303322101EB0311B1FBF2F101F0F00232
:1013700002EB001001F00F0108442168886010BDE5
:1013800000380140FEE700000907090E002801DBD4
:10139000034A02E0034A00F00F0081547047000046
:1013A00000E400E014ED00E0FFF788FAFFF77CFFAF
:1013B000FFF736FEFFF71AFE1848174900240160B0
:1013C0004FF4E131C0E901140C21C460C0E90441CB
:1013D0008461C461FFF778FD1048082160308460A3
:1013E000C0E9034104758838FFF724F9FFF7D8FDF9
:1013F000FFF756FAFEF704FF094C4FF47A75FFF732
:101400004BFEFFF7F1FE20212046FFF73BFA28466E
:10141000FFF73CF9F3E700000038014048000020E6
:10142000000C014090EA010F48BF81F0004100F13B
:101430008881421A3CBF801A89184FEAD0524FF077
:101440007F4C1CEA410FA2EBD15318BF9CEA026FFC
:1014500000F03B804FF0004C4CEA00204CEA0121A8
:1014600021FA03FC10EB0C0C1ED202F1FF325FEAF2
:101470001C2040EBC25038BF70471CF07F0F4FEA72
:10148000400C18BFBCF17F4F38BF7047C3F1200339
:10149000994008BF20F00100BCF17F4F38BF704772
:1014A000A0F1C04000F040B94FEA3C00000A40EB18
:1014B000C25028BF1CF0FF0F4FEA400CE6D018BF07
:1014C000BCF17F4F38BF7047EAE79CEA026F05D056
:1014D00010EA5C0F08BF00F00040704710B500F044
:1014E000DDF800BF64FBBE3E4FF47F0C1CEAD01257
:1014F0001EBF1CEAD11392EA0C0F93EA0C0F00F006
:10150000858090EA010F48BF42F4807240F4000CDD
:1015100041F400002CF07F4120F07F4000B5814273
:10152000A2EB03020FF2081CACEB504EC0F100001E
:101530009EF800E04FEA4E0E00FB0EFC38BF49005B
:101540004FEA2C1C02F5FA020CFB0EF34FEACE1EFA
:101550004FEA112C4FEAC1210EEB635E42EB2242AF
:101560000EFB0CFC4FEA1C5300FB03114FEA112C3D
:101570004FEA01310EFB0CFC4FEADC4C00FB0C1176
:10158000C14228BF09184CEB03335DF804EB10EBA4
:10159000410143EBC250B2F57C0F38BF704729D5EB
:1015A00012F0F00F1CBF00F1C04000F00040704787
:1015B000008182838485868788898B8C8D8E8F912C
:1015C0009293959697999A9C9D9FA0A2A3A5A7A850
:1015D000AAACAEB0B2B3B5B7B9BCBEC0C2C5C7C97C
:1015E000CCCED1D4D7D9DCDFE2E6E9ECF0F3F7FAE0
:1015F000FE0000004FEA400C0CF1807CBCF17E4FF5
:1016000028BF7047B0F1C04000F08EB890EA010FDB
:101610000CEAD11348BF42F48072624538BF63457B
:1016200007D213F47F0F16D080EA010000F00040CB
:10163000704710B500F032F8097EFC3E00F005B8A6
:1016400080EA010000F00040704780EA010000F0ED
:10165000004000F069B812F47F0F04BF02487047E1
:1016600080EA010000F060B80000C07F10F0004187
:1016700048BF4042B0FA80F310FA03F2C3F19D0371
:101680000BD051EAC35101EB1220530638BF70470B
:1016900000F1010008BF20F0010070470EF1020EBA
:1016A0002EF0030E5EF8044B244204D44FEA4102AC
:1016B000B2F17F4F11D84FEA4003B3F17F4F0CD8FE
:1016C0000ED14FEAD07CB2F17F4F0CEB4C0C0CF1F9
:1016D000020C08BF4CEBD17C04E04FF0080C01E099
:1016E0004FEAD17C0CEB4C0324FA03F404F007041A
:1016F000B4F1040C06D20EEB840CBDE810404CF0A3
:10170000010C6047DFE80CF0070802024FF00040D0
:10171000A0F5800010BD0846420018BFD2F18072CB
:1017200088BF00F0004010BDFF2141EAD050C00545
:101730007047000090EA010F48BF81F000413FF57B
:1017400078AE421A04D882F00042A0EB02001144A5
:101750004FEAD0524FF07F4C1CEA410FA2EBD1531D
:1017600018BF9CEA026F4AD04FF0004C4CEA0020B0
:101770004CEA012121FA03FCB0EB0C0C0FD412F05F
:10178000FE0F36D05FEA4C001DD5001240EBC25070
:1017900038BF70471CF03F0F18BF70470BE0A2F135
:1017A00001025FEA1C2040EBC25038BF70471CF0BA
:1017B0007F0F18BF7047C3F12003994014BF401E2C
:1017C00020F00100704780084FEA122308BF7047DD
:1017D000B0FA80FCA2EB0C02CCF1280C60FA0CF001
:1017E00093EA122F04BF00EBC25070474FEAC37058
:1017F0007047130A5FEADC1008BF7047F6E79CEAFF
:10180000026F04D010EA5C0F08BF0020704710B5CB
:10181000FFF744FF40DFF63E81F0004070470000D4
:101820001E000000320000003C00000050000000DC
:1018300064000000010202030405060708090A0B00
:101840000C0D0E0F1010000000000000000001023F
:101850000304060708090000000001020304000059
:101860008018000800000020200000002801000867
:10187000A018000820000020E8070000440100082C
:101880000000000000000000000000000000000058
:1018900001000000100000000000000000127A00AB
:04000005080000ED02
:00000001FF
