:020000040800F2
:10000000C01F0020CD0200084F480008CD40000866
:100010004D480008511E0008714E00080000000005
:100020000000000000000000000000003502000891
:10003000232200080000000079020008F1490008AE
:10004000E7020008E7020008E7020008E7020008EC
:10005000E7020008E7020008E7020008E7020008DC
:10006000E7020008E7020008E7020008ED210008A7
:10007000E7020008E7020008E7020008E7020008BC
:10008000E7020008E7020008E7020008E7020008AC
:10009000E7020008E7020008E7020008E70200089C
:1000A000E7020008E7020008E7020008E70200088C
:1000B000E7020008954A0008A14A0008E702000884
:1000C000E7020008E7020008E7020008E70200086C
:1000D000E7020008E7020008E7020008E70200085C
:1000E000E7020008E7020008E702000800F002F853
:1000F00000F090F80AA090E8000C82448344AAF132
:100100000107DA4501D100F085F8AFF2090EBAE82F
:100110000F0013F0010F18BFFB1A43F0010318473B
:10012000C06A0000E06A0000103A24BF78C878C1B5
:10013000FAD8520724BF30C830C144BF04680C60ED
:10014000704700000023002400250026103A28BF35
:1001500078C1FBD8520728BF30C148BF0B60704739
:100160006E2900F0B783702900F04E81662906F0F1
:10017000B283652906F0AF83672906F0AC83612955
:1001800006F0AB8303681B0A28BF41F08001692990
:1001900000F06483642900F06183752900F05E83B8
:1001A0006F2900F08B84782900F01A81E92900F08A
:1001B0002384E42900F02084F52900F01D84EF2930
:1001C00000F08884F82900F019810368DB0928BF52
:1001D00041F08001632901F06B80732901F0708088
:1001E000E32901F07B80F32901F080800020704733
:1001F0001FB500F079FC04000020002105F0BEFED0
:10020000401C60600020002105F0A2FEE0601FBDE0
:1002100010B510BD01F004F91146FFF7E9FF05F034
:100220005DF801F06BF903B4FFF7F2FF03BC01F0D6
:10023000ABF90000224B19680868B0E8F00F80F3B2
:100240000988BFF36F8F4FF0000080F311884EF0E4
:100250000D0E70470000000006480068006880F33B
:10026000088862B661B6BFF34F8FBFF36F8F00DFB0
:1002700000BF00BF08ED00E0EFF30980BFF36F8F10
:100280000F4B1A6820E9F00F106008B54FF05000CE
:1002900080F31188BFF34F8FBFF36F8F05F098FC89
:1002A0004FF0000080F31188BDE808401968086825
:1002B000B0E8F00F80F30988BFF36F8F704700BF7D
:1002C00054000020EFF30580704700000948804784
:1002D00009480047FEE7FEE7FEE7FEE7FEE7FEE728
:1002E000FEE7FEE7FEE7FEE704480549054A064B40
:1002F00070470000934A0008ED000008C019002074
:10030000C01F0020C01B0020C01B00201CB50C46D5
:10031000064B7B4469460090204600F0F6FA0446FE
:100320000020694600F004FB20461CBD1B060000AF
:1003300070B5044685690068C10601D5302600E025
:100340002026C00708D070BDD4E90121304690476F
:10035000206A00F1010020626D1EF5D570BD70B5F8
:10036000044685690078C00708D170BDD4E9012131
:1003700020209047206A00F1010020626D1EF5D513
:1003800070BD0000F0B40D460188090502D5234C6C
:100390007C4402E0214C7C440E34002100F1240610
:1003A0000BE002F00F074FEA1212E75D42EA037218
:1003B0004FEA1313775401F1010152EA0307F0D118
:1003C00002780023120704D5702D06D009B111342C
:1003D00002232246F0BC00F0E4B910340123F8E710
:1003E00070B504460D462146106800F0A8F9024693
:1003F00029462046BDE870400023C3E7D21D22F005
:100400000703D3E90023BDE70368126843F0200324
:1004100003600823C3610023B4E70000FE66000008
:100420002DE9F05F894604464FF0000ADFF878B105
:10043000FB44C0F820A02046E1688847002875D01A
:10044000252806D0D4E901219047206A401C20626B
:10045000F1E700265F462046E168884720280546E8
:1004600008DB312D06D207EB050010F8200C08B18F
:100470000643F0E7B00701D526F00406C4F81CA037
:100480000027C4F818A02A2D09D0284604F02DFD15
:1004900038B304EB8708303DC8F8185019E059F814
:1004A000041B204604EB87029161E1688847012F15
:1004B000054618D1E069002820DA26F020061DE064
:1004C000D8F8180000EB800005EB40003038C8F881
:1004D00018002046E1688847054604F006FD00281C
:1004E000EED1012F0AD02E2D08D12046E168884791
:1004F0007F1C0546022F46F02006C4DBA0690028B9
:1005000003DA404246F00106A061F00701D026F070
:1005100010066C2D0BD0682D09D04C2D39D06A2DCA
:1005200035D0742D35D07A2D33D016E038E0E1681F
:100530002F4620468847B842054609D16C2F26D061
:100540004FF48060E168064320468847054604E092
:100550006C2F1AD04FF4807006430DB3A5F1410003
:10056000192802D8203546F400664A462946204616
:1005700026604E46FFF7F4FD80B101280BD0F61D32
:1005800026F0070000F1080955E74020E4E7802045
:10059000D8E70020D6E706F104094CE7284651E7E2
:1005A000206ABDE8F09F00008666000010B5431C7D
:1005B00002E010F8011B71B18107FAD14FF001324E
:1005C00002C88C1A8C4314EAC211F9D0C01A0A0668
:1005D00003D0C01E10BDC01A10BD0A0401D0801E79
:1005E00010BD0902FCD0401E10BD032A40F230802D
:1005F00010F0030C00F0158011F8013BBCF1020F64
:10060000624498BF11F801CB00F8013B38BF11F8E4
:10061000013BA2F1040298BF00F801CB38BF00F8FB
:10062000013B11F0030300F02580083AC0F0088078
:1006300051F8043B083A51F804CBA0E80810F5E75C
:10064000121D5CBF51F8043B40F8043BAFF300803F
:10065000D20724BF11F8013B11F801CB48BF11F8B4
:10066000012B24BF00F8013B00F801CB48BF00F884
:10067000012B704710B5203AC0F00B80B1E818503C
:10068000203AA0E81850B1E81850A0E81850BFF47C
:10069000F5AF5FEA027C24BFB1E81850A0E818501B
:1006A00044BF18C918C0BDE810405FEA827C24BF6F
:1006B00051F8043B40F8043B08BF7047D20728BFFD
:1006C00031F8023B48BF11F8012B28BF20F8023B4C
:1006D00048BF00F8012B70474FF0000200B51346E9
:1006E00094469646203922BFA0E80C50A0E80C5052
:1006F000B1F12001BFF4F7AF090728BFA0E80C5003
:1007000048BF0CC05DF804EB890028BF40F8042BFB
:1007100008BF704748BF20F8022B11F0804F18BF68
:1007200000F8012B704770477047704709684A0509
:1007300001D540B27047C905FCD500B270470968C1
:100740004A0501D5C0B27047C905FCD580B27047D3
:1007500070B50C460546012A05D02878800600D5DC
:10076000EA69002302E0012305E05B1C934202D208
:10077000E05C0028F9D1A869E618C01AA861286AC7
:10078000184428622846FFF7D3FD04E0D5E901218B
:1007900014F8010B9047B442F8D32846FFF7DFFD69
:1007A00070BD2DE9F0470D4699469246044600F18A
:1007B00024080168880604D5E06921F01001216051
:1007C00000E00120A84202DDA0EB050700E00027C1
:1007D000A16907EB050202EB0900A1EB0000A06193
:1007E0002078C00602D42046FFF7A2FD002608E0CC
:1007F000D4E901211AF806009047206A401C761CB3
:1008000020624E45F4DB2078C0060AD52046FFF76B
:100810008FFD06E0D4E9012130209047206A401C7A
:100820002062381EA7F10107F4DC07E0D4E90121BA
:1008300018F805009047206A401C2062281EA5F188
:100840000105F3DC2046FFF78AFD2078000602D57B
:100850000220BDE8F0870120FBE700002DE9F04110
:100860000646002410687529314616A511D0FFF7F9
:100870005DFF002803DAC0F1000013A507E031682E
:100880008A0701D511A502E0490704D510A5012466
:1008900001E0FFF754FF00210A2306F1240707E0D7
:1008A000B0FBF3F203FB1200303078541046491CC1
:1008B0000028F5D123462A463046BDE8F041FFF72F
:1008C00070BF0000000000002D0000002B000000A1
:1008D0002000000011680268006A530501D5087005
:1008E0000BE0D30501D5088007E0130603D5C21736
:1008F000C1E9000201E052060860012070470000D3
:1009000001694A1C02610878704700B58FB0CDE9D3
:1009100001310021059105497944CDE903101146C3
:100920006846FFF77DFD0FB000BD0000E5FFFFFF4B
:100930000A6802F8010B0A60704700002DE9FF5FAA
:1009400015468A460446DFF8AC80F8440027D8E90B
:1009500000103E46CDE9001011E03AF816106A4644
:1009600002A800F039FD411C07D02178890603D583
:10097000E269391891420ED8074406F10106207841
:10098000800602D5E069B84205DDAE42E5DB3AF803
:1009900016000028E1D1A069C01BA0612046FFF726
:1009A000C7FCD8E90010CDE90010002016E03AF8A5
:1009B00018106A4602A800F00FFD8146401C0BD0BB
:1009C00000250DF1080B05E0D4E901211BF8050015
:1009D00090476D1C4D45F7D308F10100B0428046A9
:1009E000E5DB206A384420622046FFF7B8FCBDE80A
:1009F000FF9F00007E6100002DE9F0418046D21D7E
:100A000022F007020025D2E90002F52914A612D02F
:100A1000002A06DA0023D0EB030063EB020211A6E2
:100A200008E0D8F800108B0701D50FA602E04907AF
:100A300001D50EA601251146002408F1240704E083
:100A400000F056F830323A55641C50EA0102F7D1F2
:100A50002B46324621464046BDE8F041FFF7A1BE95
:100A6000000000002D0000002B000000200000000E
:100A700030B4002100F124040CE002F0070505F178
:100A800030054FEAD20242EA4372655401F1010196
:100A90004FEAD30352EA0305EFD10468002310A202
:100AA000250708D504F020040C4304D0C4690123B1
:100AB0000CA2641EC46130BCFFF773BE10B50446BF
:100AC00021461068FFF73BFE02462046BDE8104075
:100AD0000023CDE7D21D22F00701D1E90023C7E7AB
:100AE0000000000030000000004870477C19002022
:100AF00030B5B0F10A024FEA900E71F100034EEAF0
:100B0000817EB0EB0E0061EB91014FEA101E4EEAC0
:100B1000017E10EB0E0041EB11114FEA102E4EEA50
:100B2000016E10EB0E0041EB11214FEA104E4EEA20
:100B3000014E10EB0E0041EB1141401841F1000154
:100B40004FEAD00040EA41704FEAD10110EB800536
:100B50004FEA810444EA907444EB01046D1944EBBC
:100B60000404521BA3414FF0000348BF0A3200D5D2
:100B700030BD401C41F1000130BD70472DE9FF4FF1
:100B80000C461E464FF0FF378BB0D2E90001DDF86E
:100B900060800A908A46C1F30A5505B93D46002196
:100BA00008464FF00000BAF1000F00F4400005DAEB
:100BB00000EB80004FF4400101EA50004FEA9059E9
:100BC000B9F1010F00DDB9460A9850EA4A000ED08B
:100BD00044F61050A5F2FF3545432F14B8F1000F2D
:100BE0001ED07542291E1EDDC9F100021CE0B8F1BD
:100BF000010F4FF0000001D0302103E0F24305E087
:100C00002154401CB042FBDB30460022002121541D
:100C10000B99C1F80880C1E900200FB0BDE8F08F42
:100C2000BD1B6D1CDEE74A4600DA694206A800F0EB
:100C300061FB06AB07CB03AB07C350460A9900F034
:100C4000AAFC8DE80700A0F500501F38009003981B
:100C5000002D09DD42F21F014A46084403A9039012
:100C6000684600F009FF08E0A0F500504A461F382A
:100C700003A90390684600F013FF8DE80700000405
:100C8000000C03D04FF0FF30410800E01046B8F1EF
:100C9000000F03D00022009215461FE0751E06D4F7
:100CA000FFF726FF02F1300262556D1EF8D5B346FC
:100CB0000122084302D000227F1C04E02078302863
:100CC00001D100227F1E002A099787D01DE0112D37
:100CD00007DAFFF70DFF303262556D1C50EA010252
:100CE000F5D108430FD10021681E05E0235C625C4A
:100CF0006354491C2254401E8142F7DBAB46A81BBB
:100D0000401E099001E0009848B1002004F80B0053
:100D10000B98099AC0F80880C0E9002B7DE71126DE
:100D20004FF000085AE72DE9F04F88460446D21DDF
:100D300022F0070191B0D1E90001CDE90A0104F0E8
:100D400098F802460B98C00F01D02D2007E02068CC
:100D5000810701D52B2002E0202101EAC000032AEF
:100D6000099001D0072A05DB03464146204600F0E2
:100D700085FB0FE12078800601D5E06900E00620C0
:100D8000B8F1650F814606D0B8F1660F18D0B8F1FA
:100D9000670F72D132E00020B9F1110F009001DB32
:100DA000112301E009F101030AAA01A90CA8FFF728
:100DB000E5FEDDE90C70002609F10105834648E0F7
:100DC00001204B4600904FF000470AAA01A90CA849
:100DD000FFF7D4FEDDE90DB00C995D46002618B989
:100DE00009F1010001EB0005B9EB050003D4C0F1E6
:100DF000FF3609F10105A5EB09002BE0B9F1010F60
:100E000001DA4FF001090020B9F1110F00904846B6
:100E100001DD112300E003460AAA01A90CA8FFF78F
:100E2000ADFEDDE90C704D460026834620780007B4
:100E30000AD4AB4500DA5D4601A8012D04DD411955
:100E400011F8011C302907D04F4502DA17F1040FC1
:100E500004DA0120824610E06D1EEEE7002F02DC6E
:100E6000ED1B3E4403E0781CA84200DD0546A7EBDD
:100E7000060000F1010A4FF000472078000703D474
:100E8000AA4501DB4FF0FF3A0021B7F1004F0DF109
:100E900043088DF8431023D002202B23002F01DAC2
:100EA0007F422D234FF00A0C011EA0F1010000DC4F
:100EB0004FB197FBFCF10CFB11720F4602F13002AF
:100EC00008F8012DF0E7A8F1010003702188090559
:100ED00001D5452100E06521A0F1010800F8011CC1
:100EE00009980FA9A1EB080707F1070700B1012036
:100EF00000EB050101EBEA70A1693844A1EB0000A9
:100F0000A0F10100A0612078C00602D42046FFF7BE
:100F10000FFA099830B1D4E901219047206A00F115
:100F2000010020622078C00620D52046FFF700FA95
:100F30001CE0002E04DBB34502DD01A8805D00E06B
:100F40003020D4E901219047206A761C401CBAF178
:100F5000010A20620AD1FFF7C7FDC0680168405C42
:100F6000D4E901219047206A401C2062281EA5F187
:100F70000105DEDC07E0D4E9012118F8010B9047F8
:100F8000206A401C2062381EA7F10107F3DC2046CE
:100F9000FFF7E5F9022011B040E600002DE9F04F1F
:100FA00004460D46D21D22F0070089B0D0E9009218
:100FB00048461746394603F05CFF0246F80F01D059
:100FC0002D2307E02068810701D52B2302E0202193
:100FD00001EAC0038DF82030D8B200B10120032A05
:100FE000824601D0072A04DB2946204600F046FA53
:100FF00041E12078800601D40D2500E0E569C7F3C2
:101000000A560D2D4ADA00214FEA175B08464FF0C9
:101010000000002F00F4400007DA00EB800000EB36
:10102000D0714FF4400000EA61008115012901DD13
:101030004FF0FF3100224FEA850CBCF1180F06D3A8
:101040001346ACF118004FF08052C24003E04FF459
:10105000801323FA0CF30CF10C0CBCF1200F04D319
:10106000ACF1200C09FA0CF001E007FA0CF00029B1
:101070004FF0004801DD18B910E00FD140450DD305
:1010800019EB02095F4121B9404502D19F4329EA8A
:101090000209BBEB175F01D006F1010620880005AD
:1010A00002D57C48784402E07A487844193808AA86
:1010B000302302F80A30037C0AF10101002E0AF104
:1010C000020A53546A4602DC4FF0300101E04FF04F
:1010D00031014FF001088DF8001002D0A6F2FF3662
:1010E00003E059EA470100D06B4E002D02DC217865
:1010F000090704D54FF002082E218DF80110C446CF
:1011000000210BE0C7F303433F01C35C491C6D1E84
:1011100002F80830052908F1010801DA002DF1DC98
:1011200000210CE000EB1973491C1B786D1E082987
:1011300002F8083008F101084FEA091901DA002D18
:10114000F0DC2178890602D514E0A8F10108E04519
:1011500005DD02EB080111F8011C3029F5D0B8F1CA
:10116000000F07DD02EB080111F8011C2E2901D147
:10117000A8F10108002D05DD3E2102F808106D1EC2
:1011800008F10108407C002E02F8080008F101086F
:1011900006DA2D2002F80800764208F1010804E082
:1011A0002B2002F8080008F101080A214FF47A7395
:1011B0009E420ADB96FBF3F000F1300703FB10665A
:1011C00002F8087008F1010801E0642E0BDB6427C7
:1011D00096FBF7F000F1300307FB106602F80830C9
:1011E00008F1010801E00A2E07DB96FBF1F000F19F
:1011F000300002F8080008F1010896FBF1F001FB4D
:10120000106000F1300002F80800A16908F101083F
:1012100008EB050202EB0A00A1EB0000A0612078B8
:10122000C00602D42046FFF783F8216A08AE01EB1E
:101230000A00206204E0D4E9012116F8010B90476E
:10124000BAF1010AF7D22078C00602D52046FFF78E
:101250006FF86E4609E016F8010B3E280FD0D4E96E
:1012600001219047206A401C2062B8F10108F2D2A7
:101270002046FFF774F809B00220BDE8F08F206A1D
:101280002844206203E0D4E90121302090476D1EFC
:10129000EBD3F8E73F5A000002FCFFFF10B54369AB
:1012A00013B1AFF3008001E0FFF752FA012010BD47
:1012B000127800F124010A7000224A700122EDE741
:1012C00011684FF0FF32E9E710B5436913B1AFF38E
:1012D000008001E0FFF732FB012010BD128800F111
:1012E000240182840022C2840122EDE711684FF0BC
:1012F000FF32E9E72DE9F047814616468AB03548C6
:101300007844D0E9002380680092CDE9013031486B
:1013100078440C38D0E90223006903924FF0370279
:10132000CDE9043041F69B30014491FBF2F0A0F18D
:10133000800502FB10141B3C02D56442012000E032
:101340000020DFF890A080460027FA44AAF1C60AE0
:101350000DE0E00709D03246684607EB47010AEB8B
:10136000810100F09DFB8DE8070064107F1C002CBC
:10137000EFD1184F7F44B43F17E0E80713D007EBD5
:1013800004100DF1180A90E80E00AAE80E00C068DB
:10139000F04201D198190890324606A903A800F03E
:1013A0007FFB03AB07C36D10641C002DE5D13246F3
:1013B0006946B8F1000F03A802D000F05DFB01E020
:1013C00000F06EFBC9E90001C9F808200AB0BDE8C9
:1013D000F08700007458000070B516460C460546AC
:1013E00000F044F8036893F80101012806D0FF2CAF
:1013F0000FD8185D68B101202C7070BDD3F80701BB
:101400003246214603442846BDE8704003F20713E4
:1014100018474FF0FF3070BD004870475C1900203E
:101420007546FFF7F9FFAE4605006946534620F0C2
:101430000700854618B020B5FEF756FFBDE82040EE
:101440004FF000064FF000074FF000084FF0000B80
:1014500021F00701AC46ACE8C009ACE8C009ACE833
:10146000C009ACE8C0098D467047000010B5FFF711
:101470003BFB001D10BD00BF054B00002DE9F041F6
:101480001F46044603260168072A01F4006004DBB6
:1014900008B116A505E016A503E008B115A500E002
:1014A00015A521F010002060A069C01EA0610FB139
:1014B000401EA0612046FEF73BFF4FB1D4E9012159
:1014C00038469047206A401C2062C01C206206E01B
:1014D000206AFAE7D4E9012115F8010B9047761E3E
:1014E000F8D22046FEF73BFFBDE8F0814E414E00AA
:1014F0006E616E00494E4600696E66000446AFF3A9
:1015000000802046FEF78FFE4FF0013C50F8042B80
:1015100051F8043B9A4221D1A2EB0C03934313EA06
:10152000CC1317D150F8042B51F8043B9A4215D133
:10153000A2EB0C03934313EACC130BD150F8042B0A
:1015400051F8043B9A4209D1A2EB0C03934313EAEE
:10155000CC13DBD04FF00000704700BFD01A01BAA7
:10156000B1FA81F101F0180122FA01F0CB40C1F18A
:101570002001DBB2C0B2C01A2CFA01F3D11A914398
:1015800011EAC311E6D1704701491820ABBEFEE74E
:101590002600020070475FEA400C08BF91F0000F80
:1015A0004FEA8C234FEAC12243EA51514FEA1C50C3
:1015B00018BF00F5F0404FEA300018BF41F000417D
:1015C0005FEA6C5C00F02980BCF1FF3F08BF40F08F
:1015D00080407047130C06BF12044FF0100C4FF000
:1015E000000C130E04BF12020CF1080C130F04BF01
:1015F00012010CF1040C930F04BF92000CF1020CC9
:10160000D30F04BF52000CF1010C11464FF0000241
:10161000A0F11F00A0EB0C00704711F0004F08BFB5
:10162000704731F000413FF4D5AF0B0C06BF090401
:101630004FF0100C4FF0000C0B0E04BF09020CF120
:10164000080C0B0F04BF09010CF1040C8B0F04BF35
:1016500089000CF1020CCB0F04BF49000CF1010C06
:10166000CCF12003A0EB0C0022FA03F302FA0CF2F7
:1016700041EA030100F10100704720F07F4C80EA4D
:10168000030023F07F47ACEB070303F57C5300F026
:10169000004003F1FF032DE980494FEA154B09B4DF
:1016A0004FEA144325EA0B4E24EA03480FF20426BE
:1016B00006EB132749083E785FEA320203FB066710
:1016C000C7F5000707FB06F64FEA54374FEAD64640
:1016D00006F1020607FB066CCCF1005C4FEA1C47E2
:1016E0002CEA074C07FB06F40CFB06F504EB154649
:1016F0004FEA961634BF00204FF000404FEAD13732
:1017000006FB07FC4FEA1C4C0CFB0BF7D21B03FB40
:101710000CF761EB07010CFB0EF7B0EB074072EB27
:1017200017420CFB08F734BFA2EB0742B2EB0742AB
:1017300061EB17414FEA0C444FEA910706FB07FCA7
:101740004FEA1C4C0CFB0BF7B0EBC74072EB573267
:1017500003FB0CF734BFA2EBC742B2EBC74261EB0D
:1017600057310CFB0EF7B0EBC70072EB57720CFB56
:1017700008F734BFA2EBC702B2EBC70261EB5771A7
:10178000039F4FEA816141EA921104EBCC044FEAD6
:10179000D1374FEA826206FB07FC42EA90124FEA19
:1017A00080604FEA1C4C0CFB0BF7D21B03FB0CF7C1
:1017B00061EB07010CFB0EF7B0EB074072EB174231
:1017C0000CFB08F734BFA2EB0742B2EB074261EB18
:1017D00017414FEA8C554FEA910704EB9C2406FB16
:1017E00007FC4FEA1C4C0CFB0BF7B0EBC74072EB4D
:1017F000573203FB0CF734BFA2EBC742B2EBC74230
:1018000061EB57310CFB0EF7B0EBC70072EB577270
:101810000CFB08F734BFA2EBC702B2EBC70261EBC7
:10182000577115EB4C254FEA816141EA92114FEA5D
:1018300082624FEAD13742EA901206FB07FC44F17C
:1018400000044FEA80604FEA1C4C0CFB0BF7D21BE4
:1018500003FB0CF761EB07010CFB0EF7B0EB074045
:1018600072EB17420CFB08F734BFA2EB0742B2EB56
:10187000074261EB174115EB1C154FEA813141EA34
:1018800092414FEA823242EA90424FEA80304FEA78
:101890000C7644F1000448EA03434EEA0B484FF04B
:1018A000000EB2EB080C71EB030724BF6246394609
:1018B0004EEB0E0E4FF0000B0018524149414BEB1E
:1018C0000B0BB2EB080C71EB03077BF1000B24BF91
:1018D000624639464EEB0E0E4FF0000B0018524197
:1018E00049414BEB0B0BB2EB080C71EB03077BF19F
:1018F000000B24BF624639464EEB0E0E51EA02073A
:1019000018BF46F0010616EB0E7655F1000254F1B1
:10191000000103D5BDE88901BDE80088BDE8890163
:10192000BDE80048B619524141EB0101A3F10103A2
:10193000704780807F7E7D7C7B7A7978777676753C
:101940007473727171706F6E6E6D6C6C6B6A6A69B4
:101950006868676666656464636362616160605F4E
:101960005F5E5E5D5D5C5C5B5B5A5A5959585857C7
:10197000575656555555545453535252525151502F
:1019800050504F4F4F4E4E4D4D4D4C4C4C4B4B4B82
:101990004A4A4A49494948484847474747464646C8
:1019A0004545454444444443434343424242424103
:1019B0004141002B26D4770021D01CB54FEA3707D0
:1019C00003B44FF010004FF010014FF000000FBCB7
:1019D000BDE810400BF1010BBBF1010F08BF5FEA3E
:1019E000170722BF12F1010211F101014FF000416E
:1019F00043F1000300F0004043EA00007047F9D3D0
:101A00005708DAE746EA064613F1400F4FEA164652
:101A10001FDD13F1200FDFBF16430A4600212033DC
:101A20005B42C8D0C3F1200746EA064602FA07F730
:101A30004FEA164646EA0706C3F1200722FA03F2E8
:101A400001FA07F721FA03F14FF0000342EA070217
:101A5000B1E746EA020646EA06464FEA164646EA75
:101A60000106BCBF46EA0646360C4FF000034FF0B5
:101A700000024FF000019EE72DE9C048934630B4C4
:101A800091E8380007C831EA400C48BF34EA430CFB
:101A900003D5FFF7F2FDFFF78CFFF0BCBDE800882F
:101AA0002DE9C048934630B491E8380007C810F0DB
:101AB000804F08BF13F0804F03D100F005F8FFF707
:101AC00078FFF0BCBDE8008820F07F4780EA030083
:101AD00023F07F4C07EB0C03A3F57C5300F0004090
:101AE000A3F1FE0392F0000F00F0B38095F0000F19
:101AF00000F077802DE901494FEA11404FEA144682
:101B000021EA004800FB06FC24EA064708FB06F62B
:101B100007FB08F800FB07F718EB06484CEB164CE0
:101B20004FEA124B18EB07484FEA15464CEB1740AB
:101B300022EA0B4E0BFB06FC25EA06470EFB06F6D7
:101B400007FB0EFE0BFB07F71EEB064E4CEB164C8D
:101B50004FF000061EEB074E4CEB174B18EB0B0833
:101B600040F1000018EB0E0B58EB000840F10000AC
:101B70008F1A4FF000013CBFC943661B14BFB5EB81
:101B8000040C00213CBFC943F61B4FEA17444EEA40
:101B90008E0E27EA04454FEA1C4704FB07622CEA35
:101BA000074C05FB07F70CFB05F604FB0CFC16EBDA
:101BB000074642EB174216EB0C4642EB1C421BEB6E
:101BC000060658EB0202414146EA9E0601D5BDE8F1
:101BD0000189B619524141EB0101A3F10103BDE8AE
:101BE00001894FEA14454FEA114724EA054621EAE4
:101BF000074C05FB07F406FB07F70CFB06F105FB9A
:101C00000CFC11EB074144EB17444FEA124711EB70
:101C10000C4144EB1C4422EA074C05FB07F206FB8F
:101C200007F70CFB06F605FB0CFC16EB074642EB30
:101C3000174216EB0C4642EB1C456A1854F10001A2
:101C400048BF7047B619524141EB0101A3F10103AE
:101C5000704795F0000F37D04FEA11424FEA144712
:101C600021EA024624EA074C02FB07F106FB07F7CC
:101C70000CFB06F402FB0CFC14EB074441EB174190
:101C80004FEA154714EB0C4441EB1C4125EA074C85
:101C900002FB07F506FB07F70CFB06F602FB0CFC44
:101CA00016EB074645EB174516EB0C4645EB1C4279
:101CB000121951F1000148BF7047B619524141EB6A
:101CC0000101A3F1010370474FEA14454FEA1147A0
:101CD00024EA054621EA074C05FB07F106FB07F756
:101CE0000CFB06F24FF0000605FB0CFC12EB074262
:101CF00041EB174112EB0C4251EB1C4148BF7047BE
:101D0000921841EB0101A3F10103704770B504463D
:101D100000688168C943C90717D1816821F00101B2
:101D2000816001F0CFF805460AE000BF01F0CAF873
:101D3000401B022804D920688068C043C00706D031
:101D400020688068C043C007F0D0002070BDA06A42
:101D500040F01000A062E06A40F00100E062012063
:101D600070BD10B50146406A826A12F0500F05D06E
:101D7000006A026BBDE8104008461047816A41F4D2
:101D80000071816201688968C1F3424107290CD161
:101D9000017B51B9816A21F480718162816AC90431
:101DA00003D4816A41F00101816200F0C1FA10BDE3
:101DB00010B5406A816A41F040018162C16A41F018
:101DC0000401C16200F0B6FA10BD10B5406A00F01F
:101DD000B0FA10BDF8B50026044600960068816888
:101DE000C943C9072DD0816841F0010181601648BF
:101DF00016490068B0FBF1F000E0401E009000289A
:101E0000FBD101F05FF8054616E000BF01F05AF87B
:101E1000401B022810D920688068C043C0070BD03F
:101E2000A06A40F01000A062E06A40F00100E062A9
:101E300084F824600120F8BD20688068C043C00792
:101E4000E4D10020F8BD00005000002040420F0007
:101E5000FEE70000284894B0002508218560C0E90D
:101E60000351057501260E9511960D9509950A9554
:101E70000B950C95CDE90F5609A9A0F5CE7000F091
:101E800015FC1E4800F0D8FD1D4CA07810B1A570BF
:101E900002F030FD0021194800F080FC40B36B4691
:101EA00002AA0021154800F08AFC08BB02983028DD
:101EB0001ED10698E0B111489DF802104838017013
:101EC0009DF8031041709DF80410C1709DF800004A
:101ED0002178884203D02070E670052060719DF85B
:101EE00001006178884203D06070E670062060715E
:101EF000322003F0A9FAC8E7AC020020100100204C
:101F000000000020094D0A4C3C264FF47A7768699E
:101F1000B0FBF6F060722869B0FBF7F0E071607911
:101F200040002072642003F08FFAF0E700000020E8
:101F3000C80000200021814801F088FF7F49272246
:101F4000543901F5C67003F01DF97C49D83101F10F
:101F50006C0000F00BF91421794800F03CF9774C43
:101F6000DFF8E081784DC43C4FF480764FF40049AF
:101F70004FF4804A4FF4005B2078012840D00022C3
:101F80003146404600F099FF00224946284600F0BD
:101F900094FF00225146284600F08FFF0022594648
:101FA000284600F08AFF00224FF48051284600F0B6
:101FB00084FF00224FF40061284600F07EFF0022DB
:101FC0004FF48061284600F078FF00220421284663
:101FD00000F073FF00220221284600F06EFF00226D
:101FE0000121284600F069FF5221002002F0E2FCA6
:101FF00053480C3803F0AAF8142003F025FABBE785
:1020000001223146404600F058FF607830B1012887
:1020100006D0022844D0032811D148E0002200E075
:1020200001224946284600F048FF00225146284632
:1020300000F043FF00225946284600F03EFFA078FA
:10204000012840D000224FF48051284600F035FF8F
:102050005FF001024FF40061284600F02EFFE078A7
:10206000012837D000224FF48061284600F025FF78
:1020700001220421284600F020FF2079012830D0D9
:1020800000220221284600F018FF012201212846E3
:1020900000F013FFA07A03282AD001282BD02EE0CD
:1020A00000224946284600F008FF0122BEE7002230
:1020B0004946284600F001FF00225146284600F01C
:1020C000FCFE0122B7E701221103284600F0F5FECD
:1020D0000022BFE701229102284600F0EEFE002216
:1020E000C7E701220221284600F0E7FE0022CDE7E3
:1020F000A079442101E0A079522102F05BFC104854
:102100000C3803F031F80E48002211460C3803F069
:10211000CDF80E4F0A480EA17A780C3803F065F816
:102120000748002201210C3803F0C0F804483A782F
:102130000BA10C3803F059F85EE700008C01002079
:10214000D002002000080140000C014000000020E7
:1021500053706565644C696D69743A2025640000AC
:1021600041697254656D703A2025640030B5054BA5
:10217000002285189C5C521C2C710A2AF9DB016034
:1021800030BD0000BE0000200A0ACBB20321AFF32D
:1021900000802DE9F04104461D4616460F46642096
:1021A00000F088FDE7716672231D0022A5720120F0
:1021B0001D5C401C2A4492B20728F9DB5042020AF7
:1021C000E27220730A22211D2068BDE8F0414FF41D
:1021D0007A7301F02BBF0A0ACBB20621FFF7D9BFF1
:1021E00000231A461621FFF7D4BF0000014800F073
:1021F0004FBC00008C05002030B590F84050012401
:10220000AC40C56B6C60046863604368102B036866
:1022100003D099600068C26030BD9A600068C160F8
:1022200030BD704772B6FEE70122014901F0F0BEF1
:10223000BC000020F8B50024009490F82420254626
:10224000012A12D0012280F824204A681F23072A7D
:102250000DD20668776B521E02EB820293409F43B9
:102260000B6893401F43776319E00220F8BD0668AE
:102270000D2A0AD2376BD21F02EB820293409F4392
:102280000B6893401F43376309E0F76A0D3A02EB8E
:10229000820293409F430B6893401F43F7620A6892
:1022A000072306680A2A0AD3F7680A3A02EB4202B1
:1022B00093409F438B6893401F43F76008E0376962
:1022C00002EB420293409F438B6893401F43376168
:1022D0000A68102A01D0112A20D1124B02689A42B2
:1022E00017D193681B0219D4936843F400039360D9
:1022F0000968102912D10C490C4A0968B1FBF2F1A6
:1023000001EB8101490000E0491E00910029FBD149
:1023100004E0816A41F020018162012480F82450A8
:102320002046F8BD002401405000002040420F002C
:1023300070477047704700002DE9F0414FF00007EB
:1023400004003D467ED0A06A002628B9E66284F8E3
:102350002460204600F07EF82046FFF7D7FCA16AF3
:1023600001F01001014304D0A06A40F01000A06207
:1023700068E0A16A21F4885141F00201A16262681B
:10238000E169237B0A4347EA43010A43A1684FF40A
:102390008077B94208D0012906D0002194F814C0F2
:1023A000BCF1010F02D00AE03946F7E7F3B1A36AA6
:1023B00043F02003A362E36A43F00103E36223686E
:1023C000D3F804C02CF4694C4CEA010CC3F804C0E7
:1023D00023689968DFF870C001EA0C011143996025
:1023E000A168B9420BD0012909D00CE0DFF85CC02C
:1023F000A3690CEB43330B4343F40061DFE7218A0D
:102400000D05A5F580152168CB6A23F470032B43D5
:10241000CB62216889680E4B1940914208D1E6626F
:10242000A16A21F0020141F00101A162BDE8F08141
:10243000A06A20F0020040F01000A062E06A40F0C4
:102440000100E0620120F1E7FDF7E1FF00E0FFFF9E
:10245000FE0E1FFF70B586B000250646009501955B
:102460000295039500681A4988422ED11949886956
:1024700040F400708861886900F4007004908869F5
:1024800040F0040088618869694600F00400049007
:10249000F0200090032001900F4800F01DFC104C2C
:1024A0000E48C4E900058020C4E9025040002061C4
:1024B000800060612020C4E90605204600F092FB00
:1024C00008B1FFF7AFFE3462666206B070BD00006F
:1024D00000240140001002400008014008000240B2
:1024E0008C0500202DE9F047894604463B490068E9
:1024F0003B4F0E1D9046884201D0B84207D130684C
:1025000010F4702F03D001252846BDE8F08794F819
:10251000240001280CD0012084F824002046FFF775
:1025200059FC05004FF0000004D084F82400EBE7CC
:102530000220EAE7A16A40F60162914341F480710A
:10254000A1622168B94218D1326812F4702F14D0F8
:10255000A16A41F48011A1623168490505D5A16ADB
:1025600021F4005141F48051A162A16AC9040AD545
:10257000E16A21F00601E16206E0A26A22F480121B
:10258000A2624968E9E7E06284F82400216A1548FC
:102590008862216A1448C862216A14480863216865
:1025A0006FF0020008602068816841F480718160EA
:1025B000216843464C314A46206A00F043FB2068BC
:1025C0008168C1F342410729816803D041F4801139
:1025D000816099E741F4A001FAE70000002401407E
:1025E00000280140631D0008CB1D0008B11D000834
:1025F000F0B590F820500468A468012D05D0022D94
:1026000003D0416A41F480214DE014F0406F01D1C4
:10261000E50045D5C4F301640125A5401D608D6822
:102620004FF4C0739DB1CE6835434E6845EAC60588
:10263000066803EB0417F5514FF4C275076805EB04
:1026400004150E697E51097D012905D009E00E8827
:10265000CD6845EA4655EBE701684E5946F4807669
:102660004E511179D2F805504FF4C67641EA052152
:10267000056806EB0416A9511178D2F801204FF431
:10268000C47541EA0221026805EB04155151006846
:1026900003EB0411425842F0010242500020F0BD09
:1026A000416A41F4001141620120F0BD10B590F87B
:1026B00020300268012B07D0022B05D0416A41F47B
:1026C00080214162012010BDD2F8000240F00100DB
:1026D000C2F80002087D00F01F0301209840D2F8E4
:1026E0001C328343C2F81C32CB69B3B9D2F80C3226
:1026F0008343C2F80C328C894B6864F31F434C69E6
:1027000002EBC404C4F840320C890B6864F31F4325
:102710004C6902EBC404C4F84432CB69012B16D1D6
:10272000D2F80C320343C2F80C320C884B6864F3C5
:102730001F434C6902EBC404C4F840320C89CB68D7
:1027400064F31F434C6902EBC404C4F844328B6940
:10275000002BD2F804320FD053EA0003C2F804323F
:102760000B69002BD2F8143208D00343C2F814329C
:10277000096A012904D008E08343EFE78343F5E7C2
:10278000D2F81C120143C2F81C12D2F8000220F049
:102790000100C2F80002002010BD00000246002027
:1027A00092F82030012B01D0022B05D1106821B105
:1027B000D0F8100000F003007047C068FAE770B569
:1027C00090F82040012C05D0022C03D0416A41F43E
:1027D000802128E0046809B32469A40720D04FF4BD
:1027E000D874056804EB01142D5915F004059560A3
:1027F00005682D591AD0ED08556005682C5904F06C
:102800000204D4604FF4DA74056804EB01142E5905
:1028100006F00F06082E0CD308250DE0E468DCE76F
:10282000416A41F400114162012070BD6D0D1560D7
:10283000E3E72D5905F00F05156105682D59C5F31E
:102840000725956105682C59240C54614FF4DC72FE
:10285000046802EB0112A4581C700468A458240AEE
:102860005C700468A458240C9C700468A258120E72
:10287000DA704FF4DE72046802EB0112A4581C7186
:102880000468A458240A5C710468A458240C9C7140
:102890000468A258120EDA71006829B1016941F08A
:1028A00020010161002070BDC16841F02001C160BC
:1028B000F8E770B5040003D094F8200010B104E0EC
:1028C000012070BD204600F081F82068016841F0C9
:1028D0000101016000F0F6FA0546052604E000F06B
:1028E000F1FA401B0A2811D820684068C007F6D0CA
:1028F0002068016821F00201016000F0E3FA05465A
:102900000BE000F0DFFA401B0A2806D9606A40F4A9
:102910000030606284F82060D2E720684068800759
:10292000EFD4207E0128206801683DD021F080018D
:102930000160607E01282068016838D021F04001E4
:102940000160A07E01282068016833D021F02001B9
:102950000160E07E0128206801682ED041F010015E
:102960000160207F01282068016829D021F008013A
:102970000160607F01282068016824D021F00401F3
:102980000160D4E902010843D4E904121143084369
:102990006168491E08432168C86100206062012007
:1029A00084F82000002070BD41F08001C0E741F0B4
:1029B0004001C5E741F02001CAE721F01001CFE74F
:1029C00041F00801D4E741F00401D9E710B586B021
:1029D00000210091019102910391006813498842FE
:1029E00022D11348C16941F00071C161C16901F090
:1029F00000710491816941F00401816180690D4C8D
:102A000000F0040004904FF40060009069462046F6
:102A100000F062F9A01400900220019003200390BE
:102A20006946204600F058F906B010BD0064004029
:102A3000001002400008014070B5044690F82000E4
:102A4000012804D0606A40F40020606218E002208F
:102A500084F820002068016821F00101016000F085
:102A600031FA05460EE000BF00F02CFA401B0A28A0
:102A700008D9606A40F400306062052084F82000C4
:102A8000012070BD20684068C007EDD1606270BD54
:102A90002DE9F05FC16B0C6801680B68D0F840C08D
:102AA000042202FA0CF2494DDFF824A1494E4A4FA4
:102AB000DFF828B1DFF828E122422CD05A072AD5C6
:102AC0000A68920603D40A6822F004020A600168C8
:102AD000A94201D1042219E0514501D1402215E05B
:102AE000B14202D14FF4806210E0B94202D14FF4FA
:102AF00080420BE0594502D14FF4802206E0714537
:102B000002D14FF4800201E04FF080622F49083972
:102B10004A60C16A3BE04FF0020808FA0CF818EA74
:102B2000040F4FF000094FF0010235D05FEA8378BF
:102B300032D50B689B0605D40B6823F00A030B60A3
:102B400080F821200168A94201D1022219E05145F3
:102B500001D1202215E0B14202D14FF4007210E001
:102B6000B94202D14FF400520BE0594502D14FF463
:102B7000003206E0714502D14FF4001201E04FF03F
:102B80000072124908394A6080F82090816A002951
:102B90001AD0BDE8F05F0847082505FA0CF5254274
:102BA00012D01B0710D50B6823F00E030B6090F8B2
:102BB0004010C36B02FA01F15960826380F8212052
:102BC00080F82090016BE2E7BDE8F09F080002402A
:102BD0001C00024030000240440002405800024005
:102BE0006C00024030B538B3001D144950F8043C65
:102BF00014221944B1FBF2F18900C16310498163C9
:102C0000022141771A6843F6F0718A43D0E9001433
:102C10002143D0E902452C432143046921434469FF
:102C2000214384692143114319600021416301223A
:102C300042770177084630BD012030BDF8FFFDBF67
:102C40000000024070B5044690F8200000250128DD
:102C50000CD0012084F8200094F821600020012E7F
:102C600006D084F820000225284670BD022070BDE1
:102C7000022684F82160A0632068066826F0010619
:102C800006602046FFF7B8FAE06A0028206801686D
:102C900002D041F00E0106E021F00401016020683D
:102CA000016841F00A0101602068016841F00101FA
:102CB0000160D9E770B5044600F004F90546601CD0
:102CC00002D004480078044400F0FCF8401BA04205
:102CD000FAD370BD440000202DE9F84FDFF8B09121
:102CE0000024A9F1040B23460F2709F1040AABF1D4
:102CF000040EC6E00125A5402A40AA4276D1DFF89D
:102D000094C14E68A6EB0C0866452BD00DDC032E53
:102D100034D005DC36B3012E19D0022E2FD11BE0A2
:102D2000112E16D0122E2AD119E0B8F5881F19D00D
:102D300006DCB8F5803F15D0B8F5801F1FD111E033
:102D4000B8F5001F0ED0B8F5041F18D10AE0CB6803
:102D500015E0CB681B1D12E0CB6808330FE0CB6891
:102D60000C330CE08B682BB1012B4FF0080303D020
:102D7000456104E0042302E0056100E00023FF2A2E
:102D800001D8064601E000F104064FEA840501D9A6
:102D9000A5F12005D6F8008007FA05FC28EA0C0802
:102DA00003FA05F548EA0508C6F800804D68ED000D
:102DB00066D5394DAE6946F00106AE61AD6924F0C5
:102DC000030605F001050095344D06EB050CDCF813
:102DD0000850A607360F07FA06F825EA0805DFF8B7
:102DE000C080404503D14FF0000817E048E0DFF80D
:102DF000B480404502D14FF001080FE0DFF8A88011
:102E0000404502D14FF0020808E0DFF8A0804045BD
:102E100002D14FF0030801E04FF0040808FA06F869
:102E200048EA0508CCF808804D68D9F80060ED0242
:102E3000002D4D4601DA164300E096432E604D68A2
:102E4000DAF80060AD02002D554601DA164300E0C5
:102E500096432E604D68DBF80060AD03002D5D46A3
:102E600001DA164300E096432E604D68DEF80060FC
:102E7000ED03002D754601DA164300E096432E60FF
:102E8000641C0A6832FA04F57FF434AFBDE8F88FA9
:102E90000804014000001110001002400000014031
:102EA00000080140000C01400010014000140140E6
:102EB0008068084000D0012070470AB10161704766
:102EC0000904FBE7014880687047000044000020C7
:102ED00070B5040025D094F83D00002520B984F891
:102EE0003C50204600F04CF9242084F83D00206836
:102EF000016821F0010101602068016841F400418E
:102F000001602068016821F40041016000F05EFB6F
:102F10004A4A6168914201D8494900E049498842DA
:102F200001D2012070BD48492368B0FBF1F15E6811
:102F300026F03F060E435E606368934206D94FF465
:102F4000967359434FF47A73B1FBF3F12368491C2C
:102F50001E6A26F03F0631431962616891420AD821
:102F60004900401EB0FBF1F0401CC0F30B000428E8
:102F70001ED204201CE0A368F3B301EBC10202EBF4
:102F80000116421EB2FBF6F2521C42F480421205B8
:102F900049D093B301EBC10202EB0111401EB0FB1B
:102FA000F1F0401CC0F30B0040F4804040F40040BE
:102FB0002168CA694CF6FF739A431043C861D4E98B
:102FC000071001432068026822F0C002114301602B
:102FD000D4E9030101432068826848F2FF339A4331
:102FE00011438160D4E9050108432168CA6822F0D1
:102FF000FF021043C86001E00EE016E0206801689F
:1030000041F0010101602564202084F83D00256322
:1030100084F83E50002070BD01EB4106421EB2FB19
:10302000F6F2521CB3E70120C2E701EB4101401E5A
:10303000B0FBF1F0401CC0F30B00B7E7A086010025
:1030400080841E0000093D0040420F002DE9F84F2A
:103050001F4690468A460446DDF82890FFF732FF67
:10306000054694F83D0020287ED1192301224249CB
:103070002046009501F0BCF800287AD194F83C0075
:10308000012876D0012084F83C0020680168C90737
:1030900003D1016841F0010101602068016821F459
:1030A00000610160212084F83D00102084F83E007A
:1030B00000262664C4F824806785608D20852F480B
:1030C000E0622B464A465146204601F017F890B977
:1030D00020684169806900903AE02A4649462046C6
:1030E00001F02CF950B1206C042804D1206801684B
:1030F00041F4007101600120BDE8F88F606A216829
:1031000000780861606A00F101006062618DA1F1E0
:1031100001016185218DA1F1010189B2218522681A
:1031200053696FEA03035B070BD451B10078106158
:10313000606A401C6062608D401E6085208D401E6C
:1031400020852A464946204601F026F80028CAD1A3
:10315000208D0028C1D154F81F0B016841F4007183
:1031600001602020A07700E003E0E677667700208A
:10317000C2E70220C0E70000020010000000FFFFCD
:1031800010B586B000210091019102910391006871
:103190000F4988421AD10F4CA06940F00800A06185
:1031A000A069694600F008000490C0200090122039
:1031B0000190032003900848FFF78EFDE06940F47A
:1031C0000010E061E06900F40010049006B010BD4A
:1031D0000054004000100240000C01400248816889
:1031E000027811448160704744000020074810B500
:1031F000016841F010010160032000F0A7F80F20E2
:1032000000F006F800F050F8002010BD0020024049
:1032100030B505461F4887B0C16941F00401C1615E
:10322000C06906A900F00400009001A800F0AEF902
:103230000498B0B100F0CAF940001749174AB0FB32
:10324000F1F11748491E0260416040F2E732002167
:10325000C0E903218160816100F0C8FB040003D054
:1032600015E000F0B3F9E8E70D4800F00BFC0400AE
:103270000DD11E2000F03CF8102D07D20022294667
:103280001E2000F043F80748056000E0012407B065
:10329000204630BD0010024040420F0000080040B0
:1032A00024080020480000200F4808B5816941F03B
:1032B00001018161816901F001010091C16941F061
:1032C0008051C161C069002200F0805000900F2140
:1032D000901E00F01BF80548416821F0E06141F0C4
:1032E0000071416008BD0000001002400000014074
:1032F00000280ADB00F01F020121914040094FF035
:10330000E02202EB8000C0F800117047F0B40E4BD1
:103310001B680C46C3F30223C3F10705042D00D933
:103320000425191D072901D2002300E0DB1E012618
:1033300006FA05F1491E214099409E40761E16402E
:103340003143F0BC01F0BCBD0CED00E0064900F0DB
:10335000070208684FF6FF03184040EA0220034ABC
:1033600010430860704700000CED00E00000FA0513
:103370002DE9F84305460078364CC00755D0E06982
:103380000026C00008D4E06940F08050E061E069A8
:10339000012600F0805000902F480168C90512D422
:1033A0000168804641F480710160FFF78BFD07469C
:1033B00005E000BFFFF786FDC01B642823D8D8F8BE
:1033C0000000C005F6D5206A10F4407021D0A9880D
:1033D00001F4407181421CD0206A2049012220F46E
:1033E00040700A6000220A602062C00711D0FFF717
:1033F00069FD074641F2883808E000BFFFF762FD2B
:10340000C11B414502D90320BDE8F883206A80072B
:10341000F4D5206A696820F4407008432062012EC8
:1034200003D1E06920F08050E0612878800705D55D
:103430006068A96820F44040084360602878C006AE
:1034400005D56068E96820F48000084360600020CA
:10345000DAE70000001002400070004040044242E1
:103460002DE9F0470F46050061D0434E306800F06B
:103470000700B84209D2306820F0070038433060B6
:10348000306800F00700B84251D128683B4C8107F2
:1034900012D5400703D5606840F4E060606028788A
:1034A000000703D5606840F4605060606068A968F8
:1034B00020F0F000084360602878C00728D06868D2
:1034C000012810D02168022810D0890700292EDA9F
:1034D000616821F0030101436160FFF7F3FC80465E
:1034E00041F288390DE021688903EFE78901EDE7B2
:1034F000FFF7E8FCA0EB0801494502D90320BDE82D
:10350000F0876068696800F00C00B0EB810FEFD1C4
:10351000306800F00700B8420BD9306820F007008F
:1035200038433060306800F00700B84201D0012015
:10353000E5E72878400705D56068E96820F4E06091
:10354000084360602878000706D56068296920F480
:10355000605040EAC100606000F058F86168084AB5
:10356000C1F30311515CC840064908600648006871
:10357000FFF74EFE0020C2E700200240001002408C
:103580007A6A000850000020480000200F220260E4
:103590000C4A536803F003034360536803F0F003DD
:1035A0008360536803F4E063C36052684FF4E063E0
:1035B00003EAD20202610448006800F007000860D4
:1035C00070470000001002400020024004480549F6
:1035D00000684968044AC1F30221515CC840704741
:1035E00050000020001002408A6A00080448054983
:1035F00000684968044AC1F3C221515CC840704761
:1036000050000020001002408A6A00080E4A5168EB
:103610000E4801F00C03042B11D0082B0FD10C48DD
:10362000C1F38343C903C05C0AD55168084AC1F39A
:103630004041921E515C054A5043B0FBF1F0704787
:1036400004494843704700000010024000127A000D
:103650006A6A000800093D002DE9F84F040070D0A7
:103660002078C24DC00749D06868C0F381000128A6
:1036700007D06868C0F38100022809D16868C003D8
:1036800006D52868800339D560680028E7D035E082
:103690006068B0F5803F0BD010B1B0F5A02F11D00D
:1036A000286820F480302860286820F4802002E018
:1036B000286840F480302860606890B1FFF702FC11
:1036C00006460AE0286840F480202860F0E700BF42
:1036D000FFF7F8FB801B642874D828688003F7D5AF
:1036E0000CE0FFF7EFFB064605E000BFFFF7EAFB43
:1036F000801B6428F0D828688003F7D420789C4E7B
:1037000080074FF001094FF0000839D5686810F0C4
:103710000C0F07D06868C0F38100022809D16868DF
:10372000C00306D42868800714D52069012808D171
:1037300010E02069B0B1C6F80090FFF7C3FB074660
:1037400005E00EE1FFF7BEFBC01B0228C4D82868C5
:103750008007F7D52868616920F0F80040EAC100C9
:1037600028600DE0C6F80080FFF7ACFB074604E0D8
:10377000FFF7A8FBC01B0228AED828688007F7D443
:10378000207800072ED57B48A169E1B1C0F80090F0
:10379000FFF798FB074604E0FFF794FBC01B0228E5
:1037A00010D8686A8007F7D573484FF4FA5100685B
:1037B000B0FBF1F0009000BF0098411E009100287E
:1037C000F9D10FE082E0C0F80080FFF77BFB0746ED
:1037D00005E000BFFFF776FBC01B022876D8686AB9
:1037E0008007F7D42078400761D5E8690027C0003A
:1037F00008D4E86940F08050E861E869012700F0EA
:10380000805000905D480168C90513D40168834663
:1038100041F480710160FFF755FB824606E000BF6E
:10382000FFF750FBA0EB0A0064284FD8DBF800003C
:10383000C005F5D5E06801280AD008B1052813D0E5
:10384000286A20F001002862286A20F0040002E0C3
:10385000286A40F001002862E06841F2883B98B194
:10386000FFF730FB82460BE0286A40F00400286234
:10387000EEE700BFFFF726FBA0EB0A0159455CD835
:10388000286A8007F6D50CE0FFF71CFB824605E0AE
:10389000FFF718FBA0EB0A0159454ED8286A8007AC
:1038A000F6D4012F03D1E86920F08050E861E06987
:1038B00090B36968C1F38101022945D00228C6F896
:1038C000608004D0FFF7FEFA044639E035E0FFF7E8
:1038D000F9FA074605E000BFFFF7F4FAC01B02281B
:1038E0002BD828688001F7D4206AB0F5803F05D135
:1038F0006868A16820F4003008436860D4E90801D2
:103900000843696821F4741108436860C6F8609040
:10391000FFF7D8FA044606E025E000BFFFF7D2FA29
:10392000001B022809D828688001F7D51BE000BFDA
:10393000FFF7C8FA001B022802D90320BDE8F88F60
:1039400028688001F4D40EE00128F7D06868226A64
:1039500000F48031914204D1616A00F47010884211
:1039600001D00120EAE70020E8E700000010024053
:10397000000042428004424250000020007000409B
:103980007047704770B590F83C20012A25D001247B
:1039900080F83C40022280F83D2003685A689D6808
:1039A00022F070060A6832435A600D4B02689A4250
:1039B00008D0B2F1804F05D00A4B9A4202D00A4B90
:1039C0009A4204D1496825F08003194391603C3044
:1039D000447000210170084670BD022070BD0000D7
:1039E000002C0140000400400008004010B5040015
:1039F00003D094F83D0010B107E0012010BD002075
:103A000084F83C00204600F015F8022084F83D00C0
:103A1000211D206801F04AF801203D346072607079
:103A2000A070E07020716071A071E0712072207050
:103A3000002010BD08B501681048B1F1804F14D0C6
:103A40000F4A914219D1C16941F00201C161C069B7
:103A5000002200F00200009005211D20FFF756FC17
:103A6000BDE808401D20FFF743BCC16941F00101DA
:103A7000C161C06900F00100009008BD0010024063
:103A80000004004090F83D10012901D0012070474A
:103A9000022180F83D100168CA6842F00102CA6044
:103AA00000680B49884208D0B0F1804F05D0094921
:103AB000884202D00849884204D1816801F0070198
:103AC000062903D0016841F0010101600020704720
:103AD000002C0140000400400008004070B504467E
:103AE00090F83C000025012817D0012684F83C609E
:103AF000022084F83D002068826822F0770222F4D8
:103B00007F4282600868502837D00DDC20284ED0D4
:103B100005DC88B3102811D149E0022070BD30289F
:103B200045D040280AD13AE060282ED070280CD029
:103B3000B0F5805F03D0B0F5005F11D001253C34B3
:103B4000667000202070284670BD4A6808312068E1
:103B50000AC900F0F4FF2068816841F0770109E0AC
:103B60004A68083120680AC900F0E9FF20688168C6
:103B700041F480418160E2E719E0CA684968206841
:103B800001F092F85021206806E0CA684968206870
:103B900001F09BF86021206800F0DBFFCFE7CA68E6
:103BA0004968206801F080F840212068F4E7226825
:103BB00001461046F0E770472DE9F04104460068E1
:103BC000C66805694FF00007A90713D5B10711D5DD
:103BD000F91E016101202077206880698007204656
:103BE00002D0FFF7E8FF04E000F0A2F8204600F062
:103BF0002BF92777680716D5700714D521686FF061
:103C000004000861022020772068806910F4407F5A
:103C1000204602D0FFF7CFFF04E000F089F82046ED
:103C200000F012F92777280715D5300713D521683A
:103C30006FF008000861042020772068C0698007C1
:103C4000204602D0FFF7B7FF04E000F071F82046ED
:103C500000F0FAF82777E80616D5F00614D52168A3
:103C60006FF010000861082020772068C06910F408
:103C7000407F204602D0FFF79EFF04E000F058F896
:103C8000204600F0E1F82777E80708D0F00706D0D3
:103C900021686FF001000861204600F025F9280630
:103CA00008D5300606D521686FF0800008612046EF
:103CB000FFF766FE680608D5700606D521686FF026
:103CC00040000861204600F019F9A8060AD5B006A0
:103CD00008D521686FF0200008612046BDE8F0415A
:103CE000FFF74FBEBDE8F08100B585B0002100911F
:103CF0000191029103910068B0F1804F11D10A48FF
:103D0000816941F0040181618069694600F0040025
:103D10000490012000900220019003900348FEF7D8
:103D2000DBFF05B000BD00000010024000080140AC
:103D3000704770B5044690F83C0000260D460128F7
:103D40000FD0012084F83C006AB1042A1DD0082A53
:103D50002FD00C2A3FD00126002084F83C003046AA
:103D600070BD022070BD206800F0FCFE20688169F3
:103D700041F0080181612068816921F004018161BD
:103D8000206881692A69114311E0206800F012FF60
:103D90002068816941F4006181612068816921F4B2
:103DA00080618161206881692A6941EA022181611B
:103DB000D2E7206800F02AFF2068C16941F00801BD
:103DC000C1612068C16921F00401C1612068C16935
:103DD0002A69114311E0206800F044FF2068C1699E
:103DE00041F40061C1612068C16921F48061C16151
:103DF0002068C1692A6941EA0221C161ACE710B5B6
:103E0000040003D094F83D0010B107E0012010BD7C
:103E1000002084F83C00204600F015F8022084F8C9
:103E20003D00211D206800F041FE01203D346072FC
:103E30006070A070E07020716071A071E0712072FC
:103E40002070002010BD70477047000010B5044678
:103E5000022249B104290ED0082913D094F8410058
:103E6000012816D0012010BD94F83E000128F9D198
:103E700084F83E200FE094F83F000128F2D184F846
:103E80003F2008E094F840000128EBD184F840205E
:103E900001E084F841200122206800F043FE0F4930
:103EA0002068884203D1426C42F400424264206898
:103EB000884208D0B0F1804F05D00949884202D02D
:103EC0000849884204D1816801F00701062903D01E
:103ED000016841F001010160002010BD002C01408B
:103EE000000400400008004000680349884201D1F6
:103EF000FFF774B97047000000080040704770B5C4
:103F0000040004D094F84100002510B106E001201F
:103F100070BD84F84050204600F024F8242084F836
:103F200041002068C16821F40051C160204600F0C2
:103F300005FF2068016921F4904101612068416911
:103F400021F02A0141612068C16841F40051C1603B
:103F50006564202084F8410084F8420065630020F5
:103F600070BD000070B586B00024009401940294E6
:103F70000394234E0368234902200322224DB342B7
:103F800019D18B6943F480438B618B6903F48043BF
:103F900004938B6943F004038B618969039201F0F8
:103FA000040104910102CDE9001069462846FEF79C
:103FB00093FE28151BE0154EB3421FD1CB6943F485
:103FC0000033CB61CB6903F4003304938B6943F076
:103FD00004038B618969039201F0040104910421B7
:103FE000CDE9001069462846FEF776FE0820CDE9A7
:103FF0000004694628460294FEF76EFE06B070BDC6
:104000000038014000100240000801400044004018
:1040100090F84230202B01D00220704721B11AB114
:104020000023036300F0D0BE012070472DE9F84360
:10403000044690F84100984616460D46202802D0C6
:104040000220BDE8F88385B17EB1002060642120A4
:1040500084F84100FEF736FFA6848146E684A06816
:104060002027B0F5805F02D003E00120E9E7206956
:1040700010B12E4600250EE000260CE080212046DF
:1040800000F0BDFEA8B9C6B116F8010B2168486062
:10409000E08C401EE084E08C4B464FF00002CDF8EF
:1040A00000800028EAD14FF04001204600F0A7FE32
:1040B00040B184F841700320C3E735F8020BC0F328
:1040C0000800E3E784F841700020BAE7FEE70168E2
:1040D0004A69D24352050FD46FF480624A610021CD
:1040E00040F8301F202242738173026942F00402BB
:1040F000026101730120704700207047F8B5044643
:10410000C06A1E460D461746082807D0012805D06C
:1041100010F5803F02D0206B122804D1206801687E
:1041200041F480710160134600224FF001112046D6
:10413000009600F05DF840B120680068C00502D527
:104140004FF4007020640320F8BD2069B0F5804F63
:104150000ED00620216800EAD51040F0F00008617A
:1041600033463A460B49204600F08AF878B902E017
:1041700005F0FE0000E0E8B2216808610549334619
:104180003A46891F204600F07BF80028DCD0012049
:10419000F8BD00000800010070B516460D46044643
:1041A0001EE02046FFF793FF08B1012070BD681C98
:1041B00016D0FEF787FE801BA84200D885B920687C
:1041C0004069C04340070BD5002044F8300F202140
:1041D0006173A073216941F0200121612073E4E73C
:1041E00020684069C0434007DBD4002070BD000058
:1041F0002DE9F047984617460D460446C1F3074699
:10420000DDF820902AE000BF18F1010026D0FEF76B
:1042100059FEA0EB0901414502D8B8F1000F1DD1AC
:104220002068012E16D0806925EA00000004000CE9
:1042300012D00020B84211D1002044F8300F2021C4
:104240006173A073216941F0200121612073012075
:10425000BDE8F0874069E7E70120EBE72068012E21
:104260000AD0806925EA00000004000C06D0002076
:10427000B842C9D00020EBE74069F3E70120F7E737
:104280002DE9F047984616460D4604464FF00009C2
:104290004FF0200AC1F3074723E020684069C0437C
:1042A000400515D42068016841F40071016021685F
:1042B0006FF480604861C4F8309084F83DA084F8C1
:1042C0003E90216C41F00401216484F83C9021E08F
:1042D000701C06D0FEF7F6FDA0EB0800B04203D834
:1042E00016B1012F1FD021E02068012F15D0806961
:1042F00025EA00000004000C18D000BF44F8309FED
:1043000084F80DA084F80E90216941F0200121610C
:1043100084F80C900120BDE8F087406925EA000090
:104320000004000CEAD12068406901E0206880693F
:1043300025EA00000004000CAFD1ECE770B516468A
:104340000D4604461EE02046FFF7C1FE08B10120DD
:1043500070BD681C16D0FEF7B5FD801BA84200D8C2
:1043600085B920684069C04300060BD5002044F899
:10437000300F20216173A073216941F02001216178
:104380002073E4E720684069C0430006DBD40020C6
:1043900070BD000008480021017041708170C1703B
:1043A000017141718171C171017241728172C0F8F4
:1043B0000D10C0F811107047C800002004226F498A
:1043C0006F48FEF78FF86F48FDF72EFF6C4CDFF853
:1043D000AC8101256C4F183CA8F13C0604F5067B26
:1043E0004FF400413846FEF763FD20B9B5702178DF
:1043F00025EA01002070207801287CD1810338460D
:10440000FEF756FD28B9B5706078401C00F0030037
:1044100060704FF400513846FEF74AFD20B9B57080
:10442000A17825EA0100A070DFF860914FF40071D7
:104430004846FEF73DFD20B9B570E17825EA010058
:10444000E0704FF480714846FEF732FD20B9B57038
:10445000217925EA01002071A07A032803D00128E0
:1044600001D000200FE0B8F800104046A279891A68
:104470001431282908D9B5700088FA21484340F63C
:10448000FF71B0FBF1F0A07160794FF06401C0EBF7
:104490000030B0FBF1F0B8F802204146801A00D598
:1044A0004042142808DDB57048886422504340F625
:1044B000FF72B0FBF2F060718888B268101A00D504
:1044C0004042642806DCC888F268101A00D54042D1
:1044D00064283EDDB5708888B060C988F1608A467E
:1044E00002F096F84FF08A4102F080F9814650467A
:1044F00002F08EF800E03AE04FF08A4102F076F9DF
:10450000494600F0F9FC224902F09AF801F02AFF2E
:10451000204A214B01F07AFD01F046FD10F1FF4FDA
:1045200002D31E4901F04AFF1D490144B1F5530F62
:1045300001D2032005E01B490144B1F5B40F02D2BA
:104540000020A07205E018490844B0F5721F12D28D
:10455000A572DBF8041011F0FF4F08D0DBF8000063
:1045600010F0FF4F03D0C4F80D10C4F81100142050
:1045700000F06AFF34E70220E3E700003C0000207F
:10458000E00000201C02002000100140000C01404F
:1045900000003443182D4454FB2109400000B4436B
:1045A0000000CCBD0000F9BC00009FBC3EB500215E
:1045B0002148009101911F4A029102609215826088
:1045C0000173017504244FF460220461C2614160EB
:1045D000FDF7B2FE08B172B6FEE70120CDE900405A
:1045E0000725694602951448FDF724FE08B172B606
:1045F000FEE7052000900220019069460E48FDF775
:1046000019FE08B172B6FEE7062000900320019063
:1046100069460948FDF70EFE08B172B6FEE7CDE91E
:10462000005469460448FDF705FE002801D072B623
:10463000FEE73EBD00240140E00000200E4810B51A
:104640000C4901600921416000214FF40032816072
:10465000C0E903124FF4401242610176417681763F
:10466000C17601774177FEF724F9002801D072B6B0
:10467000FEE710BD00640040100100202DE9F0436A
:1046800085B000242D48009401940294039481691C
:1046900041F010018161816901F01001049181698B
:1046A00041F020018161816901F02001049181695B
:1046B00041F004018161816901F004010491816983
:1046C00041F0080181618069DFF8749000F0080012
:1046D0004FF607460490002231464846FEF7EDFBB0
:1046E000DFF860804FF48077002239464046FEF7BD
:1046F000E4FB4FF4604001258DE831006946124823
:10470000FEF7EAFACDE900650226CDE902466946E0
:104710004846FEF7E1FA00970396CDE90154694651
:104720004046FEF7D9FA4FF440708DE831006946F3
:104730004846FEF7D1FA05B0BDE8F083001002400C
:10474000000C0140000801400010014010B58EB07F
:1047500000240794089409940A940B941C21684639
:104760000C94FBF7B9FF1E484FF0804101604721D0
:10477000C0E9011444F61F61C0E90314802181617E
:10478000FFF734F908B172B6FEE74FF48050079096
:1047900007A91348FFF7A2F908B172B6FEE710485F
:1047A000FFF72DFB08B172B6FEE70B940BA90C487E
:1047B0000C94FFF7E7F808B172B6FEE76020CDE988
:1047C000000402940022694605480494FFF7B1FAF8
:1047D00008B172B6FEE70248FFF786FA0EB010BDC8
:1047E0008C01002010B586B0002417480094019475
:1047F00002940394049413490594016041F61F4107
:10480000C0E9011440F2E731C0E903148461FFF705
:10481000EDF808B172B6FEE74FF48050009069469B
:104820000948FFF75BF908B172B6FEE7049404A9E2
:1048300005480594FFF7A6F8002801D072B6FEE7F8
:1048400006B010BD00040040D4010020FEE7FEE7E2
:10485000254F0125254C00264FF4FA68B87A012827
:1048600001D0032816D1B8796178884201D9E57062
:1048700066717879142801D2E5706571B87810B93D
:10488000E57002206071F87810B9E570032060715E
:10489000387958B1E07818B3E670607907281FD2EC
:1048A000DFE800F0080A0C0E10121400E570042076
:1048B0006071F1E701210AE0022108E0032106E02E
:1048C000042104E0052102E0062100E00721084858
:1048D000FDF75AFC404600F0B7FD0548FDF780FCA7
:1048E000322000F0B1FDB9E7C80000200000002030
:1048F000D00200202DE9FF412C4C2B48DFF8B0807E
:10490000606315200321A06321712422C8F80020D0
:104910000822C8F81020002700978DF800108DF8A5
:1049200001008DF8027001208DF8030041464546D4
:10493000019704F130036A46A1F5CE70FDF758FEE9
:104940000A20FEF7B7F925202860002526E0401E42
:1049500002970397854204D1A16BA5EBC5000844DB
:1049600000E00720C6B28DF80850616BC5EBC500AA
:10497000014432460DF10900FBF737FE0B4B0C49A1
:10498000761C303302AAA1F5CE70C8F81060FDF78E
:104990002FFE0A20FEF78EF96D1CEDB220798542BC
:1049A000D5D3BDE8FF810000C80000200000002032
:1049B000AC02002078B14FF4FA725043FA22B0FBF7
:1049C000F2F044290AD0A0F2DC50404280B20549FE
:1049D00009684863704740F2DC50F8E700F2DC50A9
:1049E000F4E700008C010020012000F02DFDFBE722
:1049F00010B5502080F31188BFF34F8FBFF36F8F36
:104A000001F0D6F918B104494FF080500860002039
:104A100080F3118810BD000004ED00E030B593B0C4
:104A200028216846FBF758FE14210AA8FBF754FE1C
:104A3000002501200F9510951195010412958DE820
:104A4000230004904FF4E010CDE9081002240794ED
:104A50006846FEF701FE08B172B6FEE70AA90F200C
:104A600031C14FF48060CDE90D0502210AA8FEF79F
:104A7000F7FC08B172B6FEE74FF4004011900F94B6
:104A80000FA8FEF775FC002801D072B6FEE713B040
:104A900030BD70470148FFF78FB80000D4010020F7
:104AA0000148FFF789B8000024080020F0B502682B
:104AB000194B1A4C1A4D4FF08047984205D0B84216
:104AC00003D0A04201D0A84203D122F070064A6868
:104AD0003243984205D0B84203D0A04201D0A84248
:104AE00003D122F44074CA6822434C6922F0800248
:104AF000224302608A68C2620A688262984201D1D7
:104B000009690163012141610169C90703D0016994
:104B100021F001010161F0BD002C014000040040C2
:104B20000008004010B501F01F030121046A9940FC
:104B30008C430462016A9A401143016210BD10B5B2
:104B4000846842EA032224F47F440A4322438260B9
:104B500010BD826822F070020A4342F007018160B2
:104B60007047000030B5036A026A22F00102026257
:104B70004268846924F073050C682C4323F0020515
:104B80008B682B430A4DA8420BD123F00805CB6854
:104B900022F440722B434D6923F0040315438A69C4
:104BA0002A434260846149684163036230BD00006A
:104BB000002C014030B5026A036A23F0100303623F
:104BC000436884690D6824F4E64444EA05248D684A
:104BD00022F0200242EA05120B4DA8420ED1CD6808
:104BE00022F0800242EA05124D6923F4406343EA51
:104BF00085038D6922F0400243EA850343608461A6
:104C000049688163026230BD002C014030B5036AFF
:104C1000026A22F4807202624268C46923F400735B
:104C200024F073050C682C438D6843EA05230C4D72
:104C3000A8420ED1CD6823F4006343EA05234D69F1
:104C400022F4405242EA05128D6923F4806342EA5D
:104C500005124260C4614968C163036230BD00004F
:104C6000002C014030B5046A026A22F480520262CC
:104C70004268C3690D6823F4E64343EA05238D685F
:104C800024F4005444EA0534064DA84204D14D6989
:104C900022F4804242EA85124260C361496801649D
:104CA000046230BD002C014010B5036A046A24F090
:104CB00001040462846924F0F00444EA021423F03D
:104CC0000A020A438461026210BD10B5036A046AD5
:104CD00024F010040462846923F0A00324F47044D7
:104CE00044EA023243EA01118261016210BD0168A7
:104CF0000C3151E8002F22F4907241E80023002B80
:104D0000F5D10168143151E8002F22F0010241E889
:104D10000023002BF5D1016B012909D101680C3169
:104D200051E8002F22F0100241E80023002BF5D1BA
:104D3000202180F8421000210163704710B504461D
:104D400000680169E26821F4405111430161216961
:104D5000A0680843616908432168CA6841F20C638E
:104D60009A430243CA6020684169A26921F44071F4
:104D70001143416113492068884202D1FEF736FC95
:104D800001E0FEF723FC00EBC00101EB00106168BD
:104D900064228900B0FBF1F1B1FBF2F06FF018036F
:104DA000434301EB8303322101EB0311B1FBF2F129
:104DB00001F0F00202EB001001F00F01084421683D
:104DC000886010BD0038014081628285C285002163
:104DD0004164222180F84210016921B10168CA684A
:104DE00042F48072CA6001684A6942F001024A6175
:104DF0000068C16841F02001C160002070472DE9C2
:104E0000F843984617460D460446089E24E0701C59
:104E100022D0FEF757F8A0EB0800B0421AD8CEB166
:104E20002068C168490717D5802D15D0402D13D0B3
:104E30000168C94309070FD4016800254068009044
:104E40002046FFF754FF0820606484F8405001209A
:104E5000BDE8F8830320FBE72068006835EA00001E
:104E600004D00020B842D2D00020F1E70120F9E7B9
:104E7000FEE7490050EAC12018BF04204A0D18BFC0
:104E800040F0010040F2FF72B2EB515F08BF40F00A
:104E90000200012808BF052070474100080218BF22
:104EA00004200A0E18BF40F001004FF07F4232EAA2
:104EB000010108BF40F00200012808BF052070472B
:104EC0000907090E002801DB034A02E0034A00F04B
:104ED0000F0081547047000000E400E014ED00E092
:104EE0006FF05E01080701F02CBD30380A2801D2AE
:104EF00001207047002070472DE9F0474FF06842CD
:104F000002EB40030C460546B3F1654F3CBF02EB94
:104F10004102B2F1654F3FD34FF07F42B2EB400FF9
:104F200028BFB2EB410F03D2BDE8F04701F046BA0B
:104F300040EA01035B0008BF44F0FF410AD0B2EB36
:104F4000400F08BFB2EB410F06D125F0804024F09E
:104F5000804105460C461FE0B2EB400F12BF5FEAEE
:104F6000410245F0FF4004F0004115D04FEA4102F4
:104F700092EA400310D4002AB4BF4FF03E564FF0DF
:104F80009F46314601F05CFB05463146204601F064
:104F900057FB044628462146C0F3C753C1F3C75206
:104FA0009A1A1B2A06DD10F0004F14BF54485548CA
:104FB000BDE8F08712F11A0F17DA11F0004F06D092
:104FC00010F0004F0CBF50485048BDE8F087214614
:104FD000284601F05BFA0446FFF75FFF042808BF8C
:104FE000FFF77EFF2046BDE8F0874200B2EB410F9D
:104FF00025D910F0004F19BF454F464E464F474E3A
:10500000224685F0004415460A4680F000411046CD
:105010000A1A5200B2F1807F3ED248404049DFF880
:1050200004A110F0004F18D04FF03F48384601F06F
:10503000DDFB07465146304601F0D8FB17E011F082
:10504000004F04BF00263746E2D010F0004F19BFD2
:10505000354F364E364F374EDAE74FF07C583846EC
:1050600001F0ACF907465146304601F0A7F9064673
:105070004146284601F0E4FA214601F09FF98246B4
:105080002146404601F0DCFA294601F0A5FB5146D5
:1050900001F0FCF9044604E02146284601F0F6F947
:1050A0000446014601F0CCFA8046234901F0C8FAD3
:1050B000224901F083F9414601F0C2FA204901F08A
:1050C0007DF9414601F0BCFA1E4901F077F94146ED
:1050D00001F0B6FA1C4901F071F905464146204637
:1050E00001F0AEFA294601F0ABFA314601F066F95B
:1050F000214601F063F93946BDE8F04701F05EB999
:10510000DB0FC9BFDB0FC93FDB0F4940DB0F49C0D5
:105110000000C9BF22AAFDB90000C93F22AAFD397B
:105120000060ED3EC30ACE37000049C022AA7DBA16
:105130000000494022AA7D3A2DAD65BD8FB8D53D0E
:105140000FB511BE61C84C3EA8AAAABE38B5002151
:105150004172642100914468017800F10902012341
:105160002046FDF773FF38BD38B508214172642130
:1051700000914468017800F1090201232046FDF7FF
:1051800065FF38BD10B50446416050002070207A9C
:10519000332140F004002072204600F043F8322111
:1051A000204600F03FF80520FDF784FD0121204650
:1051B00000F038F80520FDF77DFD0C21204600F0B9
:1051C00031F80520FDF776FD0221204600F02AF88F
:1051D0000520FDF76FFD8021204600F023F82046D2
:1051E00000F074F80820607210BD0FB470B586B07E
:1051F00005460CAA68460B99FBF788F800246E4612
:1052000005E0315D284600F02DF8641CE4B26846E4
:10521000FBF7CCF9A04201D9102CF2D306B070BC38
:105220005DF814FB1CB501F0F002437A42F004046F
:105230001C438DF8044013438DF805300901427A70
:1052400041F004031A438DF80620427A04230A43EE
:105250008DF80720642100910178406801AAFDF7CC
:10526000F5FE1CBD1CB501F0F002437A42F00504C6
:105270001C4342F001028DF8044013438DF80530C1
:105280000901427A41F005031A438DF80620427A5B
:1052900041F001010A438DF8072064210091017853
:1052A0004068042301AAFDF7D1FE1CBD08B506A382
:1052B0001B6800931DF801101144C9B241F0800130
:1052C000FFF7B0FF08BD000000401454017A21F040
:1052D0000101017241F00801FFF7A4BFACB0FDF776
:1052E00085FFFFF79BFBFFF7C9F94B48416941F088
:1052F000010141614069002200F001002A9005216E
:105300000B20FEF703F80B20FDF7F2FFFFF796F9ED
:10531000FFF74CF942484149002401604149C0E986
:1053200001144FF48041C0E9034144618461C461C8
:105330000462FDF7CDFD08B172B6FEE738483A4980
:10534000E4304FF416550160C0E901540C26C460E6
:10535000C0E904468461C461FEF7D1FD08B172B6AC
:10536000FEE7334831490160C0E90154C460C0E937
:1053700004468461C461FEF7C2FD08B172B6FEE75F
:10538000FFF7E4F9FFF72EFA1C222A496846FBF7DB
:1053900071F90021684600F064F8274C25491C2269
:1053A000A0611C3107A8FBF765F9002107A800F0F0
:1053B00058F82049E0611C2238310EA8FBF75AF951
:1053C00000210EA800F04DF81A4920621C22543129
:1053D00015A8FBF74FF9002115A800F042F8154970
:1053E00060621C2270311CA8FBF744F900211CA844
:1053F00000F037F80F49A0621C228C3123A8FBF77C
:1054000039F9002123A800F02CF8E062FEF7C2FF72
:1054100000F022F8FEE700000010024000540040B7
:1054200038010020A08601000038014000440040FF
:1054300064020020C06900080000002000218428C8
:1054400000D0C11C0846704710B5002800D10120CB
:1054500000F04AFB002010BD10B500F06DFB0020ED
:1054600010BD30B585B004460D466169B4F9080039
:10547000002910D0A16971B1FFF7E0FF6269A1694D
:105480000192029100902B4622692168606800F029
:105490005EFC049010E0FFF7D1FF04A90191009099
:1054A000208A2B4682B22168606800F01BFC01282C
:1054B00002D005B0002030BD049805B030BD00001A
:1054C0002DE9F04104460F46184EF5683068001D7E
:1054D00000F03CFA48B93068012190F82C0001FA3C
:1054E00000F0316921EA00003061601C07D137B15A
:1054F0003068BDE8F041011D0D4800F06EBA2C4443
:1055000030684460AC4206D23068011DB06BBDE823
:10551000F04100F047BA3068011D706B00F042FAAC
:10552000B06A844200D2B462BDE8F0815400002029
:105530004809002070B5044600F05CFA1C4DA868CC
:10554000401CA860286810B1686938B10CE02C6074
:10555000A868012808D100F0EDF805E02868E16AA4
:10556000C06A884200D82C60686A401C6862E06AA1
:1055700001212A698140114329610E4900EB800015
:1055800001EB8000211D00F028FA00F053FA686951
:1055900000280CD02868E16AC06A884207D2064910
:1055A0004FF080500860BFF34F8FBFF36F8F70BD17
:1055B000540000206C08002004ED00E070B50D4C94
:1055C0006068002815D00C4E00F014FAF068C56829
:1055D000281D00F0BBF9A068401EA0606068401E56
:1055E000606000F027FA284600F008F8606800289C
:1055F000EAD170BD540000203409002010B50446E3
:1056000094F8511000290BD0012911D0022914D08F
:10561000502080F31188BFF34F8FBFF36F8FFEE7E9
:10562000206B00F01DFA2046BDE8104000F018BACB
:105630002046BDE8104000F013BA10BD4FF4805171
:10564000104810F0070F06D0C01D20F007000D49CC
:10565000411AC1F580510C4A106000235360014487
:10566000083921F00701183A11604B600B600B1AE2
:10567000436001604068906050604FF000405061AE
:10568000704700005C090020A8000020074E4FF082
:105690008054074DFFF792FF30680128FAD92C603B
:1056A000BFF34F8FBFF36F8FF4E700006C0800204B
:1056B00004ED00E02DE9F0478146099E089D0A9C13
:1056C0009A46521E206B00EB820020F0070800274C
:1056D00000290CD0002023180A5C83F834200A5CCF
:1056E00012B1401C1028F6D384F8437001E084F80E
:1056F0003470072D00D30625E5626564A764201D7C
:1057000000F04DF904F1180000F049F92461C5F1E9
:105710000700A0616462E76484F85070524649460D
:10572000404600F001F92060002E00D03460BDE852
:10573000F087000070B500240F4D04EB840005EBEA
:10574000800000F021F9641C072CF6D30B4800F010
:105750001BF90B4800F018F90A4800F015F90A483F
:1057600000F012F9094800F00FF9094803494163B4
:105770001431816370BD00006C080020F80800201F
:105780000C090020200900203409002048090020CD
:105790005400002010B4144900E011460A68824207
:1057A000FBD34B6803EB010C844503D140681844DC
:1057B000486008460C68D0F804C00CEB0003A34214
:1057C0000CD10A4B1B689A4206D052686244426070
:1057D0000A681268026002E0036000E00260814231
:1057E00000D0086010BC7047A80000209000002086
:1057F0000749486B0068002805D0486BC068C0683E
:105800004068886270474FF0FF3088627047000040
:105810005400002009484068401C07D0502080F305
:105820001188BFF34F8FBFF36F8FFEE7502080F3D7
:105830001188BFF34F8FBFF36F8FFEE7B0000020DA
:105840002DE9F0410546002600F0BAF9344F3868DA
:1058500008B9FFF7F3FE7869054251D19DB10835CB
:1058600015F0070F0FD005F00700C0F10800054440
:1058700015F0070F07D0502080F31188BFF34F8F2A
:10588000BFF36F8FFEE7002D3AD07868854237D896
:1058900024490846046801E0214604466068A8429D
:1058A00002D220680028F7D13868844228D00868DE
:1058B00000F10806206808606068411B10290FD9B4
:1058C000601910F0070F07D0502080F31188BFF344
:1058D0004F8FBFF36F8FFEE741606560FFF75AFFA0
:1058E00061687868401A7860BA68904200D2B860FF
:1058F00078690843606000202060F868401CF86008
:1059000000F0C0FA16F0070F07D0502080F311887E
:10591000BFF34F8FBFF36F8FFEE73046BDE8F081D6
:1059200090000020A8000020001F4FF0807303604B
:10593000001F21F001010160001F034901601438BC
:10594000026020387047000015580008016943685C
:1059500082689A60836842685A604A68824201D1CC
:1059600082684A60002202610868401E0860086878
:1059700070470000034B036003F15400086080206F
:1059800010607047D005002000F1080141604FF021
:10599000FF328260C1600161002101607047002117
:1059A0000161704710B4D1F800C01CF1010202D0AF
:1059B00000F1080202E0026904E01A4653681C681C
:1059C0006445FAD953684B6099608A6051600861F8
:1059D0000168491C016010BC704742684A609368C6
:1059E0008B6093685960916008610168491C01608F
:1059F00070470000502080F31188BFF34F8FBFF332
:105A00006F8F0A494868401C486001280CD108483B
:105A1000006810F0FF0F07D0502080F31188BFF30B
:105A20004F8FBFF36F8FFEE770470000B00000207C
:105A300004ED00E009494868002806D0401E48608F
:105A4000002801D180F311887047502080F311881D
:105A5000BFF34F8FBFF36F8FFEE70000B000002051
:105A600070B500282AD0A0F10804154D6068696956
:105A7000084209D022687AB1502080F31188BFF320
:105A80004F8FBFF36F8FFEE7502080F31188BFF375
:105A90004F8FBFF36F8FFEE78843606000F090F890
:105AA00060686968084468602046FFF773FE2869EB
:105AB000401C2861BDE8704000F0E4B970BD0000F2
:105AC000900000204FF0E020002101618161054934
:105AD0004FF47A720968B1FBF2F1491E4161072166
