:020000040800F2
:10000000901F0020210200089F290008F124000809
:100010009D29000859050008672E0008000000000F
:10002000000000000000000000000000890100083E
:100030001B08000800000000CD010008A52A0008E8
:100040003B0200083B0200083B0200083B0200089C
:100050003B0200083B0200083B0200083B0200088C
:100060003B0200083B0200083B020008E5070008CD
:100070003B0200083B0200083B0200083B0200086C
:100080003B0200083B0200083B0200083B0200085C
:100090003B0200083B0200083B0200083B0200084C
:1000A0003B0200083B0200083B0200083B0200083C
:1000B0003B020008492B0008552B00083B020008B2
:1000C0003B0200083B0200083B0200083B0200081C
:1000D0003B0200083B0200083B0200083B0200080C
:1000E0003B0200083B0200083B02000800F002F857
:1000F00000F03AF80AA090E8000C82448344AAF188
:100100000107DA4501D100F02FF8AFF2090EBAE885
:100110000F0013F0010F18BFFB1A43F0010318473B
:1001200098470000B8470000103A24BF78C878C14B
:10013000FAD8520724BF30C830C144BF04680C60ED
:10014000704700000023002400250026103A28BF35
:1001500078C1FBD8520728BF30C148BF0B60704739
:100160001FB51FBD10B510BD00F020F91146FFF7F7
:10017000F7FF02F0CDFF00F03EF903B4FFF7F2FF06
:1001800003BC00F03FF90000224B19680868B0E892
:10019000F00F80F30988BFF36F8F4FF0000080F3FA
:1001A00011884EF00D0E70470000000006480068F0
:1001B000006880F3088862B661B6BFF34F8FBFF363
:1001C0006F8F00DF00BF00BF08ED00E0EFF3098094
:1001D000BFF36F8F0F4B1A6820E9F00F106008B55E
:1001E0004FF0500080F31188BFF34F8FBFF36F8F34
:1001F00003F008FC4FF0000080F31188BDE80840D0
:1002000019680868B0E8F00F80F30988BFF36F8FB2
:10021000704700BF4C000020EFF3058070470000DE
:100220000948804709480047FEE7FEE7FEE7FEE78A
:10023000FEE7FEE7FEE7FEE7FEE7FEE704480549C6
:10024000054A064B70470000472B0008ED000008E8
:1002500090190020901F0020901B0020901B002070
:10026000032A40F2308010F0030C00F0158011F8E2
:10027000013BBCF1020F624498BF11F801CB00F8BA
:10028000013B38BF11F8013BA2F1040298BF00F80E
:1002900001CB38BF00F8013B11F0030300F02580CB
:1002A000083AC0F0088051F8043B083A51F804CBF2
:1002B000A0E80810F5E7121D5CBF51F8043B40F8B8
:1002C000043BAFF30080D20724BF11F8013B11F8C3
:1002D00001CB48BF11F8012B24BF00F8013B00F807
:1002E00001CB48BF00F8012B704710B5203AC0F091
:1002F0000B80B1E81850203AA0E81850B1E8185027
:10030000A0E81850BFF4F5AF5FEA027C24BFB1E863
:100310001850A0E8185044BF18C918C0BDE81040D4
:100320005FEA827C24BF51F8043B40F8043B08BFDD
:100330007047D20728BF31F8023B48BF11F8012BA4
:1003400028BF20F8023B48BF00F8012B70474FF050
:10035000000200B5134694469646203922BFA0E815
:100360000C50A0E80C50B1F12001BFF4F7AF090721
:1003700028BFA0E80C5048BF0CC05DF804EB890012
:1003800028BF40F8042B08BF704748BF20F8022B55
:1003900011F0804F18BF00F8012B7047704770476D
:1003A0007047000000487047301900207546FFF77D
:1003B000F9FFAE4605006946534620F00700854622
:1003C00018B020B5FFF73AFFBDE820404FF0000617
:1003D0004FF000074FF000084FF0000B21F007012D
:1003E000AC46ACE8C009ACE8C009ACE8C009ACE870
:1003F000C0098D4670470446AFF300802046FFF7E2
:10040000BCFE000001491820ABBEFEE7260002003A
:100410007047000070B5044600688168C943C90789
:1004200017D1816821F00101816001F047F805468C
:100430000AE000BF01F042F8401B022804D92068FE
:100440008068C043C00706D020688068C043C007EA
:10045000F0D0002070BDA06A40F01000A062E06AF9
:1004600040F00100E062012070BD10B50146406A15
:10047000826A12F0500F05D0006A026BBDE810408E
:1004800008461047816A41F40071816201688968F9
:10049000C1F3424107290CD1017B51B9816A21F492
:1004A00080718162816AC90403D4816A41F00101CB
:1004B000816200F039FA10BD10B5406A816A41F0DE
:1004C00040018162C16A41F00401C16200F02EFA6C
:1004D00010BD10B5406A00F028FA10BDF8B500262E
:1004E0000446009600688168C943C9072DD0816819
:1004F00041F001018160164816490068B0FBF1F037
:1005000000E0401E00900028FBD100F0D7FF054618
:1005100016E000BF00F0D2FF401B022810D920686F
:100520008068C043C0070BD0A06A40F01000A062F2
:10053000E06A40F00100E06284F824600120F8BD28
:1005400020688068C043C007E4D10020F8BD0000E7
:100550004800002040420F00FEE70000284894B009
:10056000002508218560C0E90351057501260E9517
:1005700011960D9509950A950B950C95CDE90F5699
:1005800009A9A0F5CE7000F08DFB1E4800F050FDCB
:100590001D4CA07810B1A57002F006FA0021194890
:1005A00000F0F8FB40B36B4602AA0021154800F0AA
:1005B00002FC08BB029830281ED10698E0B1114811
:1005C0009DF80210483801709DF8031041709DF8A5
:1005D0000410C1709DF800002178884203D020707B
:1005E000E670052060719DF801006178884203D0B3
:1005F0006070E67006206071642002F03FFEC8E77C
:100600009C0200200001002000000020094D0A4C3F
:100610003C264FF47A776869B0FBF6F0607228697F
:10062000B0FBF7F0E071607940002072012002F029
:1006300025FEF0E700000020B800002000216648F9
:1006400001F066FE644C654F654DC43C4FF4807606
:100650004FF400484FF480494FF4005A4FF4805B48
:100660002078012836D000223146384600F021FF9C
:1006700000224146284600F01CFF00224946284639
:1006800000F017FF00225146284600F012FF00221A
:100690005946284600F00DFF00224FF4006128461D
:1006A00000F007FF00224FF48061284600F001FFB0
:1006B00000220421284600F0FCFE002202212846E8
:1006C00000F0F7FE00220121284600F0F2FE522140
:1006D00000207BE001223146384600F0EAFE6078D7
:1006E00030B1012806D002280BD0032824D114E011
:1006F000002200E001224146284600F0DAFE0022F6
:1007000005E000224146284600F0D3FE012249467A
:10071000284600F0CEFE00220AE00022414628468C
:1007200000F0C7FE00224946284600F0C2FE012222
:100730005146284600F0BDFEA07801282CD00022AA
:100740005946284600F0B5FE5FF001024FF4006103
:10075000284600F0AEFEE078012824D000224FF4B5
:100760008061284600F0A5FE01220421284600F001
:10077000A0FE207901281DD000220221284600F089
:1007800098FE01220121284600F093FEA07A01285C
:1007900017D0022818D01BE001225946284600F045
:1007A00088FE0022D2E701229102284600F081FE55
:1007B0000022DAE701220221284600F07AFE002218
:1007C000E0E7A079442101E0A079522102F04CF940
:1007D000012002F053FD43E77C01002000080140A6
:1007E000000C0140014800F04FBC000060050020F3
:1007F00030B590F840500124AC40C56B6C60046883
:1008000063604368102B036803D099600068C2607E
:1008100030BD9A600068C16030BD704772B6FEE7B7
:100820000122014901F056BEB4000020F8B50024B1
:10083000009490F824202546012A12D0012280F845
:1008400024204A681F23072A0DD20668776B521EA0
:1008500002EB820293409F430B6893401F437763F0
:1008600019E00220F8BD06680D2A0AD2376BD21FA4
:1008700002EB820293409F430B6893401F43376310
:1008800009E0F76A0D3A02EB820293409F430B683E
:1008900093401F43F7620A68072306680A2A0AD3AF
:1008A000F7680A3A02EB420293409F438B689340F9
:1008B0001F43F76008E0376902EB420293409F4311
:1008C0008B6893401F4337610A68102A01D0112AB0
:1008D00020D1124B02689A4217D193681B0219D497
:1008E000936843F4000393600968102912D10C49FE
:1008F0000C4A0968B1FBF2F101EB8101490000E00B
:10090000491E00910029FBD104E0816A41F02001D9
:100910008162012480F824502046F8BD0024014063
:100920004800002040420F007047704770470000A9
:100930002DE9F0414FF0000704003D467ED0A06A4B
:10094000002628B9E66284F82460204600F07EF88C
:100950002046FFF75FFDA16A01F01001014304D0BA
:10096000A06A40F01000A06268E0A16A21F48851FA
:1009700041F00201A1626268E169237B0A4347EA10
:1009800043010A43A1684FF48077B94208D0012996
:1009900006D0002194F814C0BCF1010F02D00AE087
:1009A0003946F7E7F3B1A36A43F02003A362E36A91
:1009B00043F00103E3622368D3F804C02CF4694CCC
:1009C0004CEA010CC3F804C023689968DFF870C0D2
:1009D00001EA0C0111439960A168B9420BD00129C9
:1009E00009D00CE0DFF85CC0A3690CEB43330B4388
:1009F00043F40061DFE7218A0D05A5F58015216824
:100A0000CB6A23F470032B43CB62216889680E4BB9
:100A10001940914208D1E662A16A21F0020141F039
:100A20000101A162BDE8F081A06A20F0020040F05F
:100A30001000A062E06A40F00100E0620120F1E7EE
:100A4000FDF7E1FF00E0FFFFFE0E1FFF70B586B06F
:100A500000250646009501950295039500681A4900
:100A600088422ED11949886940F4007088618869EC
:100A700000F400700490886940F00400886188697F
:100A8000694600F004000490F020009003200190DB
:100A90000F4800F01DFC104C0E48C4E900058020F2
:100AA000C4E9025040002061800060612020C4E958
:100AB0000605204600F092FB08B1FFF7AFFE346256
:100AC000666206B070BD00000024014000100240C4
:100AD0000008014008000240600500202DE9F047B1
:100AE000894604463B4900683B4F0E1D90468842AC
:100AF00001D0B84207D1306810F4702F03D001251F
:100B00002846BDE8F08794F8240001280CD0012085
:100B100084F824002046FFF7E1FC05004FF00000B8
:100B200004D084F82400EBE70220EAE7A16A40F64B
:100B30000162914341F48071A1622168B94218D1E8
:100B4000326812F4702F14D0A16A41F48011A162AE
:100B50003168490505D5A16A21F4005141F480515D
:100B6000A162A16AC9040AD5E16A21F00601E16225
:100B700006E0A26A22F48012A2624968E9E7E06214
:100B800084F82400216A15488862216A1448C862E2
:100B9000216A1448086321686FF002000860206829
:100BA000816841F480718160216843464C314A4636
:100BB000206A00F043FB20688168C1F342410729A5
:100BC000816803D041F48011816099E741F4A0016C
:100BD000FAE7000000240140002801406B040008EF
:100BE000D3040008B9040008F0B590F82050046858
:100BF000A468012D05D0022D03D0416A41F4802163
:100C00004DE014F0406F01D1E50045D5C4F3016417
:100C10000125A5401D608D684FF4C0739DB1CE685D
:100C200035434E6845EAC605066803EB0417F551DF
:100C30004FF4C275076805EB04150E697E51097DF6
:100C4000012905D009E00E88CD6845EA4655EBE755
:100C500001684E5946F480764E511179D2F805500C
:100C60004FF4C67641EA0521056806EB0416A95142
:100C70001178D2F801204FF4C47541EA02210268CC
:100C800005EB04155151006803EB0411425842F082
:100C9000010242500020F0BD416A41F4001141625E
:100CA0000120F0BD10B590F820300268012B07D06C
:100CB000022B05D0416A41F480214162012010BD20
:100CC000D2F8000240F00100C2F80002087D00F0F6
:100CD0001F0301209840D2F81C328343C2F81C3213
:100CE000CB69B3B9D2F80C328343C2F80C328C8989
:100CF0004B6864F31F434C6902EBC404C4F84032F0
:100D00000C890B6864F31F434C6902EBC404C4F8FC
:100D10004432CB69012B16D1D2F80C320343C2F80E
:100D20000C320C884B6864F31F434C6902EBC4041B
:100D3000C4F840320C89CB6864F31F434C6902EB62
:100D4000C404C4F844328B69002BD2F804320FD0AB
:100D500053EA0003C2F804320B69002BD2F81432B4
:100D600008D00343C2F81432096A012904D008E00C
:100D70008343EFE78343F5E7D2F81C120143C2F83F
:100D80001C12D2F8000220F00100C2F8000200207C
:100D900010BD00000246002092F82030012B01D047
:100DA000022B05D1106821B1D0F8100000F003002B
:100DB0007047C068FAE770B590F82040012C05D064
:100DC000022C03D0416A41F4802128E0046809B371
:100DD0002469A40720D04FF4D874056804EB0114EB
:100DE0002D5915F00405956005682D591AD0ED08A8
:100DF000556005682C5904F00204D4604FF4DA748D
:100E0000056804EB01142E5906F00F06082E0CD3CA
:100E100008250DE0E468DCE7416A41F40011416215
:100E2000012070BD6D0D1560E3E72D5905F00F052C
:100E3000156105682D59C5F30725956105682C597D
:100E4000240C54614FF4DC72046802EB0112A458C4
:100E50001C700468A458240A5C700468A458240C0C
:100E60009C700468A258120EDA704FF4DE720468A7
:100E700002EB0112A4581C710468A458240A5C7186
:100E80000468A458240C9C710468A258120EDA71EC
:100E9000006829B1016941F020010161002070BDA5
:100EA000C16841F02001C160F8E770B5040003D0CB
:100EB00094F8200010B104E0012070BD204600F03D
:100EC00081F82068016841F00101016000F0F6FA44
:100ED0000546052604E000F0F1FA401B0A2811D867
:100EE00020684068C007F6D02068016821F0020140
:100EF000016000F0E3FA05460BE000F0DFFA401B6A
:100F00000A2806D9606A40F40030606284F82060E4
:100F1000D2E7206840688007EFD4207E012820684F
:100F200001683DD021F080010160607E01282068C9
:100F3000016838D021F040010160A07E01282068BE
:100F4000016833D021F020010160E07E0128206893
:100F500001682ED041F010010160207F0128206837
:100F6000016829D021F008010160607F0128206814
:100F7000016824D021F004010160D4E90201084392
:100F8000D4E90412114308436168491E08432168EB
:100F9000C86100206062012084F82000002070BD3C
:100FA00041F08001C0E741F04001C5E741F0200178
:100FB000CAE721F01001CFE741F00801D4E741F082
:100FC0000401D9E710B586B000210091019102918A
:100FD000039100681349884222D11348C16941F046
:100FE0000071C161C16901F000710491816941F032
:100FF0000401816180690D4C00F0040004904FF4FD
:10100000006000906946204600F062F9A01400904C
:1010100002200190032003906946204600F058F911
:1010200006B010BD006400400010024000080140FE
:1010300070B5044690F82000012804D0606A40F49E
:101040000020606218E0022084F820002068016817
:1010500021F00101016000F031FA05460EE000BF09
:1010600000F02CFA401B0A2808D9606A40F40030CE
:101070006062052084F82000012070BD206840686F
:10108000C007EDD1606270BD2DE9F05FC16B0C68E7
:1010900001680B68D0F840C0042202FA0CF2494DF6
:1010A000DFF824A1494E4A4FDFF828B1DFF828E1E4
:1010B00022422CD05A072AD50A68920603D40A681D
:1010C00022F004020A600168A94201D1042219E059
:1010D000514501D1402215E0B14202D14FF4806266
:1010E00010E0B94202D14FF480420BE0594502D1E1
:1010F0004FF4802206E0714502D14FF4800201E0F6
:101100004FF080622F4908394A60C16A3BE04FF0D6
:10111000020808FA0CF818EA040F4FF000094FF023
:10112000010235D05FEA837832D50B689B0605D47F
:101130000B6823F00A030B6080F821200168A942A4
:1011400001D1022219E0514501D1202215E0B1421E
:1011500002D14FF4007210E0B94202D14FF40052B4
:101160000BE0594502D14FF4003206E0714502D13F
:101170004FF4001201E04FF00072124908394A6042
:1011800080F82090816A00291AD0BDE8F05F0847F6
:10119000082505FA0CF5254212D01B0710D50B685F
:1011A00023F00E030B6090F84010C36B02FA01F1BC
:1011B0005960826380F8212080F82090016BE2E77B
:1011C000BDE8F09F080002401C00024030000240D1
:1011D00044000240580002406C00024030B538B371
:1011E000001D144950F8043C14221944B1FBF2F1DB
:1011F0008900C16310498163022141771A6843F66F
:10120000F0718A43D0E900142143D0E902452C4310
:1012100021430469214344692143846921431143E3
:10122000196000214163012242770177084630BDF1
:10123000012030BDF8FFFDBF0000024070B504463C
:1012400090F82000002501280CD0012084F820000F
:1012500094F821600020012E06D084F82000022599
:10126000284670BD022070BD022684F82160A0636C
:101270002068066826F0010606602046FFF7B8FAE7
:10128000E06A00282068016802D041F00E0106E003
:1012900021F0040101602068016841F00A01016049
:1012A0002068016841F001010160D9E770B504468A
:1012B00000F004F90546601C02D00448007804449C
:1012C00000F0FCF8401BA042FAD370BD3C000020A7
:1012D0002DE9F84FDFF8B0910024A9F1040B234663
:1012E0000F2709F1040AABF1040EC6E00125A54061
:1012F0002A40AA4276D1DFF894C14E68A6EB0C08CA
:1013000066452BD00DDC032E34D005DC36B3012E20
:1013100019D0022E2FD11BE0112E16D0122E2AD159
:1013200019E0B8F5881F19D006DCB8F5803F15D054
:10133000B8F5801F1FD111E0B8F5001F0ED0B8F529
:10134000041F18D10AE0CB6815E0CB681B1D12E022
:10135000CB6808330FE0CB680C330CE08B682BB103
:10136000012B4FF0080303D0456104E0042302E0A1
:10137000056100E00023FF2A01D8064601E000F1E4
:1013800004064FEA840501D9A5F12005D6F80080AE
:1013900007FA05FC28EA0C0803FA05F548EA0508EF
:1013A000C6F800804D68ED0066D5394DAE6946F04F
:1013B0000106AE61AD6924F0030605F00105009554
:1013C000344D06EB050CDCF80850A607360F07FA7B
:1013D00006F825EA0805DFF8C080404503D14FF044
:1013E000000817E048E0DFF8B480404502D14FF034
:1013F00001080FE0DFF8A880404502D14FF0020855
:1014000008E0DFF8A080404502D14FF0030801E07A
:101410004FF0040808FA06F848EA0508CCF80880F6
:101420004D68D9F80060ED02002D4D4601DA1643F3
:1014300000E096432E604D68DAF80060AD02002DA2
:10144000554601DA164300E096432E604D68DBF8FE
:101450000060AD03002D5D4601DA164300E09643BF
:101460002E604D68DEF80060ED03002D754601DA50
:10147000164300E096432E60641C0A6832FA04F5B5
:101480007FF434AFBDE8F88F08040140000011106C
:10149000001002400000014000080140000C014023
:1014A00000100140001401408068084000D0012075
:1014B00070470AB1016170470904FBE70148806881
:1014C000704700003C00002070B5040025D094F85F
:1014D0003D00002520B984F83C50204600F0B2F8C9
:1014E000242084F83D002068016821F0010101609A
:1014F0002068016841F4004101602068016821F41E
:101500000041016000F0C4FA4A4A6168914201D882
:10151000494900E04949884201D2012070BD48494B
:101520002368B0FBF1F15E6826F03F060E435E6073
:101530006368934206D94FF4967359434FF47A7314
:10154000B1FBF3F12368491C1E6A26F03F063143C4
:101550001962616891420AD84900401EB0FBF1F05F
:10156000401CC0F30B0004281ED204201CE0A3681A
:10157000F3B301EBC10202EB0116421EB2FBF6F21D
:10158000521C42F48042120549D093B301EBC102D0
:1015900002EB0111401EB0FBF1F0401CC0F30B0048
:1015A00040F4804040F400402168CA694CF6FF7363
:1015B0009A431043C861D4E90710014320680268C8
:1015C00022F0C00211430160D4E903010143206805
:1015D000826848F2FF339A4311438160D4E90501E0
:1015E00008432168CA6822F0FF021043C86001E086
:1015F0000EE016E02068016841F0010101602564F9
:10160000202084F83D00256384F83E50002070BD02
:1016100001EB4106421EB2FBF6F2521CB3E7012079
:10162000C2E701EB4101401EB0FBF1F0401CC0F3EA
:101630000B00B7E7A086010080841E0000093D0072
:1016400040420F0010B586B0002100910191029137
:10165000039100680F4988421AD10F4CA06940F0ED
:101660000800A061A069694600F008000490C0204D
:10167000009012200190032003900848FFF728FEF5
:10168000E06940F40010E061E06900F400100490AB
:1016900006B010BD0054004000100240000C014094
:1016A0000248816802781144816070473C00002044
:1016B000074810B5016841F010010160032000F0F7
:1016C000A7F80F2000F006F800F050F8002010BD39
:1016D0000020024030B505461F4887B0C16941F07F
:1016E0000401C161C06906A900F00400009001A8CE
:1016F00000F0AEF90498B0B100F0CAF94000174903
:10170000174AB0FBF1F11748491E0260416040F2F0
:10171000E7320021C0E903218160816100F0C8FB4C
:10172000040003D015E000F0B3F9E8E70D4800F03D
:101730000BFC04000DD11E2000F03CF8102D07D248
:10174000002229461E2000F043F80748056000E00B
:10175000012407B0204630BD0010024040420F0077
:1017600000080040F8070020400000200F4808B59E
:10177000816941F001018161816901F001010091FC
:10178000C16941F08051C161C069002200F0805000
:1017900000900F21901E00F01BF80548416821F0D1
:1017A000E06141F00071416008BD0000001002409E
:1017B0000000014000280ADB00F01F0201219140D7
:1017C00040094FF0E02202EB8000C0F800117047A2
:1017D000F0B40E4B1B680C46C3F30223C3F107059C
:1017E000042D00D90425191D072901D2002300E08A
:1017F000DB1E012606FA05F1491E214099409E4054
:10180000761E16403143F0BC01F042BB0CED00E007
:10181000064900F0070208684FF6FF03184040EA47
:101820000220034A10430860704700000CED00E0FE
:101830000000FA052DE9F84305460078364CC0074C
:1018400055D0E0690026C00008D4E06940F080501F
:10185000E061E069012600F0805000902F480168A7
:10186000C90512D40168804641F480710160FFF718
:1018700025FE074605E000BFFFF720FEC01B6428D9
:1018800023D8D8F80000C005F6D5206A10F44070BF
:1018900021D0A98801F4407181421CD0206A2049DE
:1018A000012220F440700A6000220A602062C00712
:1018B00011D0FFF703FE074641F2883808E000BF69
:1018C000FFF7FCFDC11B414502D90320BDE8F883A9
:1018D000206A8007F4D5206A696820F440700843C4
:1018E0002062012E03D1E06920F08050E061287869
:1018F000800705D56068A96820F44040084360600F
:101900002878C00605D56068E96820F4800008439F
:1019100060600020DAE70000001002400070004024
:10192000400442422DE9F0470F46050061D0434E86
:10193000306800F00700B84209D2306820F0070094
:1019400038433060306800F00700B84251D1286851
:101950003B4C810712D5400703D5606840F4E06036
:1019600060602878000703D5606840F460506060CC
:101970006068A96820F0F000084360602878C0071C
:1019800028D06868012810D02168022810D0890763
:1019900000292EDA616821F0030101436160FFF73D
:1019A0008DFD804641F288390DE021688903EFE71B
:1019B0008901EDE7FFF782FDA0EB0801494502D957
:1019C0000320BDE8F0876068696800F00C00B0EBA8
:1019D000810FEFD1306800F00700B8420BD93068B2
:1019E00020F0070038433060306800F00700B8424C
:1019F00001D00120E5E72878400705D56068E9684F
:101A000020F4E060084360602878000706D560682D
:101A1000296920F4605040EAC100606000F058F885
:101A20006168084AC1F30311515CC8400649086067
:101A300006480068FFF74EFE0020C2E70020024083
:101A4000001002404E4800084800002040000020DE
:101A50000F2202600C4A536803F00303436053688B
:101A600003F0F0038360536803F4E063C3605268DB
:101A70004FF4E06303EAD20202610448006800F018
:101A8000070008607047000000100240002002407C
:101A90000448054900684968044AC1F30221515CC1
:101AA000C840704748000020001002405E4800080F
:101AB0000448054900684968044AC1F3C221515CE1
:101AC000C840704748000020001002405E480008EF
:101AD0000E4A51680E4801F00C03042B11D0082B5C
:101AE0000FD10C48C1F38343C903C05C0AD55168C8
:101AF000084AC1F34041921E515C054A5043B0FB75
:101B0000F1F070470449484370470000001002405C
:101B100000127A003E48000800093D002DE9F84F08
:101B2000040070D02078C24DC00749D06868C0F367
:101B30008100012807D06868C0F38100022809D11C
:101B40006868C00306D52868800339D56068002816
:101B5000E7D035E06068B0F5803F0BD010B1B0F54C
:101B6000A02F11D0286820F480302860286820F445
:101B7000802002E0286840F480302860606890B1DE
:101B8000FFF79CFC06460AE0286840F480202860A5
:101B9000F0E700BFFFF792FC801B642874D8286828
:101BA0008003F7D50CE0FFF789FC064605E000BF8F
:101BB000FFF784FC801B6428F0D828688003F7D4E2
:101BC00020789C4E80074FF001094FF0000839D56E
:101BD000686810F00C0F07D06868C0F38100022815
:101BE00009D16868C00306D42868800714D5206925
:101BF000012808D110E02069B0B1C6F80090FFF7C5
:101C00005DFC074605E00EE1FFF758FCC01B02280B
:101C1000C4D828688007F7D52868616920F0F800E3
:101C200040EAC10028600DE0C6F80080FFF746FCDE
:101C3000074604E0FFF742FCC01B0228AED8286824
:101C40008007F7D4207800072ED57B48A169E1B141
:101C5000C0F80090FFF732FC074604E0FFF72EFCC7
:101C6000C01B022810D8686A8007F7D573484FF464
:101C7000FA510068B0FBF1F0009000BF0098411EDF
:101C800000910028F9D10FE082E0C0F80080FFF752
:101C900015FC074605E000BFFFF710FCC01B02283B
:101CA00076D8686A8007F7D42078400761D5E8695C
:101CB0000027C00008D4E86940F08050E861E86976
:101CC000012700F0805000905D480168C90513D4D9
:101CD0000168834641F480710160FFF7EFFB8246A3
:101CE00006E000BFFFF7EAFBA0EB0A0064284FD82C
:101CF000DBF80000C005F5D5E06801280AD008B17E
:101D0000052813D0286A20F001002862286A20F0F4
:101D1000040002E0286A40F001002862E06841F215
:101D2000883B98B1FFF7CAFB82460BE0286A40F077
:101D300004002862EEE700BFFFF7C0FBA0EB0A013A
:101D400059455CD8286A8007F6D50CE0FFF7B6FB4A
:101D5000824605E0FFF7B2FBA0EB0A0159454ED8D9
:101D6000286A8007F6D4012F03D1E86920F080505B
:101D7000E861E06990B36968C1F38101022945D047
:101D80000228C6F8608004D0FFF798FB044639E0CB
:101D900035E0FFF793FB074605E000BFFFF78EFB3A
:101DA000C01B02282BD828688001F7D4206AB0F520
:101DB000803F05D16868A16820F40030084368605E
:101DC000D4E908010843696821F474110843686084
:101DD000C6F86090FFF772FB044606E025E000BFFE
:101DE000FFF76CFB001B022809D828688001F7D593
:101DF0001BE000BFFFF762FB001B022802D9032093
:101E0000BDE8F88F28688001F4D40EE00128F7D0EF
:101E10006868226A00F48031914204D1616A00F45A
:101E20007010884201D00120EAE70020E8E70000B6
:101E3000001002400000424280044242480000205C
:101E4000007000407047704770B590F83C20012A40
:101E500025D0012480F83C40022280F83D20036810
:101E60005A689D6822F070060A6832435A600D4B2A
:101E700002689A4208D0B2F1804F05D00A4B9A42CC
:101E800002D00A4B9A4204D1496825F080031943D5
:101E900091603C30447000210170084670BD022002
:101EA00070BD0000002C014000040040000800400C
:101EB00010B5040003D094F83D0010B107E00120F4
:101EC00010BD002084F83C00204600F015F80220E8
:101ED00084F83D00211D206800F042FE01203D34C1
:101EE00060726070A070E07020716071A071E0712C
:101EF00020722070002010BD08B501681048B1F1B3
:101F0000804F14D00F4A914219D1C16941F00201AA
:101F1000C161C069002200F00200009005211D206F
:101F2000FFF756FCBDE808401D20FFF743BCC16920
:101F300041F00101C161C06900F00100009008BDDD
:101F4000001002400004004090F83D10012901D02B
:101F500001207047022180F83D100168CA6842F0F4
:101F60000102CA6000680B49884208D0B0F1804F76
:101F700005D00949884202D00849884204D18168C5
:101F800001F00701062903D0016841F00101016059
:101F900000207047002C0140000400400008004071
:101FA00070B5044690F83C000025012817D00126A2
:101FB00084F83C60022084F83D002068826822F0AA
:101FC000770222F47F4282600868502837D00DDC07
:101FD00020284ED005DC88B3102811D149E002201A
:101FE00070BD302845D040280AD13AE060282ED074
:101FF00070280CD0B0F5805F03D0B0F5005F11D031
:1020000001253C34667000202070284670BD4A6867
:10201000083120680AC900F0ECFD2068816841F0B1
:10202000770109E04A68083120680AC900F0E1FD3B
:102030002068816841F480418160E2E719E0CA6864
:102040004968206800F08AFE5021206806E0CA68CE
:102050004968206800F093FE6021206800F0D3FDFD
:10206000CFE7CA684968206800F078FE4021206800
:10207000F4E7226801461046F0E770472DE9F04189
:1020800004460068C66805694FF00007A90713D524
:10209000B10711D5F91E0161012020772068806900
:1020A0008007204602D0FFF7E8FF04E000F0A2F826
:1020B000204600F02BF92777680716D5700714D54E
:1020C00021686FF004000861022020772068806991
:1020D00010F4407F204602D0FFF7CFFF04E000F06D
:1020E00089F8204600F012F92777280715D5300720
:1020F00013D521686FF0080008610420207720685C
:10210000C0698007204602D0FFF7B7FF04E000F067
:1021100071F8204600F0FAF82777E80616D5F006A1
:1021200014D521686FF0100008610820207720681E
:10213000C06910F4407F204602D0FFF79EFF04E004
:1021400000F058F8204600F0E1F82777E80708D0BB
:10215000F00706D021686FF001000861204600F00A
:1021600025F9280608D5300606D521686FF08000CD
:1021700008612046FFF766FE680608D5700606D59A
:1021800021686FF040000861204600F019F9A806A8
:102190000AD5B00608D521686FF0200008612046F6
:1021A000BDE8F041FFF74FBEBDE8F08100B585B056
:1021B000002100910191029103910068B0F1804FDC
:1021C00011D10A48816941F0040181618069694641
:1021D00000F0040004900120009002200190039080
:1021E0000348FFF775F805B000BD0000001002407D
:1021F00000080140704770B5044690F83C00002686
:102200000D4601280FD0012084F83C006AB1042A51
:102210001DD0082A2FD00C2A3FD00126002084F898
:102220003C00304670BD022070BD206800F0F4FC18
:102230002068816941F0080181612068816921F08D
:1022400004018161206881692A69114311E02068D5
:1022500000F00AFD2068816941F400618161206815
:10226000816921F480618161206881692A6941EA7C
:1022700002218161D2E7206800F022FD2068C16957
:1022800041F00801C1612068C16921F00401C16108
:102290002068C1692A69114311E0206800F03CFD03
:1022A0002068C16941F40061C1612068C16921F4FD
:1022B0008061C1612068C1692A6941EA0221C16166
:1022C000ACE710B5040003D094F83D0010B107E06E
:1022D000012010BD002084F83C00204600F015F8D5
:1022E000022084F83D00211D206800F039FC012007
:1022F0003D3460726070A070E07020716071A071F8
:10230000E07120722070002010BD704770470000FF
:1023100010B50446022249B104290ED0082913D071
:1023200094F84100012816D0012010BD94F83E0019
:102330000128F9D184F83E200FE094F83F000128ED
:10234000F2D184F83F2008E094F840000128EBD156
:1023500084F8402001E084F841200122206800F048
:102360003BFC0F492068884203D1426C42F4004292
:1023700042642068884208D0B0F1804F05D00949F6
:10238000884202D00849884204D1816801F00701DF
:10239000062903D0016841F001010160002010BD51
:1023A000002C014000040040000800400068034980
:1023B000884201D1FFF774B970470000000800405F
:1023C000704770B5040004D094F84100002510B1A6
:1023D00006E0012070BD84F84050204600F024F84B
:1023E000242084F841002068C16821F40051C160B4
:1023F000204600F0D7FC2068016921F4904101617A
:102400002068416921F02A0141612068C16841F4D6
:102410000051C1606564202084F8410084F84200C6
:102420006563002070BD000070B586B00024009484
:10243000019402940394234E03682349022003224B
:10244000224DB34219D18B6943F480438B618B6970
:1024500003F4804304938B6943F004038B6189691F
:10246000039201F0040104910102CDE900106946D4
:102470002846FEF72DFF28151BE0154EB3421FD14D
:10248000CB6943F40033CB61CB6903F4003304938D
:102490008B6943F004038B618969039201F00401A5
:1024A00004910421CDE9001069462846FEF710FF8B
:1024B0000820CDE90004694628460294FEF708FF8B
:1024C00006B070BD00380140001002400008014015
:1024D0000044004090F84230202B01D00220704789
:1024E00021B11AB10023036300F0A2BC01207047A0
:1024F000FEE7000008480021017041708170C17042
:10250000017141718171C171017241728172C0F8B2
:102510000D10C0F811107047B80000201CB504223F
:1025200069466A48FEF7DAFA6948FEF779F9674EB4
:10253000684FDFF8A4B1694D012440F6FF7A183ED8
:102540004FF400413846FEF7AFFF20B9AC70317848
:1025500024EA01003070307801287DD181033846AB
:10256000FEF7A2FF28B9AC707078401C00F00300A1
:1025700070704FF400513846FEF796FF40B9AC70CA
:10258000B07834EA0000B07002D1EC7002206871BB
:102590004FF400715846FEF787FF40B9AC70F178F0
:1025A00034EA0100F07002D1EC70032068714FF43E
:1025B00080715846FEF778FF48B9AC70317934EA3B
:1025C0000100307103D00020E87004206871BDF86C
:1025D0000000FA214843B0FBFAF0B279904208D0EB
:1025E000AC70C0B2B0716A78904202D9EC70002031
:1025F0006871BDF8022064204243B2FBFAF07179A1
:10260000884206D0C0B2AC707071142801D2EC7050
:102610006C71BDF80400A968091A00D54942642903
:1026200007DCBDF80620E968891A00D5494264290B
:102630003EDDAC70A860BDF80610E960894601F087
:10264000D5FE4FF08A4101F0BFFF8046484601F0B9
:10265000CDFE4FF08A4100E032E001F0B5FF414687
:1026600000F02CFC1E4901F0D9FE01F069FD1D4A65
:102670001D4B01F0B9FB01F085FB10F1FF4F02D3B8
:102680001A4901F089FD1A490144B1F5530F01D2ED
:10269000B4720DE017490144B1F5B40F01D2022024
:1026A00005E015490844B0F5721F0DD20320B07241
:1026B0000749A8314868C6F80D000868C6F8110037
:1026C000012000F0DBFD3BE70420F0E7D000002014
:1026D0000C02002000100140000C0140000000200E
:1026E00000003443182D4454FB2109400000B4433A
:1026F0000000CCBD0000F9BC00009FBC3EB500212D
:102700002148009101911F4A029102609215826056
:102710000173017504244FF460220461C2614160B9
:10272000FEF706F908B172B6FEE70120CDE90040D8
:102730000725694602951448FEF778F808B172B685
:10274000FEE7052000900220019069460E48FEF742
:102750006DF808B172B6FEE70620009003200190E4
:1027600069460948FEF762F808B172B6FEE7CDE99E
:10277000005469460448FEF759F8002801D072B6A3
:10278000FEE73EBD00240140D00000200E4810B5F9
:102790000C4901600921416000214FF40032816041
:1027A000C0E903124FF4401242610176417681760E
:1027B000C17601774177FEF778FB002801D072B629
:1027C000FEE710BD00640040000100202DE9F04349
:1027D00085B000242D4800940194029403948169EB
:1027E00041F010018161816901F01001049181695A
:1027F00041F020018161816901F02001049181692A
:1028000041F004018161816901F004010491816951
:1028100041F0080181618069DFF8749000F00800E0
:102820004FF607460490002231464846FEF741FE27
:10283000DFF860804FF48077002239464046FEF78B
:1028400038FE4FF4604001258DE83100694612489A
:10285000FEF73EFDCDE900650226CDE90246694658
:102860004846FEF735FD00970396CDE901546946C9
:102870004046FEF72DFD4FF440708DE8310069466B
:102880004846FEF725FD05B0BDE8F0830010024084
:10289000000C0140000801400010014010B58EB04E
:1028A00000240794089409940A940B941C21684608
:1028B0000C94FDF74CFD1E484FF08041016047210C
:1028C000C0E9011444F61F61C0E90314802181614D
:1028D000FFF7EEFA08B172B6FEE74FF480500790AA
:1028E00007A91348FFF75CFB08B172B6FEE7104872
:1028F000FFF7E7FC08B172B6FEE70B940BA90C4892
:102900000C94FFF7A1FA08B172B6FEE76020CDE99A
:10291000000402940022694605480494FFF76BFC0A
:1029200008B172B6FEE70248FFF740FC0EB010BDDA
:102930007C01002010B586B0002417480094019453
:1029400002940394049413490594016041F61F41D5
:10295000C0E9011440F2E731C0E903148461FFF7D4
:10296000A7FA08B172B6FEE74FF4805000906946AE
:102970000948FFF715FB08B172B6FEE7049404A9F5
:1029800005480594FFF760FA002801D072B6FEE70B
:1029900006B010BD00040040C4010020FEE7FEE7C1
:1029A000012000F06BFCFBE72DE9FF412C4C2B488C
:1029B000DFF8B080606315200321A0632171242219
:1029C000C8F800200822C8F81020002700978DF8CA
:1029D00000108DF801008DF8027001208DF80300C1
:1029E00041464546019704F130036A46A1F5CE7091
:1029F000FEF7FAF80A20FEF759FC2520286000258A
:102A000026E0401E02970397854204D1A16BA5EBF7
:102A1000C500084400E00720C6B28DF80850616B7D
:102A2000C5EBC500014432460DF10900FDF718FC65
:102A30000B4B0C49761C303302AAA1F5CE70C8F8B6
:102A40001060FEF7D1F80A20FEF730FC6D1CEDB2E5
:102A500020798542D5D3BDE8FF810000B800002071
:102A6000000000209C02002078B14FF4FA7250431D
:102A7000FA22B0FBF2F044290AD0A0F2DC50404226
:102A800080B2054909684863704740F2DC50F8E7B6
:102A900000F2DC50F4E700007C010020012000F08F
:102AA000EDFBFBE710B5502080F31188BFF34F8F8B
:102AB000BFF36F8F01F096F818B104494FF08050C2
:102AC0000860002080F3118810BD000004ED00E0D4
:102AD00030B593B028216846FDF739FC14210AA8C7
:102AE000FDF735FC002501200F9510951195010487
:102AF00012958DE8230004904FF4E010CDE9081002
:102B0000022407946846FFF709F808B172B6FEE799
:102B10000AA90F2031C14FF48060CDE90D050221D3
:102B20000AA8FEF7FFFE08B172B6FEE74FF40040B8
:102B300011900F940FA8FEF77DFE002801D072B609
:102B4000FEE713B030BD70470148FFF797BA0000A9
:102B5000C40100200148FFF791BA0000F8070020E7
:102B6000F0B50268194B1A4C1A4D4FF08047984245
:102B700005D0B84203D0A04201D0A84203D122F030
:102B800070064A683243984205D0B84203D0A0424A
:102B900001D0A84203D122F44074CA6822434C6990
:102BA00022F08002224302608A68C2620A6882625E
:102BB000984201D109690163012141610169C90795
:102BC00003D0016921F001010161F0BD002C014039
:102BD000000400400008004010B501F01F0301216F
:102BE000046A99408C430462016A9A40114301626D
:102BF00010BD10B5846842EA032224F47F440A43DE
:102C00002243826010BD826822F070020A4342F0C3
:102C1000070181607047000030B5036A026A22F044
:102C2000010202624268846924F073050C682C4337
:102C300023F002058B682B430A4DA8420BD123F0E9
:102C40000805CB6822F440722B434D6923F004033E
:102C500015438A692A43426084614968416303627B
:102C600030BD0000002C014030B5026A036A23F039
:102C700010030362436884690D6824F4E64444EA5F
:102C800005248D6822F0200242EA05120B4DA8426D
:102C90000ED1CD6822F0800242EA05124D6923F47C
:102CA000406343EA85038D6922F0400243EA8503CD
:102CB0004360846149688163026230BD002C014039
:102CC00030B5036A026A22F4807202624268C46903
:102CD00023F4007324F073050C682C438D6843EAD9
:102CE00005230C4DA8420ED1CD6823F4006343EABE
:102CF00005234D6922F4405242EA05128D6923F4FE
:102D0000806342EA05124260C4614968C16303629C
:102D100030BD0000002C014030B5046A026A22F484
:102D2000805202624268C3690D6823F4E64343EAB5
:102D300005238D6824F4005444EA0534064DA84266
:102D400004D14D6922F4804242EA85124260C36197
:102D500049680164046230BD002C014010B5036A6B
:102D6000046A24F001040462846924F0F00444EA53
:102D7000021423F00A020A438461026210BD10B5F6
:102D8000036A046A24F010040462846923F0A00337
:102D900024F4704444EA023243EA01118261016280
:102DA00010BD000010B5044600680169E26821F416
:102DB0004051114301612169A068084361690843DA
:102DC0002168CA6841F20C639A430243CA602068D2
:102DD0004169A26921F4407111434161134920689E
:102DE000884202D1FEF764FE01E0FEF751FE00EBDF
:102DF000C00101EB0010616864228900B0FBF1F1B1
:102E0000B1FBF2F06FF01803434301EB830332216F
:102E100001EB0311B1FBF2F101F0F00202EB001043
:102E200001F00F0108442168886010BD003801409E
:102E300081628285C28500214164222180F842108E
:102E4000016921B10168CA6842F48072CA600168F0
:102E50004A6942F001024A610068C16841F02001FC
:102E6000C16000207047FEE74100080218BF04203F
:102E70000A0E18BF40F001004FF07F4232EA010114
:102E800008BF40F00200012808BF0520704700007D
:102E90000907090E002801DB034A02E0034A00F09B
:102EA0000F0081547047000000E400E014ED00E0E2
:102EB0006FF05E01080701F02EBC00002DE9F0471D
:102EC0004FF0684202EB40030C460546B3F1654FF4
:102ED0003CBF02EB4102B2F1654F3FD34FF07F425E
:102EE000B2EB400F28BFB2EB410F03D2BDE8F04771
:102EF00001F052B940EA01035B0008BF44F0FF4112
:102F00000AD0B2EB400F08BFB2EB410F06D125F05B
:102F1000804024F0804105460C461FE0B2EB400F94
:102F200012BF5FEA410245F0FF4004F0004115D0B6
:102F30004FEA410292EA400310D4002AB4BF4FF096
:102F40003E564FF09F46314601F068FA054631463D
:102F5000204601F063FA044628462146C0F3C753D1
:102F6000C1F3C7529A1A1B2A06DD10F0004F14BF96
:102F700054485548BDE8F08712F11A0F17DA11F0DE
:102F8000004F06D010F0004F0CBF50485048BDE82D
:102F9000F0872146284601F067F90446FFF764FFF1
:102FA000042808BFFFF784FF2046BDE8F0874200F1
:102FB000B2EB410F25D910F0004F19BF454F464ED7
:102FC000464F474E224685F0004415460A4680F09B
:102FD000004110460A1A5200B2F1807F3ED24840AA
:102FE0004049DFF804A110F0004F18D04FF03F48DF
:102FF000384601F0E9FA07465146304601F0E4FA56
:1030000017E011F0004F04BF00263746E2D010F061
:10301000004F19BF354F364E364F374EDAE74FF077
:103020007C58384601F0B8F807465146304601F062
:10303000B3F806464146284601F0F0F9214601F072
:10304000ABF882462146404601F0E8F9294601F0F6
:10305000B1FA514601F008F9044604E02146284639
:1030600001F002F90446014601F0D8F980462349EF
:1030700001F0D4F9224901F08FF8414601F0CEF970
:10308000204901F089F8414601F0C8F91E4901F0D4
:1030900083F8414601F0C2F91C4901F07DF805466C
:1030A0004146204601F0BAF9294601F0B7F9314608
:1030B00001F072F8214601F06FF83946BDE8F0479B
:1030C00001F06AB8DB0FC9BFDB0FC93FDB0F494016
:1030D000DB0F49C00000C9BF22AAFDB90000C93FEB
:1030E00022AAFD390060ED3EC30ACE37000049C078
:1030F00022AA7DBA0000494022AA7D3A2DAD65BDC5
:103100008FB8D53D0FB511BE61C84C3EA8AAAABE66
:10311000ACB0FEF7CDFAFFF7DBFCFFF757FB4B48EF
:10312000416941F0010141614069002200F0010064
:103130002A9005210B20FEF74BFB0B20FEF73AFBF4
:10314000FFF724FBFFF7DAFA424841490024016007
:103150004149C0E901144FF48041C0E90341446191
:103160008461C4610462FEF7AFF908B172B6FEE78C
:1031700038483A49E4304FF416550160C0E901542B
:103180000C26C460C0E904468461C461FFF719F9E4
:1031900008B172B6FEE7334831490160C0E9015415
:1031A000C460C0E904468461C461FFF70AF908B14C
:1031B00072B6FEE7FFF772FBFFF7BCFB1C222A4941
:1031C0006846FDF792F80021684600F064F8274C45
:1031D00025491C22A0611C3107A8FDF786F80021B3
:1031E00007A800F058F82049E0611C2238310EA8E9
:1031F000FDF77BF800210EA800F04DF81A49206277
:103200001C22543115A8FDF770F8002115A800F014
:1032100042F8154960621C2270311CA8FDF765F860
:1032200000211CA800F037F80F49A0621C228C3145
:1032300023A8FDF75AF8002123A800F02CF8E0623B
:10324000FFF758F900F022F8FEE7000000100240F6
:103250000054004028010020A086010000380140F1
:103260000044004054020020944700080000002061
:103270000021842800D0C11C0846704710B50028E2
:1032800000D1012000F04AFB002010BD10B500F075
:103290006DFB002010BD30B585B004460D46616958
:1032A000B4F90800002910D0A16971B1FFF7E0FF5F
:1032B0006269A1690192029100902B4622692168FE
:1032C000606800F05EFC049010E0FFF7D1FF04A9F5
:1032D00001910090208A2B4682B22168606800F03C
:1032E0001BFC012802D005B0002030BD049805B0B9
:1032F00030BD00002DE9F04104460F46184EF56838
:103300003068001D00F03CFA48B93068012190F89F
:103310002C0001FA00F0316921EA00003061601CE4
:1033200007D137B13068BDE8F041011D0D4800F00C
:103330006EBA2C4430684460AC4206D23068011D3D
:10334000B06BBDE8F04100F047BA3068011D706B0A
:1033500000F042FAB06A844200D2B462BDE8F08163
:103360004C0000201C09002070B5044600F05CFAF7
:103370001C4DA868401CA860286810B1686938B165
:103380000CE02C60A868012808D100F0EDF805E0F9
:103390002868E16AC06A884200D82C60686A401CCC
:1033A0006862E06A01212A698140114329610E495E
:1033B00000EB800001EB8000211D00F028FA00F0F6
:1033C00053FA686900280CD02868E16AC06A88420C
:1033D00007D206494FF080500860BFF34F8FBFF30C
:1033E0006F8F70BD4C0000204008002004ED00E00D
:1033F00070B50D4C6068002815D00C4E00F014FA22
:10340000F068C568281D00F0BBF9A068401EA060E8
:103410006068401E606000F027FA284600F008F857
:1034200060680028EAD170BD4C0000200809002027
:1034300010B5044694F8511000290BD0012911D081
:10344000022914D0502080F31188BFF34F8FBFF3AF
:103450006F8FFEE7206B00F01DFA2046BDE810409C
:1034600000F018BA2046BDE8104000F013BA10BDB5
:103470004FF48051104810F0070F06D0C01D20F007
:1034800007000D49411AC1F580510C4A1060002314
:1034900053600144083921F00701183A11604B606C
:1034A0000B600B1A436001604068906050604FF001
:1034B000004050617047000030090020A00000204B
:1034C000074E4FF08054074DFFF792FF30680128F8
:1034D000FAD92C60BFF34F8FBFF36F8FF4E7000072
:1034E0004008002004ED00E02DE9F0478146099EE8
:1034F000089D0A9C9A46521E206B00EB820020F029
:103500000708002700290CD0002023180A5C83F844
:1035100034200A5C12B1401C1028F6D384F84370A2
:1035200001E084F83470072D00D30625E562656458
:10353000A764201D00F04DF904F1180000F049F9CE
:103540002461C5F10700A0616462E76484F85070EB
:1035500052464946404600F001F92060002E00D056
:103560003460BDE8F087000070B500240F4D04EB17
:10357000840005EB800000F021F9641C072CF6D3D1
:103580000B4800F01BF90B4800F018F90A4800F04E
:1035900015F90A4800F012F9094800F00FF9094836
:1035A000034941631431816370BD0000400800206D
:1035B000CC080020E0080020F408002008090020C2
:1035C0001C0900204C00002010B4144900E01146F2
:1035D0000A688242FBD34B6803EB010C844503D19C
:1035E00040681844486008460C68D0F804C00CEBEA
:1035F0000003A3420CD10A4B1B689A4206D05268C2
:10360000624442600A681268026002E0036000E0FF
:103610000260814200D0086010BC7047A00000200A
:10362000880000200749486B0068002805D0486BD7
:10363000C068C0684068886270474FF0FF30886299
:10364000704700004C00002009484068401C07D02B
:10365000502080F31188BFF34F8FBFF36F8FFEE7C9
:10366000502080F31188BFF34F8FBFF36F8FFEE7B9
:10367000A80000202DE9F0410546002600F0BAF927
:10368000344F386808B9FFF7F3FE7869054251D125
:103690009DB1083515F0070F0FD005F00700C0F1F8
:1036A0000800054415F0070F07D0502080F311885B
:1036B000BFF34F8FBFF36F8FFEE7002D3AD07868CE
:1036C000854237D824490846046801E0214604466B
:1036D0006068A84202D220680028F7D13868844286
:1036E00028D0086800F10806206808606068411B5F
:1036F00010290FD9601910F0070F07D0502080F360
:103700001188BFF34F8FBFF36F8FFEE74160656095
:10371000FFF75AFF61687868401A7860BA6890428B
:1037200000D2B86078690843606000202060F868C3
:10373000401CF86000F0C0FA16F0070F07D05020C8
:1037400080F31188BFF34F8FBFF36F8FFEE73046D2
:10375000BDE8F08188000020A0000020001F4FF08D
:1037600080730360001F21F001010160001F034905
:1037700001601438026020387047000049360008A4
:103780000169436882689A60836842685A604A683F
:10379000824201D182684A60002202610868401EAC
:1037A0000860086870470000034B036003F1540091
:1037B0000860802010607047A405002000F1080117
:1037C00041604FF0FF328260C16001610021016001
:1037D000704700210161704710B4D1F800C01CF19E
:1037E000010202D000F1080202E0026904E01A4678
:1037F00053681C686445FAD953684B6099608A60C5
:10380000516008610168491C016010BC7047426842
:103810004A6093688B6093685960916008610168A1
:10382000491C016070470000502080F31188BFF3ED
:103830004F8FBFF36F8F0A494868401C48600128CA
:103840000CD10848006810F0FF0F07D0502080F31B
:103850001188BFF34F8FBFF36F8FFEE770470000F3
:10386000A800002004ED00E009494868002806D0BF
:10387000401E4860002801D180F311887047502015
:1038800080F31188BFF34F8FBFF36F8FFEE7000007
:10389000A800002070B500282AD0A0F10804154D1A
:1038A00060686969084209D022687AB1502080F3C3
:1038B0001188BFF34F8FBFF36F8FFEE7502080F367
:1038C0001188BFF34F8FBFF36F8FFEE788436060AF
:1038D00000F090F860686968084468602046FFF767
:1038E00073FE2869401C2861BDE8704000F0E4B90F
:1038F00070BD0000880000204FF0E0200021016131
:10390000816105494FF47A720968B1FBF2F1491EF1
:1039100041610721016170474800002010B502464F
:103920000020002A12D00F48006B38B1502080F3DD
:103930001188BFF34F8FBFF36F8FFEE700F05AF887
:1039400000211046FFF7D6FC00F0B6F9002807D199
:1039500005494FF080500860BFF34F8FBFF36F8F62
:1039600010BD00004C00002004ED00E010B586B052
:1039700000240594049403AA04A905A8FFF714FFE2
:1039800005980499019102900023009415A117480D
:10399000039A00F0F6F81649C86208B1012000E069
:1039A0000020012809D0401C19D1502080F3118833
:1039B000BFF34F8FBFF36F8FFEE7502080F3118866
:1039C000BFF34F8FBFF36F8F4FF0FF30886201203E
:1039D0004861CC6006B0BDE8104000F043B806B0C6
:1039E00010BD000049444C4500000000C1340008EF
:1039F0004C0000200248016B491C01637047000025
:103A00004C000020154A106B002802D00120D06124
:103A100070470020D0611069B0FA80F0C0F11F003B
:103A20000F4900EB800051F8203073B101EB8000AA
:103A300041684968416000F10803994201D1496831
:103A400041604068C06810607047502080F3118862
:103A5000BFF34F8FBFF36F8FFEE700004C000020D5
:103A60004008002010B582B0284908780190FF2056
:103A70000870087800909DF800009DF8002000F084
:103A8000F000904207D0502080F31188BFF34F8F91
:103A9000BFF36F8FFEE79DF800001D4C00F0500053
:103AA00020700720A0609DF8000010F0800F0BD060
:103AB000A068401EA0609DF80000400000909DF8A6
:103AC000000010F0800FF3D1A068032807D0502029
:103AD00080F31188BFF34F8FBFF36F8FFEE74FF472
:103AE0004070A060019808700A48016841F47001B4
:103AF0000160016841F070410160FFF7FDFE0020A8
:103B00006060FCF753FB02B0002010BD00E400E051
:103B1000A800002020ED00E02DE9F04F85B081469F
:103B20000F9F0E9E8A4690469B464FEA8800FFF7FD
:103B3000A1FD054655B15420FFF79CFD04460CB18C
:103B4000256304E02846FFF7A5FE00E000249CB1B1
:103B5000002084F8510003905B464246514601978D
:103B6000009602944846FFF7BFFC2046FFF7FCFB97
:103B700005B00120BDE8F08F05B04FF0FF30BDE883
:103B8000F08F70B586B00646DDF828C00C9C0B9807
:103B9000002816D0ECB1542504952063022084F847
:103BA0005100002005AD0390CDF800C001950294AE
:103BB0003046FFF799FC2046FFF7D6FB059806B084
:103BC00070BD502080F31188BFF34F8FBFF36F8F0C
:103BD000FEE7502080F31188BFF34F8FBFF36F8F44
:103BE000FEE700002DE9F0470026314F386B002832
:103BF00005D0B869401CB8613046BDE8F087F86868
:103C0000451CFD609DB9786B006838B1502080F389
:103C10001188BFF34F8FBFF36F8FFEE7786BB96BDF
:103C20007963B863386A401C3862FFF7FBFCB86AF6
:103C3000DFF8808085420FD34FF00109786B006870
:103C400038B1786BC068C4686068854212D2B862C7
:103C500002E04FF0FF30B8623868C06A00EB8000C5
:103C600058F82000012800D90126F8690028C3D09F
:103C70000126C1E7201DFFF783FDA06A18B104F1FA
:103C80001800FFF77DFDE16A3A6909FA01F0104377
:103C9000386101EB810008EB8000211DFFF7B7FDC3
:103CA000E06A3968C96A8842C8D30126C6E70000BD
:103CB0004C000020400800202DE9F0470024A046D9
:103CC0002D4D286B002807D0FFF7AEFD286B401E56
:103CD0002863286B40B149E0502080F31188BFF37E
:103CE0004F8FBFF36F8FFEE7A86800283ED0234FA9
:103CF0003868012600B3A7F1B409F868C46804F174
:103D00001800FFF73DFD201DFFF73AFDE06A2A6924
:103D100006FA00F11143296100EB800009EB8000F5
:103D2000211DFFF774FDE06A2968C96A884200D343
:103D3000EE6138680028E0D10CB1FFF773FCAC6984
:103D400044B1FFF74FFF00B1EE61641E002CF8D1C3
:103D50000020A861E86948B14FF0010808494FF018
:103D600080500860BFF34F8FBFF36F8FFFF77CFD6C
:103D70004046BDE8F08700004C000020F408002019
:103D800004ED00E021F00042A2F16052B2F5801F84
:103D900001F0004328BFD2F17F6C0BD95FEA001C11
:103DA00043EAC20242EB507018BF704728BF20F0B0
:103DB00001007047B2F5801FBCBF184670474FEA3C
:103DC000410C1CF5001F02D2084600F0EEBB70B596
:103DD00000F062F900000089FFF7F6BF4FF00040E5
:103DE000A0F58000704700002DE9C04130B4DFF835
:103DF000A0C23CEA111418BF3CEA131400F0EC8096
:103E000081EA03051CEA111444EAD57418BF1CEAC0
:103E1000131500F0C780A4EB05044FF0004545EAF8
:103E2000C12145EAC32341EA505143EA525304F108
:103E30007F74994204F500344FEAC0204FEAC22251
:103E400008BF904200F09C804FEA13650FF24016C5
:103E5000765D4FEA134506FB05F7C7F1807706FB51
:103E600007F74FEAD737A7FB03687642C8F58038D3
:103E7000A7FB06CE38BFA8F1010807FB08E64FF004
:103E8000000EA6FB028CE6FB03CEDCF1000CCEF1AB
:103E9000004E38BFAEF1010EA6FB0C584FF00007E4
:103EA0004FF00005E6FB0E87A1FB08C6A0FB07CE7E
:103EB00016EB0E0645F10005E1FB076515F1E04E36
:103EC0007EBFA4F580345FEA46066D4116F1800797
:103ED00045F100054FEA17274FEA066647EA0567EE
:103EE000A6F1DE46B6F1805F4FEA15251FD93846A8
:103EF00024F0010C05EBC471BCF1FE6F01EB0C1159
:103F000002D8F0BCBDE8008124425CBF01F5801EF0
:103F10009EEAC47F02D4F0BCBDE80081244238D4BC
:103F2000F0BCA1F1C041BDE8004100F003B94FEA87
:103F3000D22242EA43524FEAD323A7FB02864FEA3A
:103F4000D02040EA415007FB03661EEA0E0F4FEAFD
:103F5000D12105FB026658BFA6EB0056B6EB005612
:103F60004FEA520E4EEAC37E18EB0E0E56EB530E7E
:103F7000BDD518EB02085E417F1C55F10005B6E780
:103F80004FF480154FF000074FF000064FF0000887
:103F9000ADE7F0BC4FF0000001F1C04101F000417D
:103FA000BDE8008111EA0C1F0CEA131500D00CE0EB
:103FB00013EA0C1F00F025804FF00000F0BC81EAEE
:103FC000030101F00041BDE80081F0BCBDE8004103
:103FD00081EA030100F0AEB8F0BCBDE8004170B565
:103FE00000F05AF8097EFC3E00F007B881EA0301B0
:103FF0004FF0000001F00041704781EA030100F03A
:1040000099B8F0BCBDE800414FF00000214970476D
:10401000FFFDFBF9F7F5F4F2F0EEEDEBE9E8E6E48D
:10402000E3E1E0DEDDDBDAD8D7D5D4D3D1D0CFCD14
:10403000CCCBCAC8C7C6C5C4C2C1C0BFBEBDBCBB4D
:10404000BAB9B8B7B6B5B4B3B2B1B0AFAEADACAB48
:10405000AAA9A8A8A7A6A5A4A3A3A2A1A09F9F9E22
:104060009D9C9C9B9A9999989797969595949393D4
:10407000929191908F8F8E8E8D8C8C8B8B8A89896B
:1040800088888787868585848483838282818180EE
:104090000000FF070000F87F0EF1020E2EF0030E65
:1040A0005EF8046B364205D4012A43EB030515F58F
:1040B000001F12D8012841EB010C1CF5001F0CD881
:1040C0000ED14FEAD17C15F5001F0CEB4C0C0CF116
:1040D000020C08BF4CEBD37C04E04FF0080C01E06D
:1040E0004FEAD37C0CEB4C0526FA05F606F00706E2
:1040F000B6F1040C06D20EEB860CBDE870404CF015
:10410000010C6047DFE80CF0090B02024FF00041A0
:104110004FF00000A1F5002170BD1946104601289E
:1041200051EB010418BFD4F5001484BF002001F046
:10413000004170BD0808A0F500114FEA3101704739
:1041400043004FEAD30C4FEA3C0C43401FBF4007EB
:104150000CF1605113F0FE4F70471CF0006F03D15B
:1041600000200CF0004170470CF0004343EA50700F
:1041700010B540EACC0000F0D2F900BF0000009278
:104180004FEA0001FFF7D6BF4FF000414FF00000AB
:10419000A1F500217047000090EA010F48BF81F0AF
:1041A000004100F11882421A3CBF801A89184FEA78
:1041B000D0524FF07F4C1CEA410FA2EBD15318BFF5
:1041C0009CEA026F00F03B804FF0004C4CEA00206C
:1041D0004CEA012121FA03FC10EB0C0C1ED202F177
:1041E000FF325FEA1C2040EBC25038BF70471CF022
:1041F0007F0F4FEA400C18BFBCF17F4F38BF7047AC
:10420000C3F12003994008BF20F00100BCF17F4FAB
:1042100038BF7047A0F1C04000F0C7B94FEA3C007A
:10422000000A40EBC25028BF1CF0FF0F4FEA400CC1
:10423000E6D018BFBCF17F4F38BF7047EAE79CEA71
:10424000026F05D010EA5C0F08BF00F00040704715
:1042500010B500F064F900BF64FBBE3E014800F0F9
:1042600028BA00BF0000C07F4FF47F0C1CEAD012B8
:104270001EBF1CEAD11392EA0C0F93EA0C0F00F058
:10428000858090EA010F48BF42F4807240F4000C30
:1042900041F400002CF07F4120F07F4000B58142C6
:1042A000A2EB03020FF2081CACEB504EC0F1000071
:1042B0009EF800E04FEA4E0E00FB0EFC38BF4900AE
:1042C0004FEA2C1C02F5FA020CFB0EF34FEACE1E4D
:1042D0004FEA112C4FEAC1210EEB635E42EB224202
:1042E0000EFB0CFC4FEA1C5300FB03114FEA112C90
:1042F0004FEA01310EFB0CFC4FEADC4C00FB0C11C9
:10430000C14228BF09184CEB03335DF804EB10EBF6
:10431000410143EBC250B2F57C0F38BF704729D53D
:1043200012F0F00F1CBF00F1C04000F000407047D9
:10433000008182838485868788898B8C8D8E8F917E
:104340009293959697999A9C9D9FA0A2A3A5A7A8A2
:10435000AAACAEB0B2B3B5B7B9BCBEC0C2C5C7C9CE
:10436000CCCED1D4D7D9DCDFE2E6E9ECF0F3F7FA32
:10437000FE0000004FEA400C0CF1807CBCF17E4F47
:1043800028BF7047B0F1C04000F00FB990EA010FAC
:104390000CEAD11348BF42F48072624538BF6345CE
:1043A00007D213F47F0F16D080EA010000F000401E
:1043B000704710B500F0B3F8097EFC3E00F005B878
:1043C00080EA010000F00040704780EA010000F040
:1043D000004000F0EAB812F47F0F04BF02487047B3
:1043E00080EA010000F0E1B80000C07F10F0004159
:1043F00048BF4042B0FA80F310FA03F2C3F19D03C4
:104400000BD051EAC35101EB1220530638BF70475D
:1044100000F1010008BF20F0010070474FF47F0C4D
:104420001CEAD0121EBF1CEAD11392EA0C0F93EAC9
:104430000C0F00F0478090EA010F48BF42F48072F1
:104440004FF0004C4CEA00204CEA012102EB030241
:10445000A0FB0113A2F50002002918BF43F00103DD
:104460005B0028BF4FEA330342EB22425FEA132C82
:104470004CEBC2502EBFBCEB436FB2F57C0F7047C4
:104480004FEA036CBCF1004F08BF20F00100B2F509
:104490007C0F38BF70470BD582F0FF0212F5803FCA
:1044A000C8BF704700F1C040D8BF00F0004070475F
:1044B00000F5000C5FEA4C0C48BF7047B0F1C040FB
:1044C00000F073B890EA010F0CEAD11348BF42F430
:1044D0008072624538BF634504D280EA010000F073
:1044E0000040704710B500F01AF800BF8900013E87
:1044F00000F007B800F009B85FEA410C5FEA1C6CF5
:1045000008D080EA010000F050B85FEA400C5FEA92
:104510001C6CF6D14FF00040A0F5800070470EF102
:10452000020E2EF0030E5EF8044B244204D44FEA30
:104530004102B2F17F4F11D84FEA4003B3F17F4FF0
:104540000CD80ED14FEAD07CB2F17F4F0CEB4C0C63
:104550000CF1020C08BF4CEBD17C04E04FF0080CCE
:1045600001E04FEAD17C0CEB4C0324FA03F404F095
:104570000704B4F1040C06D20EEB840CBDE8104025
:104580004CF0010C6047DFE80CF0070802024FF026
:104590000040A0F5800010BD0846420018BFD2F1CF
:1045A000807288BF00F0004010BDFF2141EAD0506A
:1045B000C005704780F0004090EA010F7FF5F3AD31
:1045C00081F0004100F007B890EA010F48BF81F088
:1045D00000413FF5E8AD421A04D882F00042A0EB5A
:1045E000020011444FEAD0524FF07F4C1CEA410FB9
:1045F000A2EBD15318BF9CEA026F4AD04FF0004C97
:104600004CEA00204CEA012121FA03FCB0EB0C0C2F
:104610000FD412F0FE0F36D05FEA4C001DD5001209
:1046200040EBC25038BF70471CF03F0F18BF7047B7
:104630000BE0A2F101025FEA1C2040EBC25038BF40
:1046400070471CF07F0F18BF7047C3F120039940DB
:1046500014BF401E20F00100704780084FEA12236B
:1046600008BF7047B0FA80FCA2EB0C02CCF1280C1A
:1046700060FA0CF093EA122F04BF00EBC2507047AF
:104680004FEAC3707047130A5FEADC1008BF704737
:10469000F6E79CEA026F04D010EA5C0F08BF002026
:1046A000704710B5FFF73BFF40DFF63E81F000405A
:1046B00070470CF00F03092B08BF082000F0518051
:1046C0000A2B0BD0082B18BF704708BF1CF0400FF7
:1046D0000AD04FF000004FF0000170471CF0400F6F
:1046E00018BF4FF0004070471CF0100F08D020F0AA
:1046F000704300F07F4242EAD3014FEA43707047B3
:1047000000F0604021F07F4242EA000201F07F4069
:1047100040EA727070474FF0FF0212EAD0521CBF9D
:1047200092F0FF038B42C2BFD14200EBC1507047F1
:10473000002A0AD0002B0BD0002900F00040A4BFB3
:1047400040F0FE4040F40000704700F00040704729
:1047500043024FF00B0C18BF4CF0806C7FF47EAD21
:1047600070471CF4801F11D01CF4E02F03D06FEAB7
:10477000CC31490070474FF04050EFF3008222F0F7
:10478000704242EA000282F3008870474FF0000056
:1047900070470000AA4800089D2A00080000000099
:1047A0000000000080000000000000000000000089
:1047B000664800085D0500080200000000000000D7
:1047C0008000000000000000000000008F4800088A
:1047D0001D2500080100000000000000800000000E
:1047E0000000000000000000714800080D060008ED
:1047F0000000000000000000800000000000000039
:1048000000000000804800083D060008000000008D
:104810000000000080000000000000000000000018
:104820009C480008A1290008FFFF000000000000CC
:1048300080000000000000000000000001020203F0
:104840000405060708090A0B0C0D0E0F10100000D6
:104850000000000000000102030406070809000030
:1048600000000102030443414E5F48616E646C65C1
:1048700000436F6D707574655F48616E646C6500B0
:10488000436F6E74726F6C5F48616E646C65004953
:104890006E7075745F48616E646C65004E6F74690C
:1048A00066795F48616E646C650064656661756C0D
:1048B000745461736B000000D848000800000020A9
:1048C000B80000002801000890490008B800002046
:1048D000D81E000044010008000000000000000095
:1048E00000000000000000000000000000000000C8
:1048F00000000000000000000000000000000000B8
:1049000000000000000000000000000000000000A7
:104910000000000001000000100000000000000086
:1049200000127A00000000000000000000000000FB
:104930000000000000000000000000000000000077
:104940000000000000000000000000000000000067
:104950000000000000000000000000000000000057
:104960000000000000000000000000000000000047
:104970000000000000000000000000000000000037
:1049800000000000AAAAAAAA00000000000000007F
:04000005080000ED02
:00000001FF
