:020000040800F2
:10000000781F0020CD020008634C00082944000836
:10001000614C0008791E0008235100080000000010
:100020000000000000000000000000003502000891
:100030008F2100080000000079020008614D0008CF
:10004000E7020008E7020008E7020008E7020008EC
:10005000E7020008E7020008E7020008E7020008DC
:10006000E7020008E7020008E7020008592100083B
:10007000E7020008E7020008E7020008E7020008BC
:10008000E7020008E7020008E7020008E7020008AC
:10009000E7020008E7020008E7020008E70200089C
:1000A000E7020008E7020008E7020008E70200088C
:1000B000E7020008054E0008114E0008E70200089C
:1000C000E7020008E7020008E7020008E70200086C
:1000D000E7020008E7020008E7020008E70200085C
:1000E000E7020008E7020008E702000800F002F853
:1000F00000F090F80AA090E8000C82448344AAF132
:100100000107DA4501D100F085F8AFF2090EBAE82F
:100110000F0013F0010F18BFFB1A43F0010318473B
:100120004C7300006C730000103A24BF78C878C18B
:10013000FAD8520724BF30C830C144BF04680C60ED
:10014000704700000023002400250026103A28BF35
:1001500078C1FBD8520728BF30C148BF0B60704739
:100160006E2900F0CB83702900F06281662907F0C8
:100170000280652906F0FF87672906F0FC87612960
:1001800006F0FB8703681B0A28BF41F0800169293C
:1001900000F07883642900F07583752900F072837C
:1001A0006F2900F09F84782900F02E81E92900F062
:1001B0003784E42900F03484F52900F03184EF29F4
:1001C00000F09C84F82900F02D810368DB0928BF2A
:1001D00041F08001632901F07F80732901F0848060
:1001E000E32901F08F80F32901F09480002070470B
:1001F0001FB500F08DFC04000020002106F044F83B
:10020000401C60600020002106F028F8E0601FBD5F
:1002100010B510BD01F018F91146FFF7E9FF05F020
:10022000B7F901F07FF903B4FFF7F2FF03BC01F067
:10023000BFF90000224B19680868B0E8F00F80F39E
:100240000988BFF36F8F4FF0000080F311884EF0E4
:100250000D0E70470000000006480068006880F33B
:10026000088862B661B6BFF34F8FBFF36F8F00DFB0
:1002700000BF00BF08ED00E0EFF30980BFF36F8F10
:100280000F4B1A6820E9F00F106008B54FF05000CE
:1002900080F31188BFF34F8FBFF36F8F05F01EFE01
:1002A0004FF0000080F31188BDE808401968086825
:1002B000B0E8F00F80F30988BFF36F8F704700BF7D
:1002C00050000020EFF30580704700000948804788
:1002D00009480047FEE7FEE7FEE7FEE7FEE7FEE728
:1002E000FEE7FEE7FEE7FEE704480549054A064B40
:1002F00070470000034E0008ED0000087819002048
:10030000781F0020781B0020781B0020B2F120030A
:100310000AD5C2F1200320FA02F001FA03F321FA10
:1003200002F140EA0300704721FA03F04FF00001A8
:10033000704700001CB50C46064B7B446946009094
:10034000204600F0F6FA04460020694600F004FB5F
:1003500020461CBD1B06000070B504468569006878
:10036000C10601D5302600E02026C00708D070BDA8
:10037000D4E9012130469047206A00F10100206253
:100380006D1EF5D570BD70B5044685690078C0074F
:1003900008D170BDD4E9012120209047206A00F1E6
:1003A000010020626D1EF5D570BD0000F0B40D4651
:1003B0000188090502D5234C7C4402E0214C7C4491
:1003C0000E34002100F124060BE002F00F074FEA83
:1003D0001212E75D42EA03724FEA1313775401F1F8
:1003E000010152EA0307F0D102780023120704D575
:1003F000702D06D009B1113402232246F0BC00F062
:10040000E4B910340123F8E770B504460D462146DF
:10041000106800F0A8F9024629462046BDE8704061
:100420000023C3E7D21D22F00703D3E90023BDE771
:100430000368126843F0200303600823C3610023AC
:10044000B4E700006C6F00002DE9F05F89460446B8
:100450004FF0000ADFF878B1FB44C0F820A0204636
:10046000E1688847002875D0252806D0D4E9012105
:100470009047206A401C2062F1E700265F46204634
:10048000E16888472028054608DB312D06D207EBB6
:10049000050010F8200C08B10643F0E7B00701D5BD
:1004A00026F00406C4F81CA00027C4F818A02A2DC2
:1004B00009D0284604F073FE38B304EB8708303DBA
:1004C000C8F8185019E059F8041B204604EB8702BD
:1004D0009161E1688847012F054618D1E06900283D
:1004E00020DA26F020061DE0D8F8180000EB800086
:1004F00005EB40003038C8F818002046E16888470E
:10050000054604F04CFE0028EED1012F0AD02E2D16
:1005100008D12046E16888477F1C0546022F46F037
:100520002006C4DBA069002803DA404246F0010639
:10053000A061F00701D026F010066C2D0BD0682DBD
:1005400009D04C2D39D06A2D35D0742D35D07A2D67
:1005500033D016E038E0E1682F4620468847B8429D
:10056000054609D16C2F26D04FF48060E168064320
:1005700020468847054604E06C2F1AD04FF480705F
:1005800006430DB3A5F14100192802D8203546F4E1
:1005900000664A462946204626604E46FFF7E0FDA3
:1005A00080B101280BD0F61D26F0070000F10809E4
:1005B00055E74020E4E78020D8E70020D6E706F1A1
:1005C00004094CE7284651E7206ABDE8F09F000087
:1005D000F46E000010B5431C02E010F8011B71B16D
:1005E0008107FAD14FF0013202C88C1A8C4314EA09
:1005F000C211F9D0C01A0A0603D0C01E10BDC01A1D
:1006000010BD0A0401D0801E10BD0902FCD0401E9E
:1006100010BD032A40F2308010F0030C00F015806A
:1006200011F8013BBCF1020F624498BF11F801CBF5
:1006300000F8013B38BF11F8013BA2F1040298BF5A
:1006400000F801CB38BF00F8013B11F0030300F0C4
:100650002580083AC0F0088051F8043B083A51F868
:1006600004CBA0E80810F5E7121D5CBF51F8043B6D
:1006700040F8043BAFF30080D20724BF11F8013BE0
:1006800011F801CB48BF11F8012B24BF00F8013B42
:1006900000F801CB48BF00F8012B704710B5203A95
:1006A000C0F00B80B1E81850203AA0E81850B1E82B
:1006B0001850A0E81850BFF4F5AF5FEA027C24BFE1
:1006C000B1E81850A0E8185044BF18C918C0BDE8D8
:1006D00010405FEA827C24BF51F8043B40F8043BA1
:1006E00008BF7047D20728BF31F8023B48BF11F856
:1006F000012B28BF20F8023B48BF00F8012B7047B0
:100700004FF0000200B5134694469646203922BFAA
:10071000A0E80C50A0E80C50B1F12001BFF4F7AFF5
:10072000090728BFA0E80C5048BF0CC05DF804EBD7
:10073000890028BF40F8042B08BF704748BF20F845
:10074000022B11F0804F18BF00F8012B7047704743
:100750007047704709684A0501D540B27047C9051E
:10076000FCD500B2704709684A0501D5C0B2704790
:10077000C905FCD580B2704770B50C460546012A04
:1007800005D02878800600D5EA69002302E001231D
:1007900005E05B1C934202D2E05C0028F9D1A86915
:1007A000E618C01AA861286A184428622846FFF78C
:1007B000D3FD04E0D5E9012114F8010B9047B442C0
:1007C000F8D32846FFF7DFFD70BD2DE9F0470D4651
:1007D00099469246044600F124080168880604D52B
:1007E000E06921F01001216000E00120A84202DD53
:1007F000A0EB050700E00027A16907EB050202EB6B
:100800000900A1EB0000A0612078C00602D42046B8
:10081000FFF7A2FD002608E0D4E901211AF806003E
:100820009047206A401C761C20624E45F4DB2078FD
:10083000C0060AD52046FFF78FFD06E0D4E9012166
:1008400030209047206A401C2062381EA7F1010723
:10085000F4DC07E0D4E9012118F805009047206A8C
:10086000401C2062281EA5F10105F3DC2046FFF79D
:100870008AFD2078000602D50220BDE8F08701201D
:10088000FBE700002DE9F0410646002410687529B9
:10089000314616A511D0FFF75DFF002803DAC0F13D
:1008A000000013A507E031688A0701D511A502E011
:1008B000490704D510A5012401E0FFF754FF0021EA
:1008C0000A2306F1240707E0B0FBF3F203FB120052
:1008D000303078541046491C0028F5D123462A466A
:1008E0003046BDE8F041FFF770BF00000000000097
:1008F0002D0000002B00000020000000116802689D
:10090000006A530501D508700BE0D30501D50880B6
:1009100007E0130603D5C217C1E9000201E0520641
:10092000086001207047000001694A1C02610878D4
:10093000704700B58FB0CDE901310021059105491F
:100940007944CDE9031011466846FFF77DFD0FB0ED
:1009500000BD0000E5FFFFFF0A6802F8010B0A6016
:10096000704700002DE9FF5F15468A460446DFF810
:10097000AC80F8440027D8E900103E46CDE90010CD
:1009800011E03AF816106A4602A800F039FD411C41
:1009900007D02178890603D5E269391891420ED82B
:1009A000074406F101062078800602D5E069B842C6
:1009B00005DDAE42E5DB3AF816000028E1D1A0697A
:1009C000C01BA0612046FFF7C7FCD8E90010CDE9A5
:1009D0000010002016E03AF818106A4602A800F04D
:1009E0000FFD8146401C0BD000250DF1080B05E0E2
:1009F000D4E901211BF8050090476D1C4D45F7D344
:100A000008F10100B0428046E5DB206A38442062EC
:100A10002046FFF7B8FCBDE8FF9F0000EE6900002C
:100A20002DE9F0418046D21D22F007020025D2E9CF
:100A30000002F52914A612D0002A06DA0023D0EB12
:100A4000030063EB020211A608E0D8F800108B0740
:100A500001D50FA602E0490701D50EA601251146D2
:100A6000002408F1240704E000F056F830323A552B
:100A7000641C50EA0102F7D12B463246214640461B
:100A8000BDE8F041FFF7A1BE000000002D0000000E
:100A90002B0000002000000030B4002100F12404ED
:100AA0000CE002F0070505F130054FEAD20242EAF8
:100AB0004372655401F101014FEAD30352EA030581
:100AC000EFD10468002310A2250708D504F0200404
:100AD0000C4304D0C46901230CA2641EC46130BC61
:100AE000FFF773BE10B5044621461068FFF73BFEC2
:100AF00002462046BDE810400023CDE7D21D22F07B
:100B00000701D1E90023C7E7000000003000000022
:100B1000004870473819002030B5B0F10A024FEA9A
:100B2000900E71F100034EEA817EB0EB0E0061EB96
:100B300091014FEA101E4EEA017E10EB0E0041EBD0
:100B400011114FEA102E4EEA016E10EB0E0041EB30
:100B500011214FEA104E4EEA014E10EB0E0041EB10
:100B60001141401841F100014FEAD00040EA4170C4
:100B70004FEAD10110EB80054FEA810444EA9074FA
:100B800044EB01046D1944EB0404521BA3414FF0E4
:100B9000000348BF0A3200D530BD401C41F10001BE
:100BA00030BD70472DE9FF4F0C461E464FF0FF3712
:100BB0008BB0D2E90001DDF860800A908A46C1F36B
:100BC0000A5505B93D46002108464FF00000BAF12C
:100BD000000F00F4400005DA00EB80004FF4400104
:100BE00001EA50004FEA9059B9F1010F00DDB94612
:100BF0000A9850EA4A000ED044F61050A5F2FF358C
:100C000045432F14B8F1000F1ED07542291E1EDD7A
:100C1000C9F100021CE0B8F1010F4FF0000001D053
:100C2000302103E0F24305E02154401CB042FBDBDD
:100C300030460022002121540B99C1F80880C1E9F7
:100C400000200FB0BDE8F08FBD1B6D1CDEE74A46EB
:100C500000DA694206A800F061FB06AB07CB03ABE4
:100C600007C350460A9900F0AAFC8DE80700A0F5DA
:100C700000501F3800900398002D09DD42F21F013B
:100C80004A46084403A90390684600F009FF08E0BB
:100C9000A0F500504A461F3803A90390684600F0AB
:100CA00013FF8DE807000004000C03D04FF0FF3065
:100CB000410800E01046B8F1000F03D00022009276
:100CC00015461FE0751E06D4FFF726FF02F130021D
:100CD00062556D1EF8D5B3460122084302D00022AA
:100CE0007F1C04E02078302801D100227F1E002ADA
:100CF000099787D01DE0112D07DAFFF70DFF30327D
:100D000062556D1C50EA0102F5D108430FD1002154
:100D1000681E05E0235C625C6354491C2254401E3B
:100D20008142F7DBAB46A81B401E099001E000980A
:100D300048B1002004F80B000B98099AC0F808800D
:100D4000C0E9002B7DE711264FF000085AE72DE996
:100D5000F04F88460446D21D22F0070191B0D1E938
:100D60000001CDE90A0104F0DDF902460B98C00F3D
:100D700001D02D2007E02068810701D52B2002E05B
:100D8000202101EAC000032A099001D0072A05DBCF
:100D900003464146204600F085FB0FE1207880069F
:100DA00001D5E06900E00620B8F1650F814606D064
:100DB000B8F1660F18D0B8F1670F72D132E0002099
:100DC000B9F1110F009001DB112301E009F10103DA
:100DD0000AAA01A90CA8FFF7E5FEDDE90C700026C0
:100DE00009F10105834648E001204B4600904FF091
:100DF00000470AAA01A90CA8FFF7D4FEDDE90DB04F
:100E00000C995D46002618B909F1010001EB0005B7
:100E1000B9EB050003D4C0F1FF3609F10105A5EBDC
:100E200009002BE0B9F1010F01DA4FF001090020B0
:100E3000B9F1110F0090484601DD112300E003468F
:100E40000AAA01A90CA8FFF7ADFEDDE90C704D461A
:100E500000268346207800070AD4AB4500DA5D46B9
:100E600001A8012D04DD411911F8011C302907D01A
:100E70004F4502DA17F1040F04DA0120824610E030
:100E80006D1EEEE7002F02DCED1B3E4403E0781CF4
:100E9000A84200DD0546A7EB060000F1010A4FF06D
:100EA00000472078000703D4AA4501DB4FF0FF3A42
:100EB0000021B7F1004F0DF143088DF8431023D006
:100EC00002202B23002F01DA7F422D234FF00A0C42
:100ED000011EA0F1010000DC4FB197FBFCF10CFBFF
:100EE00011720F4602F1300208F8012DF0E7A8F167
:100EF000010003702188090501D5452100E0652125
:100F0000A0F1010800F8011C09980FA9A1EB08073E
:100F100007F1070700B1012000EB050101EBEA70C2
:100F2000A1693844A1EB0000A0F10100A061207884
:100F3000C00602D42046FFF70FFA099830B1D4E971
:100F400001219047206A00F1010020622078C0064C
:100F500020D52046FFF700FA1CE0002E04DBB34545
:100F600002DD01A8805D00E03020D4E90121904736
:100F7000206A761C401CBAF1010A20620AD1FFF7F0
:100F8000C7FDC0680168405CD4E901219047206A30
:100F9000401C2062281EA5F10105DEDC07E0D4E933
:100FA000012118F8010B9047206A401C2062381E6E
:100FB000A7F10107F3DC2046FFF7E5F9022011B0A5
:100FC00040E600002DE9F04F04460D46D21D22F008
:100FD000070089B0D0E9009248461746394604F028
:100FE000A1F80246F80F01D02D2307E02068810701
:100FF00001D52B2302E0202101EAC0038DF8203027
:10100000D8B200B10120032A824601D0072A04DBAE
:101010002946204600F046FA41E12078800601D4B6
:101020000D2500E0E569C7F30A560D2D4ADA0021C7
:101030004FEA175B08464FF00000002F00F4400015
:1010400007DA00EB800000EBD0714FF4400000EABB
:1010500061008115012901DD4FF0FF3100224FEAC7
:10106000850CBCF1180F06D31346ACF118004FF0F5
:101070008052C24003E04FF4801323FA0CF30CF1CA
:101080000C0CBCF1200F04D3ACF1200C09FA0CF0CD
:1010900001E007FA0CF000294FF0004801DD18B913
:1010A00010E00FD140450DD319EB02095F4121B982
:1010B000404502D19F4329EA0209BBEB175F01D0EB
:1010C00006F101062088000502D57C48784402E03C
:1010D0007A487844193808AA302302F80A30037C89
:1010E0000AF10101002E0AF1020A53546A4602DC99
:1010F0004FF0300101E04FF031014FF001088DF861
:10110000001002D0A6F2FF3603E059EA470100D0F2
:101110006B4E002D02DC2178090704D54FF0020840
:101120002E218DF80110C44600210BE0C7F30343C4
:101130003F01C35C491C6D1E02F80830052908F107
:10114000010801DA002DF1DC00210CE000EB19733D
:10115000491C1B786D1E082902F8083008F10108A7
:101160004FEA091901DA002DF0DC2178890602D551
:1011700014E0A8F10108E04505DD02EB080111F8D3
:10118000011C3029F5D0B8F1000F07DD02EB080192
:1011900011F8011C2E2901D1A8F10108002D05DD4F
:1011A0003E2102F808106D1E08F10108407C002E57
:1011B00002F8080008F1010806DA2D2002F80800FC
:1011C000764208F1010804E02B2002F8080008F13B
:1011D00001080A214FF47A739E420ADB96FBF3F072
:1011E00000F1300703FB106602F8087008F10108EF
:1011F00001E0642E0BDB642796FBF7F000F130036F
:1012000007FB106602F8083008F1010801E00A2E19
:1012100007DB96FBF1F000F1300002F8080008F15E
:10122000010896FBF1F001FB106000F1300002F8BC
:101230000800A16908F1010808EB050202EB0A00A9
:10124000A1EB0000A0612078C00602D42046FFF781
:1012500083F8216A08AE01EB0A00206204E0D4E9B9
:10126000012116F8010B9047BAF1010AF7D2207854
:10127000C00602D52046FFF76FF86E4609E016F863
:10128000010B3E280FD0D4E901219047206A401C71
:101290002062B8F10108F2D22046FFF774F809B0D5
:1012A0000220BDE8F08F206A2844206203E0D4E9E0
:1012B0000121302090476D1EEBD3F8E7AF620000AC
:1012C00002FCFFFF10B5436913B1AFF3008001E0EA
:1012D000FFF752FA012010BD127800F124010A70C4
:1012E00000224A700122EDE711684FF0FF32E9E772
:1012F00010B5436913B1AFF3008001E0FFF732FB93
:10130000012010BD128800F1240182840022C284D1
:101310000122EDE711684FF0FF32E9E72DE9F047D0
:10132000814616468AB035487844D0E90023806863
:101330000092CDE90130314878440C38D0E90223DD
:10134000006903924FF03702CDE9043041F69B303B
:10135000014491FBF2F0A0F1800502FB10141B3C4C
:1013600002D56442012000E00020DFF890A0804612
:101370000027FA44AAF1C60A0DE0E00709D0324678
:10138000684607EB47010AEB810100F09DFB8DE801
:10139000070064107F1C002CEFD1184F7F44B43F2E
:1013A00017E0E80713D007EB04100DF1180A90E8D6
:1013B0000E00AAE80E00C068F04201D1981908900A
:1013C000324606A903A800F07FFB03AB07C36D10EC
:1013D000641C002DE5D132466946B8F1000F03A820
:1013E00002D000F05DFB01E000F06EFBC9E90001F6
:1013F000C9F808200AB0BDE8F0870000E4600000EA
:1014000070B516460C46054600F044F8036893F89C
:101410000101012806D0FF2C0FD8185D68B101200A
:101420002C7070BDD3F8070132462146034428468C
:10143000BDE8704003F2071318474FF0FF3070BD4E
:1014400000487047181900207546FFF7F9FFAE46AF
:1014500005006946534620F00700854618B020B5C0
:10146000FEF742FFBDE820404FF000064FF00007B6
:101470004FF000084FF0000B21F00701AC46ACE83C
:10148000C009ACE8C009ACE8C009ACE8C0098D46A9
:101490007047000010B5FFF73BFB001D10BD00BFFB
:1014A000E94D00002DE9F0411F460446032601687E
:1014B000072A01F4006004DB08B116A505E016A5B3
:1014C00003E008B115A500E015A521F0100020608B
:1014D000A069C01EA0610FB1401EA0612046FEF7AA
:1014E0003BFF4FB1D4E9012138469047206A401CA8
:1014F0002062C01C206206E0206AFAE7D4E90121DC
:1015000015F8010B9047761EF8D22046FEF73BFFF8
:10151000BDE8F0814E414E006E616E00494E4600BE
:10152000696E66000446AFF300802046FEF77BFE3E
:101530004FF0013C50F8042B51F8043B9A4221D162
:10154000A2EB0C03934313EACC1317D150F8042BEE
:1015500051F8043B9A4215D1A2EB0C03934313EAD2
:10156000CC130BD150F8042B51F8043B9A4209D10B
:10157000A2EB0C03934313EACC13DBD04FF0000033
:10158000704700BFD01A01BAB1FA81F101F0180119
:1015900022FA01F0CB40C1F12001DBB2C0B2C01A87
:1015A0002CFA01F3D11A914311EAC311E6D1704725
:1015B00001491820ABBEFEE72600020070475FEA33
:1015C000400C08BF91F0000F4FEA8C234FEAC12274
:1015D00043EA51514FEA1C5018BF00F5F0404FEA62
:1015E000300018BF41F000415FEA6C5C00F02980D8
:1015F000BCF1FF3F08BF40F080407047130C06BFAE
:1016000012044FF0100C4FF0000C130E04BF120226
:101610000CF1080C130F04BF12010CF1040C930F12
:1016200004BF92000CF1020CD30F04BF52000CF166
:10163000010C11464FF00002A0F11F00A0EB0C00BE
:10164000704711F0004F08BF704731F000413FF480
:10165000D5AF0B0C06BF09044FF0100C4FF0000C77
:101660000B0E04BF09020CF1080C0B0F04BF09019B
:101670000CF1040C8B0F04BF89000CF1020CCB0F92
:1016800004BF49000CF1010CCCF12003A0EB0C00CD
:1016900022FA03F302FA0CF241EA030100F101001D
:1016A000704720F07F4C80EA030023F07F47ACEBCB
:1016B000070303F57C5300F0004003F1FF032DE91D
:1016C00080494FEA154B09B44FEA144325EA0B4E03
:1016D00024EA03480FF2042606EB132749083E7854
:1016E0005FEA320203FB0667C7F5000707FB06F651
:1016F0004FEA54374FEAD64606F1020607FB066C5E
:10170000CCF1005C4FEA1C472CEA074C07FB06F4BF
:101710000CFB06F504EB15464FEA961634BF002085
:101720004FF000404FEAD13706FB07FC4FEA1C4C54
:101730000CFB0BF7D21B03FB0CF761EB07010CFB57
:101740000EF7B0EB074072EB17420CFB08F734BF03
:10175000A2EB0742B2EB074261EB17414FEA0C44A0
:101760004FEA910706FB07FC4FEA1C4C0CFB0BF7FA
:10177000B0EBC74072EB573203FB0CF734BFA2EB60
:10178000C742B2EBC74261EB57310CFB0EF7B0EB2F
:10179000C70072EB57720CFB08F734BFA2EBC7020D
:1017A000B2EBC70261EB5771039F4FEA816141EAD7
:1017B000921104EBCC044FEAD1374FEA826206FB68
:1017C00007FC42EA90124FEA80604FEA1C4C0CFB87
:1017D0000BF7D21B03FB0CF761EB07010CFB0EF7B9
:1017E000B0EB074072EB17420CFB08F734BFA2EBDB
:1017F0000742B2EB074261EB17414FEA8C554FEAC3
:10180000910704EB9C2406FB07FC4FEA1C4C0CFBE5
:101810000BF7B0EBC74072EB573203FB0CF734BF4A
:10182000A2EBC742B2EBC74261EB57310CFB0EF79C
:10183000B0EBC70072EB57720CFB08F734BFA2EB9A
:10184000C702B2EBC70261EB577115EB4C254FEAAB
:10185000816141EA92114FEA82624FEAD13742EA4E
:10186000901206FB07FC44F100044FEA80604FEA47
:101870001C4C0CFB0BF7D21B03FB0CF761EB0701B5
:101880000CFB0EF7B0EB074072EB17420CFB08F7AE
:1018900034BFA2EB0742B2EB074261EB174115EBF5
:1018A0001C154FEA813141EA92414FEA823242EA05
:1018B00090424FEA80304FEA0C7644F1000448EA47
:1018C00003434EEA0B484FF0000EB2EB080C71EBED
:1018D000030724BF624639464EEB0E0E4FF0000B55
:1018E0000018524149414BEB0B0BB2EB080C71EB6A
:1018F00003077BF1000B24BF624639464EEB0E0E08
:101900004FF0000B0018524149414BEB0B0BB2EB6F
:10191000080C71EB03077BF1000B24BF62463946CC
:101920004EEB0E0E51EA020718BF46F0010616EB09
:101930000E7655F1000254F1000103D5BDE889018E
:10194000BDE80088BDE88901BDE80048B6195241EC
:1019500041EB0101A3F10103704780807F7E7D7C14
:101960007B7A7978777676757473727171706F6E31
:101970006E6D6C6C6B6A6A696868676666656464DC
:10198000636362616160605F5F5E5E5D5D5C5C5B66
:101990005B5A5A59595858575756565555555454D5
:1019A000535352525251515050504F4F4F4E4E4D33
:1019B0004D4D4C4C4C4B4B4B4A4A4A49494948487F
:1019C00048474747474646464545454444444443BF
:1019D00043434342424242414141002B26D47700D7
:1019E00021D01CB54FEA370703B44FF010004FF079
:1019F00010014FF000000FBCBDE810400BF1010BCF
:101A0000BBF1010F08BF5FEA170722BF12F1010205
:101A100011F101014FF0004143F1000300F00040DB
:101A200043EA00007047F9D35708DAE746EA06466A
:101A300013F1400F4FEA16461FDD13F1200FDFBFF1
:101A400016430A46002120335B42C8D0C3F1200769
:101A500046EA064602FA07F74FEA164646EA07063E
:101A6000C3F1200722FA03F201FA07F721FA03F182
:101A70004FF0000342EA0702B1E746EA020646EAEF
:101A800006464FEA164646EA0106BCBF46EA064647
:101A9000360C4FF000034FF000024FF000019EE7BC
:101AA0002DE9C048934630B491E8380007C831EAC0
:101AB000400C48BF34EA430C03D5FFF7F2FDFFF7B3
:101AC0008CFFF0BCBDE800882DE9C048934630B4D7
:101AD00091E8380007C810F0804F08BF13F0804F1E
:101AE00003D100F005F8FFF778FFF0BCBDE80088EF
:101AF00020F07F4780EA030023F07F4C07EB0C03C4
:101B0000A3F57C5300F00040A3F1FE0392F0000F18
:101B100000F0B38095F0000F00F077802DE90149C7
:101B20004FEA11404FEA144621EA004800FB06FC48
:101B300024EA064708FB06F607FB08F800FB07F750
:101B400018EB06484CEB164C4FEA124B18EB0748C3
:101B50004FEA15464CEB174022EA0B4E0BFB06FCF6
:101B600025EA06470EFB06F607FB0EFE0BFB07F702
:101B70001EEB064E4CEB164C4FF000061EEB074ECC
:101B80004CEB174B18EB0B0840F1000018EB0E0B59
:101B900058EB000840F100008F1A4FF000013CBFE5
:101BA000C943661B14BFB5EB040C00213CBFC943FD
:101BB000F61B4FEA17444EEA8E0E27EA04454FEA19
:101BC0001C4704FB07622CEA074C05FB07F70CFBDC
:101BD00005F604FB0CFC16EB074642EB174216EB2E
:101BE0000C4642EB1C421BEB060658EB020241413D
:101BF00046EA9E0601D5BDE80189B619524141EB7E
:101C00000101A3F10103BDE801894FEA14454FEA40
:101C1000114724EA054621EA074C05FB07F406FBB9
:101C200007F70CFB06F105FB0CFC11EB074144EB3D
:101C300017444FEA124711EB0C4144EB1C4422EAD3
:101C4000074C05FB07F206FB07F70CFB06F605FB46
:101C50000CFC16EB074642EB174216EB0C4642EB28
:101C60001C456A1854F1000148BF7047B61952412B
:101C700041EB0101A3F10103704795F0000F37D04C
:101C80004FEA11424FEA144721EA024624EA074C80
:101C900002FB07F106FB07F70CFB06F402FB0CFC4A
:101CA00014EB074441EB17414FEA154714EB0C4482
:101CB00041EB1C4125EA074C02FB07F506FB07F741
:101CC0000CFB06F602FB0CFC16EB074645EB174532
:101CD00016EB0C4645EB1C42121951F1000148BFAE
:101CE0007047B619524141EB0101A3F1010370475E
:101CF0004FEA14454FEA114724EA054621EA074C0A
:101D000005FB07F106FB07F70CFB06F24FF0000698
:101D100005FB0CFC12EB074241EB174112EB0C42A6
:101D200051EB1C4148BF7047921841EB0101A3F1F0
:101D30000103704770B5044600688168C943C9074C
:101D400017D1816821F00101816001F03BFA05465D
:101D50000AE000BF01F036FA401B022804D92068CF
:101D60008068C043C00706D020688068C043C007B1
:101D7000F0D0002070BDA06A40F01000A062E06AC0
:101D800040F00100E062012070BD10B50146406ADC
:101D9000826A12F0500F05D0006A026BBDE8104055
:101DA00008461047816A41F40071816201688968C0
:101DB000C1F3424107290CD1017B51B9816A21F459
:101DC00080718162816AC90403D4816A41F0010192
:101DD000816200F07BFB10BD10B5406A816A41F062
:101DE00040018162C16A41F00401C16200F070FBF0
:101DF00010BD10B5406A00F06AFB10BDF8B50026B2
:101E00000446009600688168C943C9072DD08168DF
:101E100041F001018160164816490068B0FBF1F0FD
:101E200000E0401E00900028FBD101F0CBF90546F0
:101E300016E000BF01F0C6F9401B022810D9206847
:101E40008068C043C0070BD0A06A40F01000A062B9
:101E5000E06A40F00100E06284F824600120F8BDEF
:101E600020688068C043C007E4D10020F8BD0000AE
:101E70004C00002040420F00FEE70000224894B0D2
:101E8000002408218460C0E90341047501200E94F8
:101E90000C940D9409940A940B941190CDE90F4081
:101EA00009A91A4800F0D0FC184800F093FE174E1C
:101EB000174D483EA87810B1AC7002F0D3FE002157
:101EC000124800F039FDD0B16B4602AA00210F483C
:101ED00000F043FD98B90298302810D1069870B1EF
:101EE0009DF8020030709DF8030070709DF80400AA
:101EF000F0709DF8000028709DF801006870322095
:101F000003F0DCFBD6E700005802002004010020AB
:101F100000000020094D0A4C3C264FF47A772869CE
:101F2000B0FBF6F06072E868B0FBF7F0E071297D75
:101F300008442072642003F0C1FBF0E70000002099
:101F4000BC0000200021794802F06AF97749272275
:101F5000543901F5A27003F06FFA744D744CDFF838
:101F6000D4914FF48066C43D4FF480784FF4004A1A
:101F70004FF4804BE878012844D0002231462046B7
:101F800001F01BF901221021204601F016F92878F2
:101F900001283ED000224146484601F00EF90022B9
:101FA0005146204601F009F900225946204601F029
:101FB00004F900224FF40051204601F0FEF80022FF
:101FC0004FF48051204601F0F8F800224FF40061F0
:101FD000204601F0F2F800220221204601F0EDF83F
:101FE00000220121204601F0E8F80020A8715221CA
:101FF00002F098FE4D48F03003F002FA142003F08E
:102000005DFBB7E701223146204601F0D6F80022F9
:10201000B9E701224146484601F0CFF8687830B16F
:10202000012806D0022859D0032812D15DE00022F1
:1020300000E001225146204601F0BFF80022594637
:10204000204601F0BAF800224FF40051204601F07A
:10205000B4F8A878012854D000224FF480512046CB
:1020600001F0ABF85FF001024FF40061204601F08F
:10207000A4F8287901284BD000220221204601F043
:102080009CF801220121204601F097F8A87A032844
:1020900045D0012846D04E215FF0000002F042FEFC
:1020A0002248F03003F0BAF9204800221146F030FF
:1020B00003F056FA204F1D4820A17A78F03003F043
:1020C000EEF91A4800220121F03003F049FA1748CE
:1020D0003A781EA1F03003F0E2F98FE70022514672
:1020E000204601F06AF80122A9E700225146204665
:1020F00001F063F800225946204601F05EF8012203
:10210000A2E701221103204601F057F80022ABE7B5
:1021100001220221204601F050F80022B2E7A879FE
:102120004421BBE7A8795221B8E7000080010020D4
:10213000000C01400008014000000020537065655C
:10214000644C696D69743A202564000041697254D9
:10215000656D703A20256400014800F067BD0000FD
:102160002805002030B590F840500124AC40C56BE4
:102170006C60046863604368102B036803D0996047
:102180000068C26030BD9A600068C16030BD7047B1
:1021900072B6FEE706490020C8610648016941F0B1
:1021A00004010161016941F04001016170470000D3
:1021B0000808002000200240064A0021D16106499B
:1021C0000A6942F002020A614861086940F0400071
:1021D000086170470808002000200240044B0022DC
:1021E000DA61044A136943F0010313610180704707
:1021F000080800200020024014480022C168CB06D5
:10220000134904D5CA6942F00202CA611022C368A8
:102210005B0705D5CB6943F00103CB6142F00402B3
:10222000C369DB0707D0CB6943F00403CB61C16905
:1022300021F00101C161A2F58071013904D1C169A8
:1022400021F00101C1617047C26070470020024067
:102250000808002070B5054600F0B4FF0646114C92
:1022600009E0681C07D025B100F0ACFF801BA84234
:1022700001D9032070BDE068C007F2D1E068800694
:1022800001D52020E060E068C00605D4E069C00701
:1022900002D1E068400703D5FFF7AEFF012070BD13
:1022A000002070BD00200240014800787047000007
:1022B00000FC010830B585B0044600F079FE00202E
:1022C00004900090084D0120CDE9025004A9684611
:1022D00000F0D0FD224600232946022000F028FE0F
:1022E00000F01CFE05B030BD00FC010801220149D0
:1022F00002F08CB8B8000020F8B50025044600951F
:1023000090F8240001280BD0012084F824002046F6
:10231000FFF710FD2046FFF771FD060002D050E0E8
:102320000220F8BDA06A20F4885040F00200A062AC
:10233000022001F09DF925490968B1FBF0F0400049
:1023400000E0401E00900028FBD12068816841F029
:102350000801816000F036FF074608E000F032FF18
:10236000C01B0A2803D920688068000715D420689C
:1023700080680007F2D42068816841F00401816020
:1023800000F020FF074612E000F01CFFC01B0A28E7
:102390000DD920688068400709D5A06A20F00200A6
:1023A00040F01000A06284F824500120F8BD20689D
:1023B00080684007E8D4A06A20F0020040F00100E5
:1023C000A06284F824503046F8BD00004C00002084
:1023D000F8B50024009490F824202546012A12D054
:1023E000012280F824204A681F23072A0DD206689C
:1023F000776B521E02EB820293409F430B6893401F
:102400001F43776319E00220F8BD06680D2A0AD23F
:10241000376BD21F02EB820293409F430B689340BD
:102420001F43376309E0F76A0D3A02EB82029340DB
:102430009F430B6893401F43F7620A6807230668AF
:102440000A2A0AD3F7680A3A02EB420293409F43F2
:102450008B6893401F43F76008E0376902EB420244
:1024600093409F438B6893401F4337610A68102A4B
:1024700001D0112A20D1124B02689A4217D19368D9
:102480001B0219D4936843F4000393600968102970
:1024900012D10C490C4A0968B1FBF2F101EB810140
:1024A000490000E0491E00910029FBD104E0816A47
:1024B00041F020018162012480F824502046F8BDBB
:1024C000002401404C00002040420F00704770473C
:1024D000704700002DE9F0414FF0000704003D4631
:1024E0007ED0A06A002628B9E66284F824602046DF
:1024F00000F07EF82046FFF71DFCA16A01F01001F4
:10250000014304D0A06A40F01000A06268E0A16A14
:1025100021F4885141F00201A1626268E169237BE4
:102520000A4347EA43010A43A1684FF48077B9425E
:1025300008D0012906D0002194F814C0BCF1010F85
:1025400002D00AE03946F7E7F3B1A36A43F020036B
:10255000A362E36A43F00103E3622368D3F804C093
:102560002CF4694C4CEA010CC3F804C02368996848
:10257000DFF870C001EA0C0111439960A168B9420B
:102580000BD0012909D00CE0DFF85CC0A3690CEB8B
:1025900043330B4343F40061DFE7218A0D05A5F5C2
:1025A00080152168CB6A23F470032B43CB6221682A
:1025B00089680E4B1940914208D1E662A16A21F068
:1025C000020141F00101A162BDE8F081A06A20F0A2
:1025D000020040F01000A062E06A40F00100E062FA
:1025E0000120F1E7FDF7E1FF00E0FFFFFE0E1FFF16
:1025F00070B586B0002506460095019502950395B5
:1026000000681A4988422ED11949886940F400703F
:102610008861886900F400700490886940F00400C3
:1026200088618869694600F004000490F0200090F9
:10263000032001900F4800F0CFFC104C0E48C4E975
:1026400000058020C4E902504000206180006061E4
:102650002020C4E90605204600F092FB08B1FFF7F0
:1026600097FD3462666206B070BD00000024014030
:102670000010024000080140080002402805002028
:102680002DE9F047894604463B4900683B4F0E1D43
:102690009046884201D0B84207D1306810F4702FBC
:1026A00003D001252846BDE8F08794F824000128CE
:1026B0000CD0012084F824002046FFF79FFB050082
:1026C0004FF0000004D084F82400EBE70220EAE792
:1026D000A16A40F60162914341F48071A1622168D0
:1026E000B94218D1326812F4702F14D0A16A41F4A3
:1026F0008011A1623168490505D5A16A21F4005114
:1027000041F48051A162A16AC9040AD5E16A21F0AD
:102710000601E16206E0A26A22F48012A262496820
:10272000E9E7E06284F82400216A15488862216A9A
:102730001448C862216A1448086321686FF00200D7
:1027400008602068816841F4807181602168434697
:102750004C314A46206A00F043FB20688168C1F38F
:1027600042410729816803D041F48011816099E7D3
:1027700041F4A001FAE700000024014000280140D4
:102780008B1D0008F31D0008D91D0008F0B590F856
:1027900020500468A468012D05D0022D03D0416AA1
:1027A00041F480214DE014F0406F01D1E50045D5A2
:1027B000C4F301640125A5401D608D684FF4C0730A
:1027C0009DB1CE6835434E6845EAC605066803EB01
:1027D0000417F5514FF4C275076805EB04150E692F
:1027E0007E51097D012905D009E00E88CD6845EAB2
:1027F0004655EBE701684E5946F480764E51117903
:10280000D2F805504FF4C67641EA0521056806EB7B
:102810000416A9511178D2F801204FF4C47541EA89
:102820000221026805EB04155151006803EB041105
:10283000425842F0010242500020F0BD416A41F48A
:10284000001141620120F0BD10B590F820300268FF
:10285000012B07D0022B05D0416A41F4802141624F
:10286000012010BDD2F8000240F00100C2F80002C1
:10287000087D00F01F0301209840D2F81C328343EA
:10288000C2F81C32CB69B3B9D2F80C328343C2F818
:102890000C328C894B6864F31F434C6902EBC4040F
:1028A000C4F840320C890B6864F31F434C6902EB97
:1028B000C404C4F84432CB69012B16D1D2F80C32CF
:1028C0000343C2F80C320C884B6864F31F434C6915
:1028D00002EBC404C4F840320C89CB6864F31F4394
:1028E0004C6902EBC404C4F844328B69002BD2F863
:1028F00004320FD053EA0003C2F804320B69002BF4
:10290000D2F8143208D00343C2F81432096A0129FC
:1029100004D008E08343EFE78343F5E7D2F81C12C5
:102920000143C2F81C12D2F8000220F00100C2F8E4
:102930000002002010BD00000246002092F8203066
:10294000012B01D0022B05D1106821B1D0F8100065
:1029500000F003007047C068FAE770B590F82040B7
:10296000012C05D0022C03D0416A41F4802128E0DB
:10297000046809B32469A40720D04FF4D87405680B
:1029800004EB01142D5915F00405956005682D59C7
:102990001AD0ED08556005682C5904F00204D46083
:1029A0004FF4DA74056804EB01142E5906F00F0693
:1029B000082E0CD308250DE0E468DCE7416A41F4F9
:1029C00000114162012070BD6D0D1560E3E72D59C6
:1029D00005F00F05156105682D59C5F307259561AB
:1029E00005682C59240C54614FF4DC72046802EB26
:1029F0000112A4581C700468A458240A5C7004686E
:102A0000A458240C9C700468A258120EDA704FF47B
:102A1000DE72046802EB0112A4581C710468A45809
:102A2000240A5C710468A458240C9C710468A258A0
:102A3000120EDA71006829B1016941F020010161CB
:102A4000002070BDC16841F02001C160F8E770B599
:102A5000040003D094F8200010B104E0012070BD00
:102A6000204600F081F82068016841F00101016012
:102A700000F0A8FB0546052604E000F0A3FB401B80
:102A80000A2811D820684068C007F6D0206801687D
:102A900021F00201016000F095FB05460BE000F01B
:102AA00091FB401B0A2806D9606A40F4003060623E
:102AB00084F82060D2E7206840688007EFD4207E49
:102AC0000128206801683DD021F080010160607E0E
:102AD00001282068016838D021F040010160A07E03
:102AE00001282068016833D021F020010160E07ED8
:102AF0000128206801682ED041F010010160207F7C
:102B000001282068016829D021F008010160607F58
:102B100001282068016824D021F004010160D4E973
:102B200002010843D4E90412114308436168491EB5
:102B300008432168C86100206062012084F82000F9
:102B4000002070BD41F08001C0E741F04001C5E7C1
:102B500041F02001CAE721F01001CFE741F0080160
:102B6000D4E741F00401D9E710B586B00021009107
:102B700001910291039100681349884222D11348C0
:102B8000C16941F00071C161C16901F00071049136
:102B9000816941F00401816180690D4C00F00400FD
:102BA00004904FF4006000906946204600F014FA4B
:102BB000A014009002200190032003906946204653
:102BC00000F00AFA06B010BD006400400010024098
:102BD0000008014070B5044690F82000012804D098
:102BE000606A40F40020606218E0022084F820004F
:102BF0002068016821F00101016000F0E3FA054658
:102C00000EE000BF00F0DEFA401B0A2808D9606A17
:102C100040F400306062052084F82000012070BD7F
:102C200020684068C007EDD1606270BD2DE9F05F9B
:102C3000C16B0C6801680B68D0F840C0042202FA2E
:102C40000CF2494DDFF824A1494E4A4FDFF828B174
:102C5000DFF828E122422CD05A072AD50A689206CA
:102C600003D40A6822F004020A600168A94201D173
:102C7000042219E0514501D1402215E0B14202D1B0
:102C80004FF4806210E0B94202D14FF480420BE071
:102C9000594502D14FF4802206E0714502D14FF42C
:102CA000800201E04FF080622F4908394A60C16A12
:102CB0003BE04FF0020808FA0CF818EA040F4FF056
:102CC00000094FF0010235D05FEA837832D50B68F6
:102CD0009B0605D40B6823F00A030B6080F82120C3
:102CE0000168A94201D1022219E0514501D12022F7
:102CF00015E0B14202D14FF4007210E0B94202D1A6
:102D00004FF400520BE0594502D14FF4003206E077
:102D1000714502D14FF4001201E04FF000721249E8
:102D200008394A6080F82090816A00291AD0BDE8ED
:102D3000F05F0847082505FA0CF5254212D01B075D
:102D400010D50B6823F00E030B6090F84010C36B96
:102D500002FA01F15960826380F8212080F8209006
:102D6000016BE2E7BDE8F09F080002401C00024052
:102D70003000024044000240580002406C00024013
:102D800030B538B3001D144950F8043C14221944DE
:102D9000B1FBF2F18900C1631049816302214177DF
:102DA0001A6843F6F0718A43D0E900142143D0E950
:102DB00002452C432143046921434469214384692A
:102DC00021431143196000214163012242770177B9
:102DD000084630BD012030BDF8FFFDBF00000240B5
:102DE00070B5044690F82000002501280CD0012081
:102DF00084F8200094F821600020012E06D084F889
:102E000020000225284670BD022070BD022684F8ED
:102E10002160A0632068066826F00106066020464F
:102E2000FFF7A0F9E06A00282068016802D041F0AD
:102E30000E0106E021F0040101602068016841F004
:102E40000A0101602068016841F001010160D9E7D1
:102E500070B5044600F0B6F90546601C02D004487F
:102E60000078044400F0AEF9401BA042FAD370BDD4
:102E7000400000202DE9F047054626480F46012670
:102E8000017E01290FD00121814601762868DFF8F3
:102E900088804CF25034022808D0A2462046FFF722
:102EA000D9F9A8B131E00220BDE8F0872046FFF74C
:102EB000D1F908BB0120FFF76DF92046FFF7CAF9E9
:102EC000D8F81010064621F00401C8F810101CE0D4
:102ED0004FF0FF303860AC6811E02046FFF76CF926
:102EE0005046FFF7B7F9D8F81010060021F002019C
:102EF000C8F8101001D03C6007E004F58064D5E903
:102F0000020100EB8120A042E7D8002189F81810C7
:102F10003046C9E708080020002002400348016944
:102F200041F0800101610020704700000020024054
:102F30002DE9F05F07461C4888460024017E1546AF
:102F40001E46012909D00121814601764CF2503AF2
:102F50005046FFF77FF918B122E00220BDE8F09F4C
:102F6000012F02D0022F00D00427D346DFF83CA067
:102F7000220128463146FDF7C9F981B208EB440029
:102F8000FFF72CF95846FFF765F9DAF8102022F020
:102F90000102CAF8102018B9641CE4B2BC42E7D39D
:102FA000002289F81820D9E70808002000200240F4
:102FB000064900200A69120607D5054A4A60054AF3
:102FC0004A600969090600D50120704700200240C7
:102FD00023016745AB89EFCD2DE9F84FDFF8B091BC
:102FE0000024A9F1040B23460F2709F1040AABF1D1
:102FF000040EC6E00125A5402A40AA4276D1DFF89A
:1030000094C14E68A6EB0C0866452BD00DDC032E50
:1030100034D005DC36B3012E19D0022E2FD11BE09F
:10302000112E16D0122E2AD119E0B8F5881F19D00A
:1030300006DCB8F5803F15D0B8F5801F1FD111E030
:10304000B8F5001F0ED0B8F5041F18D10AE0CB6800
:1030500015E0CB681B1D12E0CB6808330FE0CB688E
:103060000C330CE08B682BB1012B4FF0080303D01D
:10307000456104E0042302E0056100E00023FF2A2B
:1030800001D8064601E000F104064FEA840501D9A3
:10309000A5F12005D6F8008007FA05FC28EA0C08FF
:1030A00003FA05F548EA0508C6F800804D68ED000A
:1030B00066D5394DAE6946F00106AE61AD6924F0C2
:1030C000030605F001050095344D06EB050CDCF810
:1030D0000850A607360F07FA06F825EA0805DFF8B4
:1030E000C080404503D14FF0000817E048E0DFF80A
:1030F000B480404502D14FF001080FE0DFF8A8800E
:10310000404502D14FF0020808E0DFF8A0804045BA
:1031100002D14FF0030801E04FF0040808FA06F866
:1031200048EA0508CCF808804D68D9F80060ED023F
:10313000002D4D4601DA164300E096432E604D689F
:10314000DAF80060AD02002D554601DA164300E0C2
:1031500096432E604D68DBF80060AD03002D5D46A0
:1031600001DA164300E096432E604D68DEF80060F9
:10317000ED03002D754601DA164300E096432E60FC
:10318000641C0A6832FA04F57FF434AFBDE8F88FA6
:10319000080401400000111000100240000001402E
:1031A00000080140000C01400010014000140140E3
:1031B0008068084000D0012070470AB10161704763
:1031C0000904FBE7014880687047000040000020C8
:1031D00070B5040025D094F83D00002520B984F88E
:1031E0003C50204600F04CF9242084F83D00206833
:1031F000016821F0010101602068016841F400418B
:1032000001602068016821F40041016000F0B0FB1A
:103210004A4A6168914201D8494900E049498842D7
:1032200001D2012070BD48492368B0FBF1F15E680E
:1032300026F03F060E435E606368934206D94FF462
:10324000967359434FF47A73B1FBF3F12368491C29
:103250001E6A26F03F0631431962616891420AD81E
:103260004900401EB0FBF1F0401CC0F30B000428E5
:103270001ED204201CE0A368F3B301EBC10202EBF1
:103280000116421EB2FBF6F2521C42F480421205B5
:1032900049D093B301EBC10202EB0111401EB0FB18
:1032A000F1F0401CC0F30B0040F4804040F40040BB
:1032B0002168CA694CF6FF739A431043C861D4E988
:1032C000071001432068026822F0C0021143016028
:1032D000D4E9030101432068826848F2FF339A432E
:1032E00011438160D4E9050108432168CA6822F0CE
:1032F000FF021043C86001E00EE016E0206801689C
:1033000041F0010101602564202084F83D0025631F
:1033100084F83E50002070BD01EB4106421EB2FB16
:10332000F6F2521CB3E70120C2E701EB4101401E57
:10333000B0FBF1F0401CC0F30B00B7E7A086010022
:1033400080841E0000093D0040420F002DE9F84F27
:103350001F4690468A460446DDF82890FFF732FF64
:10336000054694F83D0020287ED1192301224249C8
:103370002046009501F0EAF800287AD194F83C0044
:10338000012876D0012084F83C0020680168C90734
:1033900003D1016841F0010101602068016821F456
:1033A00000610160212084F83D00102084F83E0077
:1033B00000262664C4F824806785608D20852F4808
:1033C000E0622B464A465146204601F045F890B946
:1033D00020684169806900903AE02A4649462046C3
:1033E00001F05AF950B1206C042804D1206801681A
:1033F00041F4007101600120BDE8F88F606A216826
:1034000000780861606A00F101006062618DA1F1DD
:1034100001016185218DA1F1010189B22185226817
:1034200053696FEA03035B070BD451B10078106155
:10343000606A401C6062608D401E6085208D401E69
:1034400020852A464946204601F054F80028CAD172
:10345000208D0028C1D154F81F0B016841F4007180
:1034600001602020A07700E003E0E6776677002087
:10347000C2E70220C0E70000020010000000FFFFCA
:1034800010B586B00021009101910291039100686E
:103490000F4988421AD10F4CA06940F00800A06182
:1034A000A069694600F008000490C0200090122036
:1034B0000190032003900848FFF78EFDE06940F477
:1034C0000010E061E06900F40010049006B010BD47
:1034D0000054004000100240000C01400248816886
:1034E000027811448160704740000020074810B501
:1034F000016841F010010160032000F0A7F80F20DF
:1035000000F006F800F050F8002010BD0020024046
:1035100030B505461F4887B0C16941F00401C1615B
:10352000C06906A900F00400009001A800F000FAAC
:103530000498B0B100F01CFA40001749174AB0FBDC
:10354000F1F11748491E0260416040F2E732002164
:10355000C0E903218160816100F01AFC040003D0FE
:1035600015E000F005FAE8E70D4800F05DFC040006
:103570000DD11E2000F03CF8102D07D20022294664
:103580001E2000F043F80748056000E0012407B062
:10359000204630BD0010024040420F0000080040AD
:1035A000C0070020440000200F4808B5816941F0A1
:1035B00001018161816901F001010091C16941F05E
:1035C0008051C161C069002200F0805000900F213D
:1035D000901E00F01BF80548416821F0E06141F0C1
:1035E0000071416008BD0000001002400000014071
:1035F00000280ADB00F01F020121914040094FF032
:10360000E02202EB8000C0F800117047F0B40E4BCE
:103610001B680C46C3F30223C3F10705042D00D930
:103620000425191D072901D2002300E0DB1E012615
:1036300006FA05F1491E214099409E40761E16402B
:103640003143F0BC01F096BD0CED00E0064900F0FE
:10365000070208684FF6FF03184040EA0220034AB9
:1036600010430860704700000CED00E00000FA0510
:1036700010B501460020234C012922D0022939D05F
:1036800010291DD161682268D20119D51E48C1F3E5
:103690008342C903805C0AD561681B4AC1F340417B
:1036A000921E515C194AB2FBF1F1484301E01849FE
:1036B00048436168490203D440000321B0FBF1F0A4
:1036C00010BD226AC2F30121012903D1920701D55D
:1036D000C80310BD022905D1626A920702D549F6D6
:1036E000404010BD0329FCD121688903F9D54FF270
:1036F000244010BD00F04CF96168C1F38131491CD0
:103700004900DBE7001002400073000800127A0055
:1037100000093D002DE9F84305460078364CC00706
:1037200055D0E0690026C00008D4E06940F0805020
:10373000E061E069012600F0805000902F480168A8
:10374000C90512D40168804641F480710160FFF719
:1037500039FD074605E000BFFFF734FDC01B6428B4
:1037600023D8D8F80000C005F6D5206A10F44070C0
:1037700021D0A98801F4407181421CD0206A2049DF
:10378000012220F440700A6000220A602062C00713
:1037900011D0FFF717FD074641F2883808E000BF57
:1037A000FFF710FDC11B414502D90320BDE8F88396
:1037B000206A8007F4D5206A696820F440700843C5
:1037C0002062012E03D1E06920F08050E06128786A
:1037D000800705D56068A96820F440400843606010
:1037E0002878C00605D56068E96820F480000843A1
:1037F00060600020DAE70000001002400070004026
:10380000400442422DE9F0470F46050061D0434E87
:10381000306800F00700B84209D2306820F0070095
:1038200038433060306800F00700B84251D1286852
:103830003B4C810712D5400703D5606840F4E06037
:1038400060602878000703D5606840F460506060CD
:103850006068A96820F0F000084360602878C0071D
:1038600028D06868012810D02168022810D0890764
:1038700000292EDA616821F0030101436160FFF73E
:10388000A1FC804641F288390DE021688903EFE709
:103890008901EDE7FFF796FCA0EB0801494502D945
:1038A0000320BDE8F0876068696800F00C00B0EBA9
:1038B000810FEFD1306800F00700B8420BD93068B3
:1038C00020F0070038433060306800F00700B8424D
:1038D00001D00120E5E72878400705D56068E96850
:1038E00020F4E060084360602878000706D560682F
:1038F000296920F4605040EAC100606000F058F887
:103900006168084AC1F30311515CC8400649086068
:1039100006480068FFF7FCFD0020C2E700200240D7
:1039200000100240107300084C00002044000020EA
:103930000F2202600C4A536803F00303436053688C
:1039400003F0F0038360536803F4E063C3605268DC
:103950004FF4E06303EAD20202610448006800F019
:10396000070008607047000000100240002002407D
:103970000448054900684968044AC1F30221515CC2
:10398000C84070474C00002000100240207300081F
:103990000448054900684968044AC1F3C221515CE2
:1039A000C84070474C0000200010024020730008FF
:1039B0000E4A51680E4801F00C03042B11D0082B5D
:1039C0000FD10C48C1F38343C903C05C0AD55168C9
:1039D000084AC1F34041921E515C054A5043B0FB76
:1039E000F1F070470449484370470000001002405E
:1039F00000127A00EE72000800093D002DE9F84F30
:103A0000040070D02078C24DC00749D06868C0F368
:103A10008100012807D06868C0F38100022809D11D
:103A20006868C00306D52868800339D56068002817
:103A3000E7D035E06068B0F5803F0BD010B1B0F54D
:103A4000A02F11D0286820F480302860286820F446
:103A5000802002E0286840F480302860606890B1DF
:103A6000FFF7B0FB06460AE0286840F48020286093
:103A7000F0E700BFFFF7A6FB801B642874D8286816
:103A80008003F7D50CE0FFF79DFB064605E000BF7D
:103A9000FFF798FB801B6428F0D828688003F7D4D0
:103AA00020789C4E80074FF001094FF0000839D56F
:103AB000686810F00C0F07D06868C0F38100022816
:103AC00009D16868C00306D42868800714D5206926
:103AD000012808D110E02069B0B1C6F80090FFF7C6
:103AE00071FB074605E00EE1FFF76CFBC01B0228E7
:103AF000C4D828688007F7D52868616920F0F800E5
:103B000040EAC10028600DE0C6F80080FFF75AFBCC
:103B1000074604E0FFF756FBC01B0228AED8286812
:103B20008007F7D4207800072ED57B48A169E1B142
:103B3000C0F80090FFF746FB074604E0FFF742FBA2
:103B4000C01B022810D8686A8007F7D573484FF465
:103B5000FA510068B0FBF1F0009000BF0098411EE0
:103B600000910028F9D10FE082E0C0F80080FFF753
:103B700029FB074605E000BFFFF724FBC01B022816
:103B800076D8686A8007F7D42078400761D5E8695D
:103B90000027C00008D4E86940F08050E861E86977
:103BA000012700F0805000905D480168C90513D4DA
:103BB0000168834641F480710160FFF703FB824690
:103BC00006E000BFFFF7FEFAA0EB0A0064284FD81A
:103BD000DBF80000C005F5D5E06801280AD008B17F
:103BE000052813D0286A20F001002862286A20F0F6
:103BF000040002E0286A40F001002862E06841F217
:103C0000883B98B1FFF7DEFA82460BE0286A40F065
:103C100004002862EEE700BFFFF7D4FAA0EB0A0128
:103C200059455CD8286A8007F6D50CE0FFF7CAFA38
:103C3000824605E0FFF7C6FAA0EB0A0159454ED8C7
:103C4000286A8007F6D4012F03D1E86920F080505C
:103C5000E861E06990B36968C1F38101022945D048
:103C60000228C6F8608004D0FFF7ACFA044639E0B9
:103C700035E0FFF7A7FA074605E000BFFFF7A2FA15
:103C8000C01B02282BD828688001F7D4206AB0F521
:103C9000803F05D16868A16820F40030084368605F
:103CA000D4E908010843696821F474110843686085
:103CB000C6F86090FFF786FA044606E025E000BFEC
:103CC000FFF780FA001B022809D828688001F7D581
:103CD0001BE000BFFFF776FA001B022802D9032081
:103CE000BDE8F88F28688001F4D40EE00128F7D0F1
:103CF0006868226A00F48031914204D1616A00F45C
:103D00007010884201D00120EAE70020E8E70000B7
:103D10000010024000004242800442424C00002059
:103D2000007000407047704770B590F83C20012A41
:103D300025D0012480F83C40022280F83D20036811
:103D40005A689D6822F070060A6832435A600D4B2B
:103D500002689A4208D0B2F1804F05D00A4B9A42CD
:103D600002D00A4B9A4204D1496825F080031943D6
:103D700091603C30447000210170084670BD022003
:103D800070BD0000002C014000040040000800400D
:103D900010B5040003D094F83D0010B107E00120F5
:103DA00010BD002084F83C00204600F015F80220E9
:103DB00084F83D00211D206801F030F801203D34D9
:103DC00060726070A070E07020716071A071E0712D
:103DD00020722070002010BD08B501681048B1F1B4
:103DE000804F14D00F4A914219D1C16941F00201AC
:103DF000C161C069002200F00200009005211D2071
:103E0000FFF704FCBDE808401D20FFF7F1BBC169C6
:103E100041F00101C161C06900F00100009008BDDE
:103E2000001002400004004090F83D10012901D02C
:103E300001207047022180F83D100168CA6842F0F5
:103E40000102CA6000680B49884208D0B0F1804F77
:103E500005D00949884202D00849884204D18168C6
:103E600001F00701062903D0016841F0010101605A
:103E700000207047002C0140000400400008004072
:103E80000168CA6822F00102CA6001680A6A41F248
:103E900011131A4207D10A6A9B101A4203D10A6809
:103EA00022F001020A60012180F83D1000207047D5
:103EB00070B5044690F83C000025012817D0012673
:103EC00084F83C60022084F83D002068826822F07B
:103ED000770222F47F4282600868502837D00DDCD8
:103EE00020284ED005DC88B3102811D149E00220EB
:103EF00070BD302845D040280AD13AE060282ED045
:103F000070280CD0B0F5805F03D0B0F5005F11D001
:103F100001253C34667000202070284670BD4A6838
:103F2000083120680AC900F0C2FF2068816841F0AA
:103F3000770109E04A68083120680AC900F0B7FF34
:103F40002068816841F480418160E2E719E0CA6835
:103F50004968206801F060F85021206806E0CA68CE
:103F60004968206801F069F86021206800F0A9FF25
:103F7000CFE7CA684968206801F04EF84021206800
:103F8000F4E7226801461046F0E770472DE9F0415A
:103F900004460068C66805694FF00007A90713D5F5
:103FA000B10711D5F91E01610120207720688069D1
:103FB0008007204602D0FFF7E8FF04E000F0A2F8F7
:103FC000204600F02BF92777680716D5700714D51F
:103FD00021686FF004000861022020772068806962
:103FE00010F4407F204602D0FFF7CFFF04E000F03E
:103FF00089F8204600F012F92777280715D53007F1
:1040000013D521686FF0080008610420207720682C
:10401000C0698007204602D0FFF7B7FF04E000F038
:1040200071F8204600F0FAF82777E80616D5F00672
:1040300014D521686FF010000861082020772068EF
:10404000C06910F4407F204602D0FFF79EFF04E0D5
:1040500000F058F8204600F0E1F82777E80708D08C
:10406000F00706D021686FF001000861204600F0DB
:1040700025F9280608D5300606D521686FF080009E
:1040800008612046FFF74EFE680608D5700606D583
:1040900021686FF040000861204600F04BF9A80647
:1040A0000AD5B00608D521686FF0200008612046C7
:1040B000BDE8F041FFF737BEBDE8F08100B585B03F
:1040C000002100910191029103910068B0F1804FAD
:1040D00011D10A48816941F0040181618069694612
:1040E00000F0040004900120009002200190039051
:1040F0000348FEF771FF05B000BD0000001002404C
:1041000000080140704770B5044690F83C00002656
:104110000D4601280FD0012084F83C006AB1042A22
:104120001DD0082A2FD00C2A3FD00126002084F869
:104130003C00304670BD022070BD206800F0CAFE11
:104140002068816941F0080181612068816921F05E
:1041500004018161206881692A69114311E02068A6
:1041600000F0E0FE2068816941F40061816120680F
:10417000816921F480618161206881692A6941EA4D
:1041800002218161D2E7206800F0F8FE2068C16951
:1041900041F00801C1612068C16921F00401C161D9
:1041A0002068C1692A69114311E0206800F012FFFC
:1041B0002068C16941F40061C1612068C16921F4CE
:1041C0008061C1612068C1692A6941EA0221C16137
:1041D000ACE710B5040003D094F83D0010B107E03F
:1041E000012010BD002084F83C00204600F015F8A6
:1041F000022084F83D00211D206800F00FFE012000
:104200003D3460726070A070E07020716071A071C8
:10421000E07120722070002010BD704770470000D0
:1042200010B50446022249B104290ED0082913D042
:1042300094F84100012816D0012010BD94F83E00EA
:104240000128F9D184F83E200FE094F83F000128BE
:10425000F2D184F83F2008E094F840000128EBD127
:1042600084F8402001E084F841200122206800F019
:1042700011FE0F492068884203D1426C42F400428B
:1042800042642068884208D0B0F1804F05D00949C7
:10429000884202D00849884204D1816801F00701B0
:1042A000062903D0016841F001010160002010BD22
:1042B000002C014000040040000800402DE9F041BE
:1042C000074600681649884220D1164C2069401CD8
:1042D000804620611448807902F0EEFD134902F017
:1042E00011FD02F07BFC01F06BFC05460E46E06818
:1042F00002F04BFA2A46334602F00EF802F018FAA2
:10430000E0605FEAC87001D10120A07008493868F8
:10431000884203D1BDE8F041FFF7E0B8BDE8F08185
:104320000004004000000020BC00002066666640DB
:1043300000080040704770B5040004D094F84100B4
:10434000002510B106E0012070BD84F840502046E1
:1043500000F024F8242084F841002068C16821F48A
:104360000051C160204600F07BFE2068016921F405
:10437000904101612068416921F02A014161206872
:10438000C16841F40051C1606564202084F8410097
:1043900084F842006563002070BD000030B585B030
:1043A0000024009401940294039400681449884204
:1043B00024D11448816941F480418161816901F40B
:1043C00080410491816941F00401816180690E4D51
:1043D00000F0040004904FF400700090022001905F
:1043E0000320039069462846FEF7F6FD2815CDE91F
:1043F0000004694628460294FEF7EEFD05B030BD84
:1044000000380140001002400008014090F842309E
:10441000202B01D00220704721B11AB10023036381
:1044200000F064BE01207047FEE701684A69D2438C
:1044300052050FD46FF480624A61002140F8301FAA
:10444000202242738173026942F004020261017307
:104450000120704700207047F8B50446C06A1E4628
:104460000D461746082807D0012805D010F5803FD3
:1044700002D0206B122804D12068016841F48071B9
:104480000160134600224FF001112046009600F013
:104490005DF840B120680068C00502D54FF4007097
:1044A00020640320F8BD2069B0F5804F0ED00620AF
:1044B000216800EAD51040F0F000086133463A4622
:1044C0000B49204600F08AF878B902E005F0FE00BA
:1044D00000E0E8B221680861054933463A46891F81
:1044E000204600F07BF80028DCD00120F8BD000059
:1044F0000800010070B516460D4604461EE0204631
:10450000FFF793FF08B1012070BD681C16D0FEF7BD
:1045100059FE801BA84200D885B920684069C04375
:1045200040070BD5002044F8300F20216173A073A1
:10453000216941F0200121612073E4E7206840698E
:10454000C0434007DBD4002070BD00002DE9F047D8
:10455000984617460D460446C1F30746DDF82090FD
:104560002AE000BF18F1010026D0FEF72BFEA0EBD9
:104570000901414502D8B8F1000F1DD12068012E74
:1045800016D0806925EA00000004000C12D000203B
:10459000B84211D1002044F8300F20216173A0737C
:1045A000216941F02001216120730120BDE8F087DD
:1045B0004069E7E70120EBE72068012E0AD0806917
:1045C00025EA00000004000C06D00020B842C9D043
:1045D0000020EBE74069F3E70120F7E72DE9F0471A
:1045E000984616460D4604464FF000094FF0200A43
:1045F000C1F3074723E020684069C043400515D454
:104600002068016841F40071016021686FF48060E6
:104610004861C4F8309084F83DA084F83E90216C45
:1046200041F00401216484F83C9021E0701C06D024
:10463000FEF7C8FDA0EB0800B04203D816B1012F69
:104640001FD021E02068012F15D0806925EA0000E5
:104650000004000C18D000BF44F8309F84F80DA06F
:1046600084F80E90216941F02001216184F80C90BA
:104670000120BDE8F087406925EA00000004000C35
:10468000EAD12068406901E02068806925EA0000DD
:104690000004000CAFD1ECE770B516460D46044699
:1046A0001EE02046FFF7C1FE08B1012070BD681C66
:1046B00016D0FEF787FD801BA84200D885B9206878
:1046C0004069C04300060BD5002044F8300F20217C
:1046D0006173A073216941F0200121612073E4E737
:1046E00020684069C0430006DBD4002070BD000094
:1046F00008480021017041708170C17001714171E1
:104700008171C171017241728172C0F80D10C0F8DF
:1047100011107047BC00002088B0FFF7E9FF9948EE
:10472000FDF7EAFD042298499648FDF7A9FF97484E
:10473000FDF7DCFD0027DFF8509205973E46BB46AB
:1047400040F6FF78A9F138094FF0010A04978F4825
:104750006C30416811F0FF4F07D0026812F0FF4F34
:1047600003D0A0F2B310016042604FF400418848CA
:10477000FEF71EFD08B1002412E0012487B981492B
:1047800089F802A018394A460B783AEA0300087003
:104790000FD0FDF789FD50617C484838FFF744FB96
:1047A00027464FF400717B48FEF702FD48B1002018
:1047B00011E0087AFDF77EFD74484838FFF760FB8A
:1047C000EEE701203EB96F4A89F802A0183AD37883
:1047D0002AEA0301D1706C4D06466888642148437B
:1047E000B0FBF8F0674C183C6179081A00D54042DC
:1047F000022807DD89F802A0688864214843B0FBDD
:10480000F8F060712078012803D000206070A0715A
:10481000B3E04FF480415E48FEF7CAFC08B10020C7
:1048200009E00599012031B989F802A06178491C95
:1048300001F00301617005904FF400515448FEF7F8
:10484000B7FC08B1002008E00499012029B989F8D3
:1048500002A0A2782AEA0201A17004904FF48071AC
:104860004C48FEF7A5FC08B1002009E00120BBF18F
:10487000000F05D189F802A022792AEA02012171EC
:10488000834620214348FEF793FC40B10020E072AC
:10489000A07A032805D0012803D0002013E00120CE
:1048A000F5E72888FA214843B0FBF8F0A279801A8E
:1048B00000D54042022807DD89F802A02888FA22A4
:1048C0005043B0FBF8F0A071A888D9F804204946FD
:1048D000101A00D54042C82806DCEA888868801A89
:1048E00000D54042C82849DD81F802A0A888486068
:1048F000EA88C9F80820009202F0C6FA264902F0B8
:10490000C5FB0546009802F0BFFA234902F0BEFB42
:1049100022498D4206DA224A954203D2884201DAC0
:1049200090422BD3294600F041FC1E4902F0D8FAF0
:1049300002F054F91C4A1D4B01F0A2FD01F0BAFC33
:1049400010F1FF4F02D31A4902F074F919490144DA
:10495000B1F5530F01D203200FE017490144B1F51F
:10496000B40F01D2002008E014490844B0F5721FCA
:1049700002D284F80AA001E00220A072142000F004
:104980009DFEE4E6D4000020380000201002002044
:1049900000100140000C014000E044450000C84206
:1049A0000000C8C200003443182D4454FB210940C4
:1049B0000000B4430000CCBD0000F9BC00009FBC67
:1049C0003EB500212148009101911F4A02910260E9
:1049D0009215826001250573017504244FF460224D
:1049E0000461C2614160FDF775FD08B172B6FEE772
:1049F000CDE900450725694614480295FDF7E8FC16
:104A000008B172B6FEE705200090022001906946C9
:104A10000E48FDF7DDFC08B172B6FEE706200090F7
:104A20000320019069460948FDF7D2FC08B172B62F
:104A3000FEE7CDE9005469460448FDF7C9FC0028AB
:104A400001D072B6FEE73EBD00240140D400002034
:104A50000E4810B50C4901600921416000214FF456
:104A600000328160C0E903124FF4401242610176C6
:104A700041768176C17601774177FDF7E8FF00281E
:104A800001D072B6FEE710BD0064004004010020B2
:104A90002DE9F04385B000242D4800940194029440
:104AA0000394816941F010018161816901F0100175
:104AB0000491816941F020018161816901F0200147
:104AC0000491816941F004018161816901F004016F
:104AD0000491816941F0080181618069DFF8749077
:104AE00000F008004FF61346049000223146484675
:104AF000FEF763FBDFF860804FF4807700223946D1
:104B00004046FEF75AFB4FF4604001258DE8310026
:104B100069461248FEF760FACDE900650226CDE944
:104B2000024669464846FEF757FA00970396CDE9D4
:104B3000015469464046FEF74FFA4FF448708DE83D
:104B4000310069464846FEF747FA05B0BDE8F083F4
:104B500000100240000C014000080140001001401C
:104B600010B58EB000240794089409940A940B940D
:104B70001C2168460C94FBF7C3FD1E484FF0804192
:104B800001604721C0E9011444F61F61C0E9031424
:104B900080218161FFF7FCF808B172B6FEE74FF49F
:104BA0008050079007A91348FFF782F908B172B641
:104BB000FEE71048FFF70DFB08B172B6FEE70B9455
:104BC0000BA90C480C94FFF7AFF808B172B6FEE7DA
:104BD0006020CDE90004029400226946054804944F
:104BE000FFF791FA08B172B6FEE70248FFF766FADE
:104BF0000EB010BD8001002010B586B0002417480B
:104C00000094019402940394049413490594016060
:104C100041F61F41C0E9011442F20F71C0E90314CB
:104C20008461FFF7B5F808B172B6FEE74FF4805023
:104C3000009069460948FFF73BF908B172B6FEE7F4
:104C4000049404A905480594FFF76EF8002801D0E4
:104C500072B6FEE706B010BD00040040C801002097
:104C6000FEE7FEE72DE9FF412C4C2B48DFF8B08032
:104C70002063152003216063E1702422C8F800201E
:104C80000822C8F81020002700978DF800108DF832
:104C900001008DF8027001208DF803004146454661
:104CA000019704F12C036A46A1F5AA70FDF76EFD89
:104CB0000A20FEF7CDF825202860002526E0401EBA
:104CC00002970397854204D1616BA5EBC5000844A8
:104CD00000E00720C6B28DF80850216BC5EBC50077
:104CE000014432460DF10900FBF793FC0B4B0C49D4
:104CF000761C2C3302AAA1F5AA70C8F81060FDF743
:104D000045FD0A20FEF7A4F86D1CEDB2E07885425F
:104D1000D5D3BDE8FF810000BC00002000000020CA
:104D20005802002078B14FF4FA725043FA22B0FBD7
:104D3000F2F044290AD0A0F2DC50404280B205498A
:104D400009684863704740F2DC50F8E700F2DC5035
:104D5000F4E7000080010020012000F0AFFCFBE739
:104D600010B5502080F31188BFF34F8FBFF36F8FC2
:104D700001F0A4F918B104494FF0805008600020F8
:104D800080F3118810BD000004ED00E030B593B051
:104D900028216846FBF7B4FC14210AA8FBF7B0FCF5
:104DA000002501200F9510951195010412958DE8AD
:104DB000230004904FF4E010CDE90810022407947A
:104DC0006846FEF71BFE08B172B6FEE70AA90F207F
:104DD00031C14FF48060CDE90D0502210AA8FEF72C
:104DE00011FD08B172B6FEE74FF4004011900F9428
:104DF0000FA8FEF78FFC002801D072B6FEE713B0B3
:104E000030BD70470148FFF7C1B80000C80100205D
:104E10000148FFF7BBB80000C0070020F0B50268EA
:104E2000194B1A4C1A4D4FF08047984205D0B842A2
:104E300003D0A04201D0A84203D122F070064A68F4
:104E40003243984205D0B84203D0A04201D0A842D4
:104E500003D122F44074CA6822434C6922F08002D4
:104E6000224302608A68C2620A688262984201D163
:104E700009690163012141610169C90703D0016921
:104E800021F001010161F0BD002C0140000400404F
:104E90000008004010B501F01F030121046A994089
:104EA0008C430462016A9A401143016210BD10B53F
:104EB000846842EA032224F47F440A432243826046
:104EC00010BD826822F070020A4342F0070181603F
:104ED0007047000030B5036A026A22F001020262E4
:104EE0004268846924F073050C682C4323F00205A2
:104EF0008B682B430A4DA8420BD123F00805CB68E1
:104F000022F440722B434D6923F0040315438A6950
:104F10002A434260846149684163036230BD0000F6
:104F2000002C014030B5026A036A23F010030362CB
:104F3000436884690D6824F4E64444EA05248D68D6
:104F400022F0200242EA05120B4DA8420ED1CD6894
:104F500022F0800242EA05124D6923F4406343EADD
:104F600085038D6922F0400243EA85034360846132
:104F700049688163026230BD002C014030B5036A8C
:104F8000026A22F4807202624268C46923F40073E8
:104F900024F073050C682C438D6843EA05230C4DFF
:104FA000A8420ED1CD6823F4006343EA05234D697E
:104FB00022F4405242EA05128D6923F4806342EAEA
:104FC00005124260C4614968C163036230BD0000DC
:104FD000002C014030B5046A026A22F48052026259
:104FE0004268C3690D6823F4E64343EA05238D68EC
:104FF00024F4005444EA0534064DA84204D14D6916
:1050000022F4804242EA85124260C3614968016429
:10501000046230BD002C014010B5036A046A24F01C
:1050200001040462846924F0F00444EA021423F0C9
:105030000A020A438461026210BD10B5036A046A61
:1050400024F010040462846923F0A00324F4704463
:1050500044EA023243EA01118261016210BD00009C
:1050600010B5044600680169E26821F4405111431B
:1050700001612169A0680843616908432168CA6821
:1050800041F20C639A430243CA6020684169A269F5
:1050900021F440711143416113492068884202D1D3
:1050A000FEF776FC01E0FEF763FC00EBC00101EBCC
:1050B0000010616864228900B0FBF1F1B1FBF2F0ED
:1050C0006FF01803434301EB8303322101EB03111B
:1050D000B1FBF2F101F0F00202EB001001F00F0160
:1050E00008442168886010BD0038014081628285D3
:1050F000C28500214164222180F84210016921B15A
:105100000168CA6842F48072CA6001684A6942F064
:1051100001024A610068C16841F02001C1600020BD
:105120007047FEE7490050EAC12018BF04204A0D2D
:1051300018BF40F0010040F2FF72B2EB515F08BFB0
:1051400040F00200012808BF052070474100080216
:1051500018BF04200A0E18BF40F001004FF07F4234
:1051600032EA010108BF40F00200012808BF052013
:10517000704700000907090E002801DB034A02E01E
:10518000034A00F00F0081547047000000E400E083
:1051900014ED00E06FF05E01080702F022B830382D
:1051A0000A2801D201207047002070472DE9F047FE
:1051B0004FF0684202EB40030C460546B3F1654FE1
:1051C0003CBF02EB4102B2F1654F3FD34FF07F424B
:1051D000B2EB400F28BFB2EB410F03D2BDE8F0475E
:1051E00001F028BD40EA01035B0008BF44F0FF4125
:1051F0000AD0B2EB400F08BFB2EB410F06D125F049
:10520000804024F0804105460C461FE0B2EB400F81
:1052100012BF5FEA410245F0FF4004F0004115D0A3
:105220004FEA410292EA400310D4002AB4BF4FF083
:105230003E564FF09F46314601F052FE054631463C
:10524000204601F04DFE044628462146C0F3C753D0
:10525000C1F3C7529A1A1B2A06DD10F0004F14BF83
:1052600054485548BDE8F08712F11A0F17DA11F0CB
:10527000004F06D010F0004F0CBF50485048BDE81A
:10528000F0872146284601F03DFD0446FFF75EFF0A
:10529000042808BFFFF77EFF2046BDE8F0874200E4
:1052A000B2EB410F25D910F0004F19BF454F464EC4
:1052B000464F474E224685F0004415460A4680F088
:1052C000004110460A1A5200B2F1807F3ED2484097
:1052D0004049DFF804A110F0004F18D04FF03F48CC
:1052E000384601F0D3FE07465146304601F0CEFE67
:1052F00017E011F0004F04BF00263746E2D010F04F
:10530000004F19BF354F364E364F374EDAE74FF064
:105310007C58384601F08EFC07465146304601F075
:1053200089FC06464146284601F0DAFD214601F097
:1053300081FC82462146404601F0D2FD294601F01B
:105340009BFE514601F0DEFC044604E0214628465F
:1053500001F0D8FC0446014601F0C2FD8046234915
:1053600001F0BEFD224901F065FC414601F0B8FDA7
:10537000204901F05FFC414601F0B2FD1E4901F0F9
:1053800059FC414601F0ACFD1C4901F053FC0546B7
:105390004146204601F0A4FD294601F0A1FD314619
:1053A00001F048FC214601F045FC3946BDE8F047D4
:1053B00001F040BCDB0FC9BFDB0FC93FDB0F494029
:1053C000DB0F49C00000C9BF22AAFDB90000C93FD8
:1053D00022AAFD390060ED3EC30ACE37000049C065
:1053E00022AA7DBA0000494022AA7D3A2DAD65BDB2
:1053F0008FB8D53D0FB511BE61C84C3EA8AAAABE54
:1054000038B500214172642100914468017800F1AF
:10541000090201232046FDF799FF38BD38B5082160
:105420004172642100914468017800F1090201236E
:105430002046FDF78BFF38BD10B504464160500093
:105440002070207A332140F004002072204600F0C2
:1054500043F83221204600F03FF80520FDF7F8FC24
:105460000121204600F038F80520FDF7F1FC0C2161
:10547000204600F031F80520FDF7EAFC0221204625
:1054800000F02AF80520FDF7E3FC8021204600F01B
:1054900023F8204600F074F80820607210BD0FB4A5
:1054A00070B586B005460CAA68460B99FAF742FF1C
:1054B00000246E4605E0315D284600F02DF8641C9E
:1054C000E4B26846FBF786F8A04201D9102CF2D36B
:1054D00006B070BC5DF814FB1CB501F0F002437A15
:1054E00042F004041C438DF8044013438DF805304A
:1054F0000901427A41F004031A438DF80620427AEA
:1055000004230A438DF80720642100910178406844
:1055100001AAFDF71BFF1CBD1CB501F0F002437A88
:1055200042F005041C4342F001028DF8044013438D
:105530008DF805300901427A41F005031A438DF8D0
:105540000620427A41F001010A438DF807206421C8
:10555000009101784068042301AAFDF7F7FE1CBD05
:1055600008B506A31B6800931DF801101144C9B2C9
:1055700041F08001FFF7B0FF08BD00000040145467
:10558000017A21F00101017241F00801FFF7A4BF87
:10559000A4B0FDF7ABFFFFF7F9FBFFF779FA3D4841
:1055A000416941F0010141614069002200F00100C0
:1055B000239005210B20FEF729F80B20FEF718F8A1
:1055C000FFF746FAFFF7FCF934483349002401603D
:1055D0003349C0E901144FF48041C0E903414461FB
:1055E0008461C4610462FDF7F3FD08B172B6FEE7A1
:1055F0002A482C49E43001604FF41651C0E90114E7
:105600000C21C460C0E904418461C461FEF793FECB
:1056100008B172B6FEE7FFF7A3FAFFF7EDFA1C2216
:1056200021496846FBF73AF80021684600F053F834
:105630001E4C1D491C22A0611C3107A8FBF72EF847
:10564000002107A800F047F81749E0611C22383113
:105650000EA8FBF723F800210EA800F03CF8124931
:1056600020621C22543115A8FBF718F8002115A858
:1056700000F031F80C4960621C2270311CA8FBF765
:105680000DF800211CA800F026F8A06200F01EF81A
:10569000FEE7000000100240005400402C010020F2
:1056A000A086010000380140607200080000002060
:1056B0000021842800D0C11C0846704710B500287E
:1056C00000D1012000F096FB002010BD10B500F0C5
:1056D000B9FB002010BD30B585B004460D466169A8
:1056E000B4F90800002910D0A16971B1FFF7E0FFFB
:1056F0006269A1690192029100902B46226921689A
:10570000606800F0AAFC049010E0FFF7D1FF04A944
:1057100001910090208A2B4682B22168606800F0D7
:1057200067FC012802D005B0002030BD049805B008
:1057300030BD00002DE9F04104460F46184EF568D3
:105740003068001D00F088FA48B93068012190F8EF
:105750002C0001FA00F0316921EA00003061601C80
:1057600007D137B13068BDE8F041011D0D4800F0A8
:10577000BABA2C4430684460AC4206D23068011D8D
:10578000B06BBDE8F04100F093BA3068011D706B5A
:1057900000F08EFAB06A844200D2B462BDE8F081B3
:1057A000500000200409002070B5044600F0A8FA5B
:1057B0001C4DA868401CA860286810B1686938B101
:1057C0000CE02C60A868012808D100F0EDF805E095
:1057D0002868E16AC06A884200D82C60686A401C68
:1057E0006862E06A01212A698140114329610E49FA
:1057F00000EB800001EB8000211D00F074FA00F046
:105800009FFA686900280CD02868E16AC06A88425B
:1058100007D206494FF080500860BFF34F8FBFF3A7
:105820006F8F70BD500000202808002004ED00E0BC
:1058300070B50D4C6068002815D00C4E00F060FA71
:10584000F068C568281D00F007FAA068401EA06037
:105850006068401E606000F073FA284600F008F8A7
:1058600060680028EAD170BD50000020F0080020D8
:1058700010B5044694F8511000290BD0012911D01D
:10588000022914D0502080F31188BFF34F8FBFF34B
:105890006F8FFEE7206B00F069FA2046BDE81040EC
:1058A00000F064BA2046BDE8104000F05FBA10BDB9
:1058B0004FF48051104810F0070F06D0C01D20F0A3
:1058C00007000D49411AC1F580510C4A10600023B0
:1058D00053600144083921F00701183A11604B6008
:1058E0000B600B1A436001604068906050604FF09D
:1058F000004050617047000018090020A4000020FB
:10590000074E4FF08054074DFFF792FF3068012893
:10591000FAD92C60BFF34F8FBFF36F8FF4E700000D
:105920002808002004ED00E02DE9F0478146099E9B
:10593000089D0A9C9A46521E206B00EB820020F0C4
:105940000708002700290CD0002023180A5C83F8E0
:1059500034200A5C12B1401C1028F6D384F843703E
:1059600001E084F83470072D00D30625E5626564F4
:10597000A764201D00F099F904F1180000F095F9D2
:105980002461C5F10700A0616462E76484F8507087
:1059900052464946404600F001F92060002E00D0F2
:1059A0003460BDE8F087000070B500240F4D04EBB3
:1059B000840005EB800000F06DF9641C072CF6D321
:1059C0000B4800F067F90B4800F064F90A4800F052
:1059D00061F90A4800F05EF9094800F05BF90948EE
:1059E000034941631431816370BD00002808002021
:1059F000B4080020C8080020DC080020F0080020BF
:105A0000040900205000002010B4144900E01146A1
:105A10000A688242FBD34B6803EB010C844503D137
:105A200040681844486008460C68D0F804C00CEB85
:105A30000003A3420CD10A4B1B689A4206D052685D
:105A4000624442600A681268026002E0036000E09B
:105A50000260814200D0086010BC7047A4000020A2
:105A60008C0000200749486B0068002805D0486B6F
:105A7000C068C0684068886270474FF0FF30886235
:105A8000704700005000002009484068401C07D0C3
:105A9000502080F31188BFF34F8FBFF36F8FFEE765
:105AA000502080F31188BFF34F8FBFF36F8FFEE755
:105AB000AC0000202DE9F0410546002600F006FA72
:105AC000344F386808B9FFF7F3FE7869054251D1C1
:105AD0009DB1083515F0070F0FD005F00700C0F194
